:020000040800F2
:100000000008002089010008E5010008E50100085A
:10001000E5010008E5010008E50100080000000016
:10002000000000000000000000000000E5010008E2
:10003000E501000800000000E5010008E5010008F6
:10004000E5010008E5010008E5010008E5010008F8
:10005000E5010008E5010008E5010008E5010008E8
:10006000E5010008E5010008E5010008E5010008D8
:10007000E5010008E5010008E5010008E5010008C8
:10008000E5010008E5010008E5010008E5010008B8
:10009000E5010008E5010008E5010008E5010008A8
:1000A000E5010008E5010008E5010008E501000898
:1000B000E5010008E5010008E5010008E501000888
:1000C000E5010008E5010008E5010008E501000878
:1000D000E5010008E5010008E5010008E501000868
:1000E000E5010008E5010008E5010008E501000858
:1000F000E5010008E5010008E5010008E501000848
:10010000E5010008E5010008E5010008E501000837
:10011000E5010008E5010008E5010008E501000827
:10012000E5010008E5010008E5010008E501000817
:10013000E5010008E5010008E5010008E501000807
:10014000E5010008E5010008E5010008E5010008F7
:10015000E5010008E5010008E5010008E5010008E7
:10016000E5010008E5010008E5010008E5010008D7
:10017000E5010008E5010008E5010008E5010008C7
:10018000E5010008E501000880B582B000AF104B22
:100190007B60104B3B6007E03B681A1D3A607A6851
:1001A000111D796012681A603B680B4A9342F3D3C1
:1001B0000A480B494FF000028842B8BF40F8042BB0
:1001C000FADB00F013F800BF0837BD4680BD00BF62
:1001D000A005000800000020000000200000002012
:1001E0000000002080B400AFFEE700BF80B500AF84
:1001F00000F02EF900F036F804E04FF48051084882
:1002000000F00AF90121074800F0ECF80346012B41
:10021000F3D04FF48051024800F00CF9ECE700BF36
:10022000000C02400000024080B483B000AF786050
:100230000B46FB70FB78002B06D00949084B1A6B64
:100240007B6813430B6306E00549054B1A6B7B681B
:10025000DB4313400B6300BF0C37BD4680BC7047C7
:100260000038024080B582B000AF01210120FFF7C5
:10027000DBFF01210820FFF7D7FF01233B600023AC
:100280003B710023BB7103237B710023FB713B4651
:1002900019460B4800F018F84FF480533B600123D7
:1002A0003B710023BB7103237B710023FB713B4631
:1002B0001946044800F008F800BF0837BD4680BD65
:1002C00000000240000C024080B487B000AF7860AC
:1002D000396000237B6100233B610023FB60002326
:1002E0007B6176E001227B6902FA03F33B613B68A4
:1002F0001A683B691340FB60FA683B699A4265D112
:100300007B681A687B695B00032101FA03F3DB4316
:100310001A407B681A607B681A683B681B7919462B
:100320007B695B0001FA03F31A437B681A603B6840
:100330001B79012B03D03B681B79022B2ED17B68E4
:100340009A687B695B00032101FA03F3DB431A40DF
:100350007B689A607B689A683B685B7919467B6921
:100360005B0001FA03F31A437B689A607B685A6862
:100370007B699BB2194601238B40DB431A407B68A3
:100380005A607B685B683A68927911467A6992B2E2
:1003900001FA02F292B21A437B685A607B68DA680B
:1003A0007B699BB25B00032101FA03F3DB431A4034
:1003B0007B68DA607B68DA683B68DB7919467B69C1
:1003C0005B0001FA03F31A437B68DA607B6901334F
:1003D0007B617B690F2B85D900BF1C37BD4680BC74
:1003E000704700BF80B485B000AF78600B467B805B
:1003F0000023FB737B681A697B881340002B02D0B3
:100400000123FB7301E00023FB73FB7B18461437C9
:10041000BD4680BC704700BF80B483B000AF786039
:100420000B467B807B687A881A8300BF0C37BD46F9
:1004300080BC704780B483B000AF78600B467B808F
:100440007B687A885A8300BF0C37BD4680BC7047F2
:1004500080B500AF124A124B1B6843F001031360D2
:100460000F4B00229A600E4A0D4B1B6823F08473D9
:1004700023F4803313600A4B0A4A5A60084A084B37
:100480001B6823F480231360054B0022DA6000F020
:100490000DF8054B4FF000629A6000BF80BD00BFB1
:1004A000003802401030002400ED00E080B483B03A
:1004B00000AF00237B6000233B60354A344B1B6850
:1004C00043F480331360324B1B6803F400333B600A
:1004D0007B6801337B603B68002B03D17B68B3F5FD
:1004E000A06FF0D12A4B1B6803F40033002B02D01D
:1004F00001233B6001E000233B603B68012B42D1BC
:10050000234A234B1B6C43F080531364214A214B35
:100510001B6843F4804313601D4A1D4B9B68936026
:100520001B4A1B4B9B6843F400439360184A184BCB
:100530009B6843F4A0539360154B174A5A60144AC2
:10054000134B1B6843F08073136000BF104B1B6894
:1005500003F00073002BF9D0104B40F205621A60D3
:100560000B4A0B4B9B6823F003039360084A084B2C
:100570009B6843F00203936000BF054B9B6803F048
:100580000C03082BF9D100BF0C37BD4680BC704767
:10059000003802400070004008544007003C024010
:0400000508000000EF
:00000001FF
