:020000040800F2
:10000000100800204D040008A9040008A9040008F5
:10001000A9040008A9040008A904000800000000C1
:10002000000000000000000000000000A90400081B
:10003000A904000800000000A9040008A9040008A1
:10004000A9040008A9040008A9040008A9040008DC
:10005000A9040008A9040008A9040008A9040008CC
:10006000A9040008A9040008A9040008A9040008BC
:10007000A9040008A9040008A9040008A9040008AC
:10008000A9040008A9040008A9040008A90400089C
:10009000A9040008A9040008A9040008A90400088C
:1000A000A9040008A9040008A9040008A90400087C
:1000B000A9040008A9040008A9040008A90400086C
:1000C000A9040008A9040008A9040008A90400085C
:1000D000A9040008A9040008A9040008710C00087C
:1000E000A9040008A9040008A9040008A90400083C
:1000F000A9040008A9040008A9040008A90400082C
:10010000A9040008A9040008A9040008A90400081B
:10011000A9040008A9040008A9040008A90400080B
:10012000A9040008A9040008A9040008A9040008FB
:10013000A9040008A9040008A9040008A9040008EB
:10014000A9040008A9040008A9040008A9040008DB
:10015000A9040008A9040008A9040008A9040008CB
:10016000A9040008A9040008A9040008A9040008BB
:10017000A9040008A9040008A9040008A9040008AB
:10018000A9040008A904000880B58AB000AF78600F
:10019000396000237B6200233B620023FB61002364
:1001A000BB617B681B8A9BB27B627B6A23F44053F2
:1001B0007B623B68DB881A467B6A13437B627B6AFF
:1001C0009AB27B681A827B689B899BB27B627B6A4E
:1001D00023F4B05323F00C037B623B689A883B689E
:1001E0001B8913439AB23B685B8913439BB21A463F
:1001F0007B6A13437B627B6A9AB27B689A817B68D5
:100200009B8A9BB27B627B6A23F440737B623B6870
:100210009B891A467B6A13437B627B6A9AB27B682E
:100220009A8207F10803184600F062F97B68304AA9
:10023000934203D07B682F4A934202D17B693B6291
:1002400001E03B693B627B689B899BB21BB2002B40
:100250000CDA3A6A13469B0013449A001A443B682E
:100260001B685B00B2FBF3F3FB610BE03A6A1346D9
:100270009B0013449A001A443B681B689B00B2FB26
:10028000F3F3FB61FB691C4AA2FB03235B091B011F
:100290007B627B6A1B09642202FB03F3FA69D31AAF
:1002A000BB617B689B899BB21BB2002B0CDABB69DC
:1002B000DB003233104AA2FB03235B0903F0070380
:1002C0007A6A13437B620BE0BB691B0132330A4A33
:1002D000A2FB03235B0903F00F037A6A13437B62DB
:1002E0007B6A9AB27B681A8100BF2837BD4680BD01
:1002F00000100140001401401F85EB5180B483B011
:1003000000AF78600B46FB70FB78002B08D07B6851
:100310009B899BB243F400539AB27B689A8107E0B1
:100320007B689B899BB223F400539AB27B689A81C5
:1003300000BF0C37BD4680BC704700BF80B483B09F
:1003400000AF78600B467B807B88C3F308039AB2CA
:100350007B689A8000BF0C37BD4680BC704700BFE9
:1003600080B485B000AF78600B467B800023FB73C0
:100370007B681B889AB27B8813409BB2002B02D00B
:100380000123FB7301E00023FB73FB7B184614374A
:10039000BD4680BC704700BF80B487B000AF7860B6
:1003A0000B467B800023FB6000237B610023BB6046
:1003B0000023FB747B88DBB25B09DBB2BB607B880C
:1003C00003F01F037B6101227B6902FA03F37B6167
:1003D000BB68012B07D17B689B899BB21A467B695E
:1003E00013407B6111E0BB68022B07D17B681B8A3D
:1003F0009BB21A467B6913407B6106E07B689B8A4F
:100400009BB21A467B6913407B617B881B0A9BB2B7
:10041000FB600122FB6802FA03F3FB607B681B8828
:100420009BB21A46FB681340FB607B69002B05D02A
:10043000FB68002B02D00123FB7401E00023FB7456
:10044000FB7C18461C37BD4680BC704780B582B027
:1004500000AF104B7B60104B3B6007E03B681A1D00
:100460003A607A68111D796012681A603B680B4A1D
:100470009342F3D30A480B494FF000028842B8BFB9
:1004800040F8042BFADB00F013F800BF0837BD4634
:1004900080BD00BFC00C000800000020100000203C
:1004A000100000201000002080B400AFFEE700BF65
:1004B00080B500AF00F0AAFA00F000F906E04FF4B2
:1004C0008051094800F03EFA00F0DEFB01210748A8
:1004D00000F01EFA0346012BF1D04FF48051024880
:1004E00000F03EFAEAE700BF000C024000000240C4
:1004F00080B489B000AF78600023BB6100237B61CA
:100500000023FB6102233B610023FB600223BB60ED
:10051000484B9B6803F00C03BB61BB69042B07D0FD
:10052000082B09D0002B3FD17B68434A1A603FE07B
:100530007B68424A1A603BE03E4B5B6803F48003F1
:100540009B0DFB603B4B5B6803F03F03BB60FB68AC
:10055000002B0DD0394ABB68B2FBF3F2354B59681A
:1005600047F6C0730B409B0903FB02F3FB610CE0F1
:10057000314ABB68B2FBF3F22E4B596847F6C073A1
:100580000B409B0903FB02F3FB612A4B5B6803F4FE
:1005900040331B0C01335B003B61FA693B69B2FBE2
:1005A000F3F27B681A6003E07B68234A1A6000BF9D
:1005B000204B9B6803F0F003BB61BB691B09BB6167
:1005C0001F4ABB6913441B78DBB27B617B681A68E6
:1005D0007B69DA407B685A60164B9B6803F4E053F2
:1005E000BB61BB699B0ABB61154ABB6913441B789D
:1005F000DBB27B617B685A687B69DA407B689A6012
:100600000C4B9B6803F46043BB61BB695B0BBB6134
:100610000B4ABB6913441B78DBB27B617B685A6869
:100620007B69DA407B68DA6000BF2437BD4680BC56
:10063000704700BF003802400024F40000127A0026
:100640000000002080B483B000AF78600B46FB70E0
:10065000FB78002B06D00949084B1A6B7B681343C3
:100660000B6306E00549054B1A6B7B68DB431340BF
:100670000B6300BF0C37BD4680BC7047003802409A
:1006800080B483B000AF78600B46FB70FB78002B22
:1006900006D00949084B1A6C7B6813430B6406E0CB
:1006A0000549054B1A6C7B68DB4313400B6400BFA4
:1006B0000C37BD4680BC70470038024080B58AB018
:1006C00000AF01210120FFF7BDFF01210420FFF74A
:1006D000B9FF01210820FFF7B5FF01214FF4802069
:1006E000FFF7CEFF0123FB61002387F820300023B2
:1006F00087F82230032387F82130002387F823303E
:1007000007F11C031946364800F074F84FF4805383
:10071000FB61012387F82030002387F82230032370
:1007200087F82130002387F8233007F11C0319468E
:100730002C4800F05FF84FF44063FB61022387F818
:100740002030002387F82230012387F8233002234A
:1007500087F8213007F11C031946234800F04AF8B6
:10076000224B5B6A7B6201210220FFF789FF42F284
:10077000CF037B6142F20F733B8200233B83002354
:100780007B8207F110031946184800F0E7F90121B0
:10079000164800F04DFA07220A21134800F0EEF83F
:1007A00007220B21104800F0E9F84FF4E1333B60D9
:1007B0000023BB800023FB8000233B810023BB81FF
:1007C0000C237B813B4619460948FFF7DDFC0121DC
:1007D0000748FFF793FD00BF2837BD4680BD00BF27
:1007E00000000240000C02400008024000040040EB
:1007F0000048004080B487B000AF786039600023C3
:100800007B6100233B610023FB6000237B6176E07A
:1008100001227B6902FA03F33B613B681A683B697A
:100820001340FB60FA683B699A4265D17B681A689D
:100830007B695B00032101FA03F3DB431A407B6809
:100840001A607B681A683B681B7919467B695B00F4
:1008500001FA03F31A437B681A603B681B79012B8A
:1008600003D03B681B79022B2ED17B689A687B6989
:100870005B00032101FA03F3DB431A407B689A60B3
:100880007B689A683B685B7919467B695B0001FA73
:1008900003F31A437B689A607B685A687B699BB252
:1008A000194601238B40DB431A407B685A607B6802
:1008B0005B683A68927911467A6992B201FA02F25B
:1008C00092B21A437B685A607B68DA687B699BB294
:1008D0005B00032101FA03F3DB431A407B68DA6013
:1008E0007B68DA683B68DB7919467B695B0001FA53
:1008F00003F31A437B68DA607B6901337B617B69B0
:100900000F2B85D900BF1C37BD4680BC704700BF88
:1009100080B485B000AF78600B467B800023FB730A
:100920007B681A697B881340002B02D00123FB737C
:1009300001E00023FB73FB7B18461437BD4680BCE7
:10094000704700BF80B483B000AF78600B467B80F7
:100950007B687A881A8300BF0C37BD4680BC70471D
:1009600080B483B000AF78600B467B807B687A8868
:100970005A8300BF0C37BD4680BC704780B485B039
:1009800000AF78600B467B8013467B700023FB60D2
:100990000023BB607A787B8803F007039B0002FA90
:1009A00003F3FB607B88DB089BB218467B88DB087F
:1009B0009BB21A467B68083253F822207B8803F0EA
:1009C00007039B000F2101FA03F3DB4302EA030153
:1009D0007B6800F1080243F822107B88DB089BB299
:1009E0001A467B68083253F82220FB681343BB6029
:1009F0007B88DB089BB21A467B680832B96843F8EB
:100A0000221000BF1437BD4680BC704780B500AFD0
:100A1000124A124B1B6843F0010313600F4B002274
:100A20009A600E4A0D4B1B6823F0847323F48033C5
:100A300013600A4B0A4A5A60084A084B1B6823F4A1
:100A400080231360054B0022DA6000F00DF8054B9F
:100A50004FF000629A6000BF80BD00BF00380240C6
:100A60001030002400ED00E080B483B000AF00231C
:100A70007B6000233B60354A344B1B6843F4803372
:100A80001360324B1B6803F400333B607B68013317
:100A90007B603B68002B03D17B68B3F5A06FF0D17E
:100AA0002A4B1B6803F40033002B02D001233B6068
:100AB00001E000233B603B68012B42D1234A234BDA
:100AC0001B6C43F080531364214A214B1B6843F491
:100AD000804313601D4A1D4B9B6893601B4A1B4B50
:100AE0009B6843F400439360184A184B9B6843F497
:100AF000A0539360154B174A5A60144A134B1B6856
:100B000043F08073136000BF104B1B6803F0007349
:100B1000002BF9D0104B40F205621A600B4A0B4BC8
:100B20009B6823F003039360084A084B9B6843F0DB
:100B30000203936000BF054B9B6803F00C03082B76
:100B4000F9D100BF0C37BD4680BC70470038024069
:100B50000070004008544007003C024080B485B05B
:100B600000AF786039600023FB817B681B88FB81C4
:100B70007B68284A934213D07B68274A93420FD060
:100B80007B68B3F1804F0BD07B68244A934207D037
:100B90007B68234A934203D07B68224A934208D160
:100BA000FB8923F07003FB813B685A88FB89134360
:100BB000FB817B681C4A93420CD07B681B4A9342A2
:100BC00008D0FB8923F44073FB813B681A89FB89B9
:100BD0001343FB817B68FA891A803B685A687B68FB
:100BE000DA623B681A887B681A857B68094A9342F7
:100BF00003D07B68084A934204D13B689B7A9AB23F
:100C00007B681A867B6801229A8200BF1437BD4632
:100C100080BC704700000140000401400004004017
:100C200000080040000C004000100040001400408C
:100C300080B483B000AF78600B46FB70FB78002B6C
:100C400008D07B681B889BB243F001039AB27B6893
:100C50001A8007E07B681B889BB223F001039AB2DD
:100C60007B681A8000BF0C37BD4680BC704700BF50
:100C700080B500AF40F225510248FFF78DFB00BF61
:100C800080BD00BF0048004080B500AF00BF80219C
:100C90000A48FFF765FB0346002BF8D041210748BF
:100CA000FFF74CFB00BF40210448FFF759FB034608
:100CB000002BF8D000BF184680BD00BF00480040A0
:100CC00000000000010203040102030406070809F2
:0400000508000000EF
:00000001FF
