:020000040800F2
:10000000A07F01201D070008790700087907000874
:100010007907000879070008790700080000000048
:100020000000000000000000000000007907000848
:10003000790700080000000079070008750F000824
:100040007907000879070008790700087907000890
:1000500079070008790700081103000879070008EC
:100060007907000879070008790700087907000870
:100070007907000879070008790700087907000860
:100080007907000879070008790700087907000850
:100090007907000879070008790700087907000840
:1000A0007907000879070008790700087907000830
:1000B0007907000885030008CD03000879070008C8
:1000C0007907000879070008790700087907000810
:1000D000790700087907000879070008091800085F
:1000E00079070008790700087907000879070008F0
:1000F00079070008790700087907000879070008E0
:1001000079070008790700087907000879070008CF
:1001100079070008790700087907000879070008BF
:1001200079070008790700087907000879070008AF
:10013000790700087907000879070008790700089F
:10014000790700087907000879070008790700088F
:10015000790700087907000879070008790700087F
:10016000790700087907000879070008790700086F
:10017000790700087907000879070008790700085F
:10018000790700087907000880B483B000AF786071
:100190000B467B807B88C3F308039AB27B689A8006
:1001A00000BF0C37BD4680BC704700BF80B483B031
:1001B00000AF78607B689B889BB2C3F308039BB257
:1001C00018460C37BD4680BC704700BF80B485B070
:1001D00000AF78600B467B800023FB737B681B8835
:1001E0009AB27B8813409BB2002B02D00123FB7391
:1001F00001E00023FB73FB7B18461437BD4680BC2F
:10020000704700BF80B487B000AF78600B467B803A
:100210000023FB6000237B610023BB600023FB7491
:100220007B88DBB25B09DBB2BB607B8803F01F031A
:100230007B6101227B6902FA03F37B61BB68012BBE
:1002400007D17B689B899BB21A467B6913407B610F
:1002500011E0BB68022B07D17B681B8A9BB21A4650
:100260007B6913407B6106E07B689B8A9BB21A46E0
:100270007B6913407B617B881B0A9BB2FB60012278
:10028000FB6802FA03F3FB607B681B889BB21A468B
:10029000FB681340FB607B69002B05D0FB68002BDB
:1002A00002D00123FB7401E00023FB74FB7C1846A1
:1002B0001C37BD4680BC704780B485B000AF786005
:1002C000114B1B68BB60EFF30583FB60FB68002BE1
:1002D00011D100BF0C4B1A68BB68D21A7B689A42D6
:1002E000F8D30BE0094B1B6803F48033002B02D0DA
:1002F0007B68013B7B607B68002BF3D100BF143728
:10030000BD4680BC704700BF7477012010E000E05C
:1003100080B500AF012001F0BDF80346002B24D0CA
:100320000021134801F0C4F90021124801F0C0F97E
:10033000114B00221A70114B00221A70104B002230
:100340001A600C2000F026FC0D2000F023FC0E208B
:1003500000F020FC0F2000F01DFC00F065F8642088
:10036000FFF7AAFF012001F0B9F800BF80BD00BF70
:1003700000040040000800406D7701206E770120E6
:100380006477012080B500AF01210E4801F0D4F957
:100390000346002B14D00C4B1B68184600F0B2F833
:1003A000094B1B680133084A1360074B1B68082B75
:1003B00002DD054B00221A600121024801F0E6F936
:1003C00000BF80BD000400406477012080B500AF0D
:1003D0000121114801F0B0F90346002B19D00F4B51
:1003E0001B680F4AD35C9BB21946002000F07CF9D1
:1003F0000A4B1B680133094A1360084B1B68094A02
:10040000934202D9054B00221A600121024801F0F3
:10041000BDF900BF80BD00BF000800406877012023
:10042000000000204D77010080B400AF074B1B781F
:10043000002B03D0054B00221A7002E0034B01226F
:100440001A7000BFBD4680BC704700BF6C770120AA
:1004500080B500AF254B1B78002B39D0244B1B787F
:1004600083F00103DBB2002B12D0224B1B7883F008
:100470000103DBB2002B0BD040F2DC50FFF71CFF76
:100480004FF480511C4800F0D9FE0E2000F082FB92
:1004900001211A4800F09CFE0346012BDAD1144BCF
:1004A0001B7883F00103DBB2002BD3D0114B1B78F8
:1004B00083F00103DBB2002BCCD00D4B01221A706C
:1004C0000C2000F067FB01210D4801F0F1F8C1E7B5
:1004D0000C2000F05FFB4FF48041074800F0AEFEB7
:1004E0004FF4FA70FFF7E8FEB4E700BF6C77012025
:1004F0006D7701206E770120000C0240000402405D
:100500000004004080B582B000AF78607B68082BA3
:100510005FD801A252F823F03D05000857050008F6
:100520005F0500086D0500087505000889050008CD
:10053000910500089F050008A70500080C2000F0A1
:1005400029FB0D2000F026FB0E2000F023FB0F20DE
:1005500000F020FB3DE00C2000F0EAFA39E00C202E
:1005600000F018FB0D2000F0E3FA32E00C2000F060
:10057000DFFA2EE00C2000F00DFB0D2000F00AFB4E
:100580000E2000F0D5FA24E00C2000F0D1FA20E093
:100590000C2000F0FFFA0D2000F0CAFA19E00C2040
:1005A00000F0C6FA15E00C2000F0F4FA0D2000F07F
:1005B000F1FA0E2000F0EEFA0F2000F0B9FA002157
:1005C000064801F075F8064B00221A7000F00AF890
:1005D00000BF00BF0837BD4680BD00BF000400401B
:1005E0006D77012080B500AF0F4B01221A700021FA
:1005F0000E4801F05DF80E4B00221A600C2000F04E
:10060000C9FA0D2000F0C6FA0E2000F0C3FA0F2040
:1006100000F0C0FA074B00221A700121064801F0D1
:1006200047F800BF80BD00BF6E7701200004004086
:10063000647701206D7701200008004080B485B008
:1006400000AF786039600023FB600023BB60134B70
:100650001B68FB6040F6FE727B6802FA03F3DB4323
:10066000FA681340FB603B681A683B685B681A4392
:100670003B689B681A433B68DB681343BB60BA68FE
:100680007B6802FA03F3FA681343FB60034AFB68D2
:10069000136000BF1437BD4680BC70470074004033
:1006A00080B483B000AF78600B46FB70FB78002B02
:1006B00009D00C490B4B1A6801207B6800FA03F340
:1006C00013430B6009E00749064B1A6801207B6859
:1006D00000FA03F3DB4313400B6000BF0C37BD4649
:1006E00080BC70470074004080B485B000AF786073
:1006F0000B467B800023FB60074BFB60FA687B683E
:1007000013440833FB60FB681A467B88136000BF04
:100710001437BD4680BC70470074004080B582B07D
:1007200000AF104B7B60104B3B6007E03B681A1D2D
:100730003A607A68111D796012681A603B680B4A4A
:100740009342F3D30A480B494FF000028842B8BFE6
:1007500040F8042BFADB00F013F800BF0837BD4661
:1007600080BD00BFBF180008000000206477012092
:1007700064770120A077012080B400AFFEE700BFBE
:1007800080B500AF00F06CFD00F060F8FFF760FE90
:100790000023184680BD00BF80B483B000AF7860EE
:1007A0000B46FB70FB78002B06D00949084B1A6BEF
:1007B0007B6813430B6306E00549054B1A6B7B68A6
:1007C000DB4313400B6300BF0C37BD4680BC704752
:1007D0000038024080B483B000AF78600B46FB70F5
:1007E000FB78002B06D00949084B1A6C7B68134331
:1007F0000B6406E00549054B1A6C7B68DB4313402C
:100800000B6400BF0C37BD4680BC70470038024007
:1008100080B483B000AF78600B46FB70FB78002B90
:1008200006D00949084B5A6C7B6813434B6406E0B9
:100830000549054B5A6C7B68DB4313404B6400BF92
:100840000C37BD4680BC70470038024080B59AB076
:1008500000AF01210120FFF79FFF01210220FFF7D8
:100860009BFF01210420FFF797FF01210820FFF7DC
:1008700093FF01214FF48070FFF7CAFF01214FF071
:100880000050FFF7A7FF01214FF48020FFF7A2FFE0
:1008900001214FF48040FFF7BBFF01210420FFF747
:1008A00099FF01210220FFF795FF02233B660323F6
:1008B00087F86430002387F8673007F16003194632
:1008C000944800F0F7FB01233B66002387F864306F
:1008D000002387F86630032387F86530002387F804
:1008E000673007F1600319468B4800F0E3FB1023E3
:1008F0003B66032387F86430032387F865300023C1
:1009000087F8673007F160031946824800F0D2FB90
:100910004FF470433B66012387F86430002387F867
:100920006630032387F86530002387F8673007F1C6
:1009300060031946794800F0BDFB01233B660023A4
:1009400087F86430002387F86630032387F8653022
:10095000012387F8673007F1600319466D4800F0FE
:10096000A9FB4FF440633B66022387F86430002301
:1009700087F86630012387F86730022387F86530EF
:1009800007F160031946664800F094FB4FF40373C7
:10099000BB650923A7F854300023A7F85C30002377
:1009A000A7F8563007F1540319465E4800F016FECA
:1009B00043F67F63FB6441F26F73A7F8483000236E
:1009C000A7F850300023A7F84A3007F1480319462A
:1009D000554800F003FE4FF4C06000F08DFD1E236B
:1009E00087F84430002387F84530002387F84630E5
:1009F000012387F8473007F14403184600F08EFDC5
:100A00000121484800F0C2FE01220121454800F0C2
:100A10006FFE1D2387F84030012387F84130012302
:100A200087F84230012387F8433007F14003184626
:100A300000F074FD01213C4800F0A8FE01220121D4
:100A4000394800F055FE062387F84430002387F824
:100A50004530002387F84630012387F8473007F1F7
:100A60004403184600F05AFD0123BB63002387F8B6
:100A70003C30082387F83D30012387F83E3007F1EA
:100A80003803184600F094FC0023BB620023FB628D
:100A900000233B6300237B6307F12803184600F023
:100AA000FFF800233B6100233B7501237B75002386
:100AB000FB610023BB6100233B62012387F82430E4
:100AC00007F110031946194800F096F80423012293
:100AD0000121164800F028F90121144800F008F916
:100AE000124800F0EBF900233B6000237B600023F9
:100AF000BB600023FB603B4619460020FFF79EFDCC
:100B000001210020FFF7CCFD00F0ACFA00BF6837F0
:100B1000BD4680BD0000024000040240000C0240BF
:100B2000000802400008004000040040002001408E
:100B300080B582B000AF78607B680C3B032B23D874
:100B400001A252F823F000BF590B0008650B000802
:100B5000710B00087D0B00084FF480510C4800F029
:100B600051FB11E04FF40051094800F04BFB0BE042
:100B70004FF48041064800F045FB05E04FF400418A
:100B8000034800F03FFB00BF00BF0837BD4680BDF3
:100B9000000C024080B582B000AF78607B680C3BEF
:100BA000032B23D801A252F823F000BFBD0B00088D
:100BB000C90B0008D50B0008E10B00084FF4805169
:100BC0000C4800F02DFB11E04FF40051094800F0F3
:100BD00027FB0BE04FF48041064800F021FB05E0C5
:100BE0004FF40041034800F01BFB00BF00BF083773
:100BF000BD4680BD000C024080B485B000AF786077
:100C000039600023FB600023FB727B685B68FB603C
:100C1000FB6823F0407323F48073FB603B681B790F
:100C20001A023B681B681343FA681343FB607B6836
:100C3000FA685A607B689B68FB60FA68174B134040
:100C4000FB603B681A693B68DB681A433B689B683A
:100C50001A433B685B795B001343FA681343FB60FC
:100C60007B68FA689A607B68DB6AFB60FB6823F448
:100C70007003FB603B681B7D013BDAB2FB7A1343D8
:100C8000FB72FB7A1B05FA681343FB607B68FA680A
:100C9000DA6200BF1437BD4680BC7047FDF7FFC065
:100CA00080B485B000AF78600023FB600E4B5B68BA
:100CB000FB60FA680D4B1340FB607B681A687B6829
:100CC0005B681A437B689B681A437B68DB68134345
:100CD000FA681343FB60044AFB68536000BF143793
:100CE000BD4680BC704700BF00230140E030FCFFE0
:100CF00080B483B000AF78600B46FB70FB78002BAC
:100D000006D07B689B6843F001027B689A6005E02F
:100D10007B689B6823F001027B689A6000BF0C37F8
:100D2000BD4680BC704700BF80B485B000AF78601E
:100D3000084611461A460346FB700B46BB70134625
:100D40007B700023FB600023BB60FB78092B23D959
:100D50007B68DB68FB60FB78A3F10A0213465B004B
:100D60001344072202FA03F3BB60BB68DB43FA6853
:100D70001340FB607978FB78A3F10A0213465B000D
:100D8000134401FA03F3BB60FA68BB681343FB60CA
:100D90007B68FA68DA601EE07B681B69FB60FA78A2
:100DA00013465B001344072202FA03F3BB60BB68DF
:100DB000DB43FA681340FB607978FA7813465B00EE
:100DC000134401FA03F3BB60FA68BB681343FB608A
:100DD0007B68FA681A61BB78062B21D87B685B6B4D
:100DE000FB60BB785A1E13469B0013441F2202FA75
:100DF00003F3BB60BB68DB43FA681340FB60F97820
:100E0000BB785A1E13469B00134401FA03F3BB60E0
:100E1000FA68BB681343FB607B68FA685A6347E073
:100E2000BB780C2B21D87B681B6BFB60BB78DA1F6F
:100E300013469B0013441F2202FA03F3BB60BB68F6
:100E4000DB43FA681340FB60F978BB78DA1F13467E
:100E50009B00134401FA03F3BB60FA68BB681343B9
:100E6000FB607B68FA681A6322E07B68DB6AFB60E0
:100E7000BB78A3F10D0213469B0013441F2202FA14
:100E800003F3BB60BB68DB43FA681340FB60F9788F
:100E9000BB78A3F10D0213469B00134401FA03F340
:100EA000BB60FA68BB681343FB607B68FA68DA6270
:100EB00000BF1437BD4680BC704700BF80B483B00C
:100EC00000AF78607B689B6843F080427B689A60E3
:100ED00000BF0C37BD4680BC704700BF80B483B0F4
:100EE00000AF03463960FB7197F90730002B0BDA2E
:100EF0000D49FB7903F00F03043B3A68D2B21201AB
:100F0000D2B20B441A7609E0084997F907303A68DB
:100F1000D2B21201D2B20B4483F8002300BF0C37C7
:100F2000BD4680BC704700BF00ED00E000E100E07E
:100F300080B582B000AF78607B68B3F1807F01D369
:100F4000012311E00A4A7B6823F07F43013B536091
:100F50000F214FF0FF30FFF7C1FF054B00229A60D1
:100F6000034B07221A60002318460837BD4680BD90
:100F700010E000E080B582B000AF374B1B68013352
:100F8000354A1360354B1B68002B04D0334B1B686C
:100F9000013B324A1360AFF300800023FB7152E043
:100FA000FB792F4A9B0013445B68002B48D0FB79E8
:100FB0002B4A9B0013445B681B7B002B40D0FB79C2
:100FC000274A9B0013445B689B68002B38D0FB7951
:100FD000234A9B0013445B689A68013A9A60FB7944
:100FE0001F4A9B0013445B689B68002B28D1FB7948
:100FF0001B4A9B0013445B681A69FB7918499B00E4
:101000000B445B685B6918469047FB79144A9B0068
:1010100013445A68FB7912499B000B445B681B68B8
:101020009360FB790E4A9B0013445B685B68002B5E
:1010300006D1FB790A4A9B0013445B6800221A73AD
:10104000FB790133FB71064B1B78FA799A42A7D3DF
:1010500000BF0837BD4680BD747701207877012036
:101060008077012080B500AF0D4B1B680D4AA2FBB5
:1010700003239B091846FFF75BFF0346002B00D0B4
:10108000FEE7074B1B689B09074AA2FB03239B0A49
:10109000064A1360064B01221A7000BF80BD00BFD4
:1010A00050770120D34D6210179165029877012087
:1010B0007C77012080B487B000AF7860396000236E
:1010C0007B6100233B610023FB6000237B6176E0B2
:1010D00001227B6902FA03F33B613B681A683B69B2
:1010E0001340FB60FA683B699A4265D17B681A68D5
:1010F0007B695B00032101FA03F3DB431A407B6841
:101100001A607B681A683B681B7919467B695B002B
:1011100001FA03F31A437B681A603B681B79012BC1
:1011200003D03B681B79022B2ED17B689A687B69C0
:101130005B00032101FA03F3DB431A407B689A60EA
:101140007B689A683B685B7919467B695B0001FAAA
:1011500003F31A437B689A607B685A687B699BB289
:10116000194601238B40DB431A407B685A607B6839
:101170005B683A68927911467A6992B201FA02F292
:1011800092B21A437B685A607B68DA687B699BB2CB
:101190005B00032101FA03F3DB431A407B68DA604A
:1011A0007B68DA683B68DB7919467B695B0001FA8A
:1011B00003F31A437B68DA607B6901337B617B69E7
:1011C0000F2B85D900BF1C37BD4680BC704700BFC0
:1011D00080B485B000AF78600B467B800023FB7342
:1011E0007B681A697B881340002B02D00123FB73B4
:1011F00001E00023FB73FB7B18461437BD4680BC1F
:10120000704700BF80B483B000AF78600B467B802E
:101210007B687A881A8300BF0C37BD4680BC704754
:1012200080B483B000AF78600B467B807B687A889F
:101230005A8300BF0C37BD4680BC704780B483B072
:1012400000AF78600B467B807B685A697B885A4088
:101250007B685A6100BF0C37BD4680BC704700BF39
:1012600080B500AF124A124B1B6843F001031360B4
:101270000F4B00229A600E4A0D4B1B6823F08473BB
:1012800023F4803313600A4B0A4A5A60084A084B19
:101290001B6823F480231360054B0022DA6000F002
:1012A0000DF8054B4FF000629A6000BF80BD00BF93
:1012B000003802401030002400ED00E080B483B01C
:1012C00000AF00237B6000233B60354A344B1B6832
:1012D00043F480331360324B1B6803F400333B60EC
:1012E0007B6801337B603B68002B03D17B68B3F5DF
:1012F000A06FF0D12A4B1B6803F40033002B02D0FF
:1013000001233B6001E000233B603B68012B42D19D
:10131000234A234B1B6C43F080531364214A214B17
:101320001B6843F4804313601D4A1D4B9B68936008
:101330001B4A1B4B9B6843F400439360184A184BAD
:101340009B6843F4A0539360154B174A5A60144AA4
:10135000134B1B6843F08073136000BF104B1B6876
:1013600003F00073002BF9D0104B40F205621A60B5
:101370000B4A0B4B9B6823F003039360084A084B0E
:101380009B6843F00203936000BF054B9B6803F02A
:101390000C03082BF9D100BF0C37BD4680BC704749
:1013A000003802400070004008544007003C0240F2
:1013B00080B485B000AF78600023FB60344BFB60E5
:1013C0007B689B79002B4FD03149314B1A687B6881
:1013D0001B68DB4313400B602D492D4B5A687B681B
:1013E0001B68DB4313404B607B681B791A46FB6824
:1013F0001344FB60FB68FA6811687A6812680A4354
:101400001A602349224B9A687B681B68DB431340B0
:101410008B601F491E4BDA687B681B68DB431340F7
:10142000CB607B685B79102B0ED11949184B9A68F9
:101430007B681B6813438B601549154BDA687B6822
:101440001B681343CB601DE0114BFB607B685B792D
:101450001A46FB681344FB60FB68FA6811687A68F7
:1014600012680A431A600DE07B681B791A46FB6814
:101470001344FB60FB68FA6811687A681268D2430B
:101480000A401A6000BF1437BD4680BC704700BFD9
:10149000003C014080B485B000AF78600023FB734E
:1014A0000023BB600C4B1A687B681340BB600A4B7F
:1014B0005A697B681340002B05D0BB68002B02D013
:1014C0000123FB7301E00023FB73FB7B18461437F9
:1014D000BD4680BC704700BF003C014080B483B073
:1014E00000AF7860034A7B68536100BF0C37BD468C
:1014F00080BC7047003C014080B483B000AF78608E
:10150000054A7B6843F0BF6343F40033D36000BFF8
:101510000C37BD4680BC704700ED00E080B485B05C
:1015200000AF78600023FB730023BB730F237B7332
:101530007B68DB78002B38D0264BDB68DB4303F479
:10154000E0631B0AFB73FB7BC3F10403BB737A7B71
:10155000FB7B42FA03F37B737B685B781A46BB7BA9
:1015600002FA03F3FB737B689A787B7B1340DAB251
:10157000FB7B1343FB73FB7B1B01FB73164A7B68EE
:101580001B781344FA7B83F80023134A7B681B788B
:101590005B09DBB218467B681B7803F01F0301214F
:1015A00001FA03F342F820300FE00B497B681B7807
:1015B0005B09DBB218467B681B7803F01F0301222E
:1015C0009A4000F1200341F8232000BF1437BD46A4
:1015D00080BC704700ED00E000E100E080B485B021
:1015E00000AF786039600023FB817B681B88FB813A
:1015F0007B68284A934213D07B68274A93420FD0D6
:101600007B68B3F1804F0BD07B68244A934207D0AC
:101610007B68234A934203D07B68224A934208D1D5
:10162000FB8923F07003FB813B685A88FB891343D5
:10163000FB817B681C4A93420CD07B681B4A934217
:1016400008D0FB8923F44073FB813B681A89FB892E
:101650001343FB817B68FA891A803B685A687B6870
:10166000DA623B681A887B681A857B68094A93426C
:1016700003D07B68084A934204D13B689B7A9AB2B4
:101680007B681A867B6801229A8200BF1437BD46A8
:1016900080BC70470000014000040140000400408D
:1016A00000080040000C0040001000400014004002
:1016B00080B483B000AF78600B46FB70FB78002BE2
:1016C00008D07B681B889BB243F001039AB27B6809
:1016D0001A8007E07B681B889BB223F001039AB253
:1016E0007B681A8000BF0C37BD4680BC704700BFC6
:1016F00080B483B000AF78600B467B8013467B706C
:101700007B78002B08D07B689B899AB27B88134337
:101710009AB27B689A8109E07B689B899AB27B8840
:10172000DB439BB213409AB27B689A8100BF0C37AF
:10173000BD4680BC704700BF80B485B000AF786004
:101740000B467B800023FB730023BB8100237B813E
:101750007B681B8A9AB27B881340BB817B689B891C
:101760009AB27B8813407B81BB89002B05D07B8993
:10177000002B02D00123FB7301E00023FB73FB7BF2
:1017800018461437BD4680BC704700BF80B483B094
:1017900000AF78600B467B807B88DB439AB27B6826
:1017A0001A8200BF0C37BD4680BC704780B582B03E
:1017B00000AF0346FB7100BF80210848FEF706FD1D
:1017C0000346002BF8D0FB799BB219460348FEF77D
:1017D000DBFC00BF0837BD4680BD00BF00480040AD
:1017E00080B582B000AF786006E07B685A1C7A60F2
:1017F0001B781846FFF7DAFF7B681B78002BF4D1C3
:1018000000BF0837BD4680BD80B582B000AF40F252
:1018100025511348FEF7F6FC0346002B1CD000238D
:101820007B600F48FEF7C2FC0346DAB20D4B1A701C
:101830000C4B1B780D2B0FD10B48FFF7D1FF00236A
:101840007B6002E07B6801337B607B68074A9342E0
:10185000F8DD0748FFF7C4FF00BF0837BD4680BD6D
:10186000004800409C77012074180008FFB3C404AE
:101870008018000841542B434D47533D333000003E
:10188000303031313030303938313838373836351A
:10189000363646363030303061613133463433438A
:1018A000363835443937444644464130423039426F
:0F18B000394538374246443946333735313800E9
:1018BF00524946464677010057415645666D74209A
:1018CF001000000001000100803E0000803E00007B
:1018DF00010008004C4953541A000000494E464F6E
:1018EF00495346540E0000004C61766635372E374B
:1018FF00322E31303100646174610077010064650C
:10190F0064646F909C9B9C9FA3A1A19D998E817AEB
:10191F006B65646264677273707B8D97989B9B9CF9
:10192F009A9CA1A39F99917E6B635F5C5F5E6266D9
:10193F00779596989A9D9B977D6A6A6568656363AC
:10194F00636466656464849A999D9CA1A3A3A29D18
:10195F0099978F796762606062656669778C9799EE
:10196F009C9F9F9C9D9EA09C998A6E6663605E5D06
:10197F005E6365769196959598999B928179706A39
:10198F00686767676561626465676C8C9E9FA3A2D9
:10199F00A1A2A39E99957864636060606466686F86
:1019AF008292979A9A9B9A9C9D9E9E9B97987D65F3
:1019BF00635D5D5C5D5F666C83969B9E9D9B978E62
:1019CF007A6D67666465656464646567698799980D
:1019DF009B9DA2A2A3A09D9B989077676561616371
:1019EF006767686F8697989B9C9C9A999B9F9C9919
:1019FF008D817D6A65625F616164697D9195989A59
:101A0F009D9B988A7A706A6868676564666969667B
:101A1F00626365869A999B9CA1A3A1A09D998873E7
:101A2F006A635F5D5E626670889498999B9E9E9DC7
:101A3F009997999B9B988D786A68676462606064D8
:101A4F00697C909698999C9B998F79696666666573
:101A5F0063636467646363698B9A999B9C9FA0A27D
:101A6F00A09B988E806F65625F61626768717E89E7
:101A7F0094989D9E9C9A999DA09E98947F6A666566
:101A8F0064605F6266738B9497989B9B9891827347
:101A9F006A676668696765686E6A6666656D87946A
:101AAF00959B9EA1A1A2A29F999A8769645F5F618E
:101ABF006265677C95989A9B9C9B9896989A9A9941
:101ACF00959591806F696661606064667082929788
:101ADF009B9D9B99968D776B686564656667727A37
:101AEF0071696766686B83979A9D9DA2A0A2A19D5D
:101AFF008E6E6564605D5B5E6173939696999B9D38
:101B0F009D9B99958E8D9594816C656667696664CA
:101B1F00646669768A9597999B9C9B989082796E5B
:101B2F0067666667686A686D6F6C6B6A6766647311
:101B3F00969D9D9C9EA1A3A19C7C63666664625D3D
:101B4F005F6478959793949A9A9B9C9B99898A9AAC
:101B5F00999B89726A6565646363636577929999E6
:101B6F00999A9B9A9682706A6767686968696F7DB0
:101B7F0086806E68686768738F999A9EA0A2A2A2EA
:101B8F009D8F70656562605D5E636B8194979898B9
:101B9F00989B9B99979393969797917F766E6A6789
:101BAF0061606265677A8F95989B9C9B97866F693A
:101BBF006867676769738997969696918B8B7D6D2A
:101BCF006766677791989B9D9D9D9D98967D6465AF
:101BDF0064666667686B84989A9A96938D8C8E8EDE
:101BEF008782889397989A937F736A686865666609
:101BFF006C87969596949698998D766B696A6C6EAC
:101C0F0072737985918F82726A6769686967676491
:101C1F0078969DA09D9E9EA09F9873636564656254
:101C2F006161688B9A98979496979797978C78821B
:101C3F0096979A917D77746B6762606263728F94E7
:101C4F0096999A9C9A957C6A69686766696B6D7BB1
:101C5F008D929282716F686765656471949A9E9E8A
:101C6F009FA2A39F9E83646362646262666781978B
:101C7F00989C9B9A989897958A7D8190979894892C
:101C8F007B746F67666365676D839396989B9C996A
:101C9F0096907A6A69666566697383939898989641
:101CAF00939285756A6767686A6F72798B979A9B4B
:101CBF009896969898917E6C676A7A888A837E85C3
:101CCF008F948F857A74798390959494979997953B
:101CDF008E76696867676567676D84909496969648
:101CEF0096938A7B706B6E737574706F7980807A40
:101CFF00727075797E7F838077726C6776949A9B0A
:101D0F0096999CA09F997A676A6E6E6465636C8BD7
:101D1F00979696979897979897978583979898827D
:101D2F006E6C6967676661646781989697989C9CEB
:101D3F00988F77696766666868686C778E98978EF4
:101D4F00848B91867168696A696B6981999B9B9A8B
:101D5F009B9B99988D6C66666A6D696B6C87989979
:101D6F009995939393928E8884818D9897947C6D97
:101D7F00726D69666464656B809295979698979774
:101D8F0090796F6B6A6D6A6B6D7489969696949461
:101D9F0094959182767780858583817F83837C6A12
:101DAF0067676C8494959593989A9A99988F7C7A93
:101DBF007D716967686B7C8D91918D8D94979792EA
:101DCF00827E8B9596948675777D7E726666677137
:101DDF007E868688919797969083777173736E69D5
:101DEF00676A7784888583858B8F8B837D7C7F80E3
:101DFF007F7A716A6967676B8C9B9997979B9E9D9A
:101E0F0098886D69787566656669879991868893F4
:101E1F00939696968E7D849699999386868F8D74D8
:101E2F006664656A747F7D81919998979585776DC2
:101E3F0069696969686B7D93989895969696917E76
:101E4F006F6E788287898A8C9194917D6A68676BAF
:101E5F0080919696979A9B9C98968673746F6867F5
:101E6F0065676D8394969593919697978976758507
:101E7F00949590837D7D817E6E6767676B767C7EA0
:101E8F00828A949495938375757977706A6A75834E
:101E9F008E8C837F828A8A847E7A808C95959592A8
:101EAF0092918E8A7D6F6A6A6B6967676F8C9A9958
:101EBF009998999A9C99967765696A6B6967666B29
:101ECF008494958E8387939897968E8C93979897F3
:101EDF00846D6C6F6B686867677089928F8F959749
:101EEF0097969384777776726C6A686E7E8D9089F9
:101EFF0085898F94908780838F96969596969596E1
:101F0F00908172696A69696767676E7C848078748B
:101F1F0085999A9B9897979A9A978C6C6668696837
:101F2F006765656A809396929093959797968C8242
:101F3F0088929386716A6B6F6D69696A6B7B8F94F8
:101F4F009393949594969384766E6C6B6968676B94
:101F5F007F9094908F95969696938E8E9396969655
:101F6F00928E8C8A807269676767686C737B8A95BB
:101F7F009797968F857F7C818D9596959696979757
:101F8F009689706768686B6B696C7D929798989665
:101F9F0096969596856F697383877D6F69707C7F41
:101FAF00766B6870808D94938F9398979688746AE8
:101FBF00676A6E69676872899595959597979696F2
:101FCF0090857F80827F78716F74797A746E6C6F71
:101FDF0075797E7E808791969693908D8A847569A8
:101FEF006868749098989798999B9B998B6E697273
:101FFF007971696A6A8297969589828994948874AF
:10200F006C79919897958B8C9391816C6767676FBB
:10201F00797777859497989892837D7D7B746B6899
:10202F006B7C91959494959494948A7B757A84891A
:10203F008A89898F93958F82777170706D6B6D74AC
:10204F0081909696969597969491857D7B7B7C78DB
:10205F00706B6A6A6F7F9094949495969998989004
:10206F007F76787D7D7368676A7A878A7F737384DA
:10207F00959695878593969795867A7B7F7D6F66E4
:10208F0067676B747A7C7B808B95978D807A797E6E
:10209F007E7A716C74838F948F8C8C8F928B8179F5
:1020AF00767A828A8C8C8D91959691877D7A7E80B7
:1020BF007E7B7B828A929795919193938E87817D78
:1020CF008083817D77706A68696B80949798989800
:1020DF00999B9999886B676B736E67676674919715
:1020EF0095867B869496938275819397978F7C794B
:1020FF00828B7F6A666666707E7D7A7B8A979797FA
:10210F008C7C7A7F8484786E71819396958E858B83
:10211F009392887B7579869396918E9093959385FC
:10212F00756C6E7475706D717E8D96979492949494
:10213F009590857C797D7E7F7C797C7F83827C7492
:10214F006B69696F82949797989899999897846C0F
:10215F0067676868686868718A9796968E8993979B
:10216F00958A7A78859296948880838886786A672C
:10217F00676A767A7B7E828E969793857B7B818149
:10218F007C6F6B7886909695908F949790847873E8
:10219F00767D838483858B929592867C7B7E7C77FC
:1021AF0075747A858E939492939595948C847F8091
:1021BF0083827E7B797A7D7F7B746F6C6A696970AD
:1021CF008496999A9999989A9898876A676768698F
:1021DF0067686875909796969190959693877D7D91
:1021EF00889496948A8180827C6D6868666B787F0C
:1021FF00858D9396969693857977797A7977788086
:10220F008E96979794908D8B857B74737980898F39
:10221F00908F9094918B7F726D6D706F6E727A87C5
:10222F0092969695949595928B86818183848480DE
:10223F007E7D7C7A77706C6C6F7270737677797B3A
:10224F00849298999A9998979797947A68676668FD
:10225F006B6D6A6B758D989797908990969692840F
:10226F007F8894969282757274736B6767677282B8
:10227F008A8F91939595968D7B716F73777B7D7F09
:10228F0086929696948B827E7D797474757C8892F3
:10229F00959594918F8C81766B68696E74797D8337
:1022AF008D94969695949394928E8B88888B8E8D21
:1022BF008884807C7A76716E6E6F767C82868C9144
:1022CF009496918A82776E6D798D9696969696975B
:1022DF009797886F68686E767570707D91989797ED
:1022EF0093888B9191846F686E8090928881868F8E
:1022FF009289796C696F7C82807E818A92959285B2
:10230F0079767A7F80817F869497989796928C873B
:10231F0081796D686A747F868C8E939696948E847D
:10232F007A767879797A7E858C91908D878484807E
:10233F007C7B797B82898E9191908E8B877F787051
:10234F006C6E7073777C818B919395938E8A867E5A
:10235F007974706C69686B7A8D9796979696979645
:10236F00978E76686B7783857D787B8894968F7D43
:10237F006F717D85857F7D85929797958B82828101
:10238F007D7269676A757E8485868A8C8B8A827571
:10239F0070757C828A8D909596979693857A7672D2
:1023AF006D6A696C7987939796959596948B8278D9
:1023BF0074777C7F8384868C8F8C857E7776787913
:1023CF007A7F848C9597969595938F8B8278726E82
:1023DF0070767B8085888B8F91908C88868584859D
:1023EF00858583818385847F797472706E6A696B4A
:1023FF00738997999B9A9A99999897856C6767674C
:10240F00696D6D6D77899696978E81818992918787
:10241F007F8391969793847A74736E6A69676772F4
:10242F008591959596979898968E837D80828079E1
:10243F00777D8187867E77717075787A7A7E8691BF
:10244F009695969696928B84756A6968686F757A79
:10245F008088919595938E8C8A8988817F818285DA
:10246F008686827E7B7A7A787574767B848C8F9160
:10247F00959595949089817C78777676777A7D8318
:10248F00868482828381807E7D7F82868A8F908EF2
:10249F008C89867F766D6969686D7E909696979820
:1024AF0098999895826D696D767773727786959501
:1024BF00968B7E7C808586807D828F969797968D72
:1024CF0085817E766B68676A77848E8E8D939495FF
:1024DF00958C807A7D82868687878B92949085787B
:1024EF00727273757572768593969797969593908A
:1024FF00887E7570747A7F8485878B8F8F8E8A82A2
:10250F007F80848587898A8E91938F867E79777471
:10251F00727171767C85909595959494928C847D4B
:10252F0079797A7D7F7E80838686847E7B79787ABF
:10253F007D8083878A909496938B8783807C767334
:10254F007173777C7E7D7C7A7A7875767D8C9596A3
:10255F00969798989797917D6D6A6D6D6968687376
:10256F00848F93908D8C8D8D8D8C8885868C959690
:10257F0093867D7B79756D6868696F7A81858D9398
:10258F00969797979288858485837E7C7D808486B5
:10259F0081797171767A7C7E82868E9597979695E2
:1025AF00928F8A837C746F6F757C7F808183888A1A
:1025BF008A888685878D909190919191908D888151
:1025CF007C7B7A78737274787D8285888A8B8D8D07
:1025DF008C8B89888888898B88858486878583807A
:1025EF007D7E7F81838284878A8C8D8D8B8987877F
:1025FF008886817C7B7E808081807D7F80817F7CCF
:10260F007B7B797877777A818D9596979797979641
:10261F00968F7C6F6C7378757270767F898C8781DB
:10262F007D7F858A8F919190939695948A7C737311
:10263F00736D6A696A727C848A8D8E8E8E91919089
:10264F008D86898F9395928B8683807A706A696A5B
:10265F006F757A81868C91949596959088868888E7
:10266F0086817F7F8283807A767474767A7D818685
:10267F008B90949595938E8B8A8A898581808182A0
:10268F00827F7C787677777777797E858B8D8E8C46
:10269F008D8D8B87827E7D7F8387878887898A89C7
:1026AF0087837F7D7E80848687888A8F93928D87AC
:1026BF0083807F807F7E7E8185898B8A87838080E0
:1026CF0080807D7B7B7C8083838181858D959696B1
:1026DF0095959595958E857F7C7E807F7F7E808278
:1026EF0084858582807F8083878989888A8E8F8D74
:1026FF0088827E7A797A79787A7D8286888A8886C6
:10270F00858688878686898B8F91908E8A8784812C
:10271F007E7A79787B7F8183858686868787848199
:10272F008183868888898B8C8E8F8D8A85827F7F27
:10273F008182808285878A8A878683828081818051
:10274F00808082858685838282807E7E8082818260
:10275F008688898886878A8A8887888889878685F0
:10276F008381818282828283848485868586838326
:10277F00817F817F7F7F7F8181848586868384852A
:10278F008685807D7D808283848385858685838011
:10279F007C7B7D80868A909596959595928B83808C
:1027AF007E7D7D7D7F8183858583817E7B7A7B7E28
:1027BF008185888C909393938E89868382807F8086
:1027CF00828385868684827F7D7C7E7F8083868AD6
:1027DF008D8E8E8D8C8A8886848282818284848479
:1027EF0084838382828081828182848685868789A1
:1027FF008A8A8B8A8A89898988868686868686864A
:10280F00888785838282828281807F7F818286888A
:10281F00898886898A8A89888888898A8A8B8A871B
:10282F00868486868583818282848485858382815E
:10283F00828482807F7F818384828281818383836C
:10284F00807E7D7E81807F7E807F80828385848471
:10285F008586878584817F807E7F80807E7E7F8254
:10286F0086888B8E9092909293918C898787878997
:10287F00888988868683817F7F7E7E7F808284861B
:10288F0086868484858585848486878788888988D9
:10289F00838382818181807F7F818283828384830E
:1028AF00828280808081818081818382808080810B
:1028BF0082838384868485858585838382848586C8
:1028CF00888888878587898C8B8A8A8B8F918F8D53
:1028DF008A8888898A8C8C8B88878687898A88865C
:1028EF0086868989888582807F7F818281828180A7
:1028FF0083858686858485848586858380807E7D95
:10290F007D7D7C7C7D7C7C7D7D7D7F8182838382D0
:10291F00818286888989868688898B8C8E8D8C8B1F
:10292F00898A898787858486888B8D8B85817F822D
:10293F0082838484838383868A8986838182838644
:10294F00898B8A8888878788878583818183848517
:10295F00868582807F7E808283838282838686863D
:10296F0085858688888A8B8A888682807F7E7E7D11
:10297F007E7F7E7C7C7D7C7B7A78797978787B7D95
:10298F008183858483838383868687898A8B8E8DD3
:10299F008F8E8A898687878888898A8887868584A3
:1029AF0085848485858788878785838383838587C7
:1029BF008889898A898887868586898B8D8D8C8A77
:1029CF008885848486858687878483827F7E7D7DC4
:1029DF007F8081817F7E7F807E7D7D7F80828383EC
:1029EF00848482828384848585858685848482829B
:1029FF00838485858585858483828385868887887A
:102A0F008787858585868888898A8989898888893D
:102A1F008A8B8B8B8B8A8988878788888889888718
:102A2F008786868585868586868585848484848445
:102A3F008484828283828283828382828381828260
:102A4F00838282838383828282828283848484844A
:102A5F00848484858484858585858685848584851D
:102A6F008585848484848383838383828383828222
:102A7F008283828282838383838483848585858511
:102A8F0085848585868786868485858585858586E3
:102A9F0086858484858585868686868686878686CE
:102AAF0086868686868686868686858585848585BE
:102ABF0085848484838384838383838282838283D4
:102ACF0082828281828181828282828282828283D9
:102ADF008384848484848585858686868786868696
:102AEF00868686868686868686868685858585867B
:102AFF00868686868685858585858586858587856F
:102B0F00858585858686868787868686868685855A
:102B1F008586858685858585858585858585858554
:102B2F008586868686878686868686868788888730
:102B3F00878687878787878787878686868686851E
:102B4F008586868585858685858585848585858524
:102B5F008584838584848484848484848483828329
:102B6F008283818283838382828282828282828233
:102B7F008383838383828283838484848484848411
:102B8F0083848484858585848484848484848584F3
:102B9F0086858485838583858585858585848484DD
:102BAF0084848585858585858484848484858485CE
:102BBF0085848483838383838383838484838383D0
:102BCF0083838383838383838383838383838483C5
:102BDF0083838384838384848483848484848485AB
:102BEF00858584848485858485858585848485848D
:102BFF00858585858686858586858586868686866E
:102C0F008686858686868585868686878685868559
:102C1F00868686878686878686868686878787873F
:102C2F00868686868686868584858585858585853F
:102C3F00858585858585858585848485848484843B
:102C4F008484848484848484848484848484848435
:102C5F008585848484858585858585858585858518
:102C6F008585858585858585858585858584858506
:102C7F0085858585858585858585858585858485F6
:102C8F0085868584838384858585848484858585ED
:102C9F0084838485858484848484848484848484E4
:102CAF0084848484848585858585858585868687C6
:102CBF0085858685848586868685858686868585AF
:102CCF0086868686868585858585858584848385A4
:102CDF008888878381818586888682828285878698
:102CEF00848283858585858483838283848583839A
:102CFF008686858383838584828688868484858679
:102D0F00868383848485868685838485858586846A
:102D1F00848483838586848484848586868584845D
:102D2F008486858383848685858583848078779060
:102D3F00A8A6A499896C5D5B6070828EA3A7A6A6D6
:102D4F00A7977768645E59595B61747E79665959A4
:102D5F0058585858575A568DABA4A8A6A7A7A5A838
:102D6F0074545B575A596F99AAA4AB936D6B7A75CC
:102D7F005C566CA4A7A7A7A89D755C585959575ABC
:102D8F005674A6A6A6A7A6A7A4A890615A6997A845
:102D9F00A5A7A29A876C636361798D97A1A1A2A25F
:102DAF00A2856E5E575A595C5C585A665E5B5A5BD9
:102DBF00595C557CAAA3A6A5A3A4A2AA86555A5EC0
:102DCF00615A6786A4A4A29F867E93866759629FE5
:102DDF00A6A3A1A6A2A685565A585E5D595B95ABD0
:102DEF00A2A4A5A6A6A6926D6072989D9C9D9FA079
:102DFF00867265615D617D919C9FA5A3A982636DBC
:102E0F00595C5C5D5958585A5958595C97A8A5A4F4
:102E1F00A4A6A8A1A889565F585B5B5A5E94A59497
:102E2F007B88A5A284676B7EA5A3A2A7A79B946CA2
:102E3F00555D5B595A5A618FA8A3A6A39DA6A3AB54
:102E4F008E838972949F9691845D676D636D6D5FBC
:102E5F00618AA3A4A6956F5B5D5C5D605A59575A52
:102E6F00567FA7A4A5A6A7A7A6A69F6158585C65DD
:102E7F00705B74A8A68E615770A488627DA1A8A20A
:102E8F00A5A69C8875665D575B596C6068A1A6A75F
:102E9F009D99A5A2A5A5A29395A8A5A6776F7768DA
:102EAF006C595A6C7A7177868F8C6B635B5C5D5C47
:102EBF005958585A6095A7A0A7A7A5A8A5AB8054A5
:102ECF005E56667A5D6895A4A79E795D8480797455
:102EDF0075A4A4A7A7A7A692635959575C5C5D5F19
:102EEF0085A3A89E9FA8A7A4A09F7392A3A19D8A24
:102EFF008475735D5E6066615C706E947B62735CFB
:102F0F005D5A5A595A567A9EA3A6A7A5A99DA78975
:102F1F0058605D5B5B5681A4A1A6925F679A887C1F
:102F2F005D66A5A0A2A6A7A0755A595959625E5B06
:102F3F005B8AACA2AA8D82A3A4A99B6A6FA0A5A647
:102F4F00A0727270645968776A62566F86856A5A82
:102F5F005C595F585959649CA6A2A4A5A4A5A88F33
:102F6F00695E5B56637290AAA3A6967E7680817186
:102F7F005769A4A2A2A6A6A5A07F605B5A5C575B67
:102F8F00598FABA4A696A8A5A5867A8A7B98A4A7E5
:102F9F009E97778272545F595E65595F6257696772
:102FAF005B585A5578AAA3A3A0A5A8A5A66E575DEE
:102FBF005A5A5C5576A7A5A7A68C6C807D6B6E744C
:102FCF00A1A3A2A7A3A69D60575B5B5A585C5D9017
:102FDF00A8A2A8A5A7A1A1A38F646B83929C9DA46F
:102FEF009A89645859767B605B5C5A5B5B5A585D73
:102FFF005782A7A0A8A4A5A5A5A56A595F58595897
:10300F005989ACA0A4A0A2919D7F5D5871A8A5A6D7
:10301F00A4A5A1A474575A585E5D586399A6A6A596
:10302F00A4A9A4A69B6258608B9B8E987C888A6A01
:10303F007C63595B5E595C605A5C5B5679A6A6A3AC
:10304F00A5A4A1A3A7945D5D5C5D5C56639BA7A53A
:10305F00A28C969A9E6E53679CA9A3A7A3A8987556
:10306F006D5B575A575B5681A6A4A7A6A5A7A1A328
:10307F0093566A807F776E84969A7C5B5F5A585A14
:10308F00605A5B595F59659FA2A4A3A5A8A4A4A0E9
:10309F006F5C595A58655C77A89DAB828D96717499
:1030AF006F779AA6A4A7A4A5A291675D575D625CEE
:1030BF005974A2A2A5A8A4A2A2A996667E62848C26
:1030CF00748A6D5570655E72595C5B5A595A5A62B3
:1030DF009CA5A3A5A3A9A3A6945B5B5D5B5F5764A7
:1030EF0096A5A79C878099996B5964A0A5A6A5A6BC
:1030FF00A1AA8A565C595959576192A7A6A7A6A5A6
:10310F00A3A7A17D71687B91796D686B70685B5720
:10311F006765585B575959639BA7A0A6A5A4A1AA99
:10312F008D5A5F5A5A575A5E85A2A2A3A1A8A084AE
:10313F005F60769BA59FA6A4A89D7F665758595799
:10314F005C578DAAA2A8A3A6A7A4A88B635E5D8ACD
:10315F008D7D705A5C5F605D5D5858585D5A8DA7C4
:10316F00A4A6A6A7A6A3A98D585B575A595A5F8D37
:10317F009E9EA595A4A57F786481AB9EA6A6A6A6C4
:10318F009569605B58595B5775A5A6A7A3A2A1A324
:10319F00A5A67A6E7B6B8770596F6357615C5C5C19
:1031AF005A57605985A5A2A8A6A7A5A6A98F605AA8
:1031BF005A5B585D5687A48F9BA0A08684867C910E
:1031CF00A6A5A5A6A6A3996D565C575A59728285D6
:1031DF00A2A5A5A5A09D9C947880735D6464716E73
:1031EF005B58595B595B595A5D93AAA3A7A6A59F34
:1031FF00A899655B5B565D596C7F99886791879934
:10320F008B77758AAAA0A5A4A6A69568585B5C5B68
:10321F00596078809EA7A5A3A8A29C9C72816E5B23
:10322F007F645F615965625B575E5777A6A0A5A261
:10323F00A6A8A4A5A167595D58585E5C7A7A7980D3
:10324F0087767490697D8F9BA9A5A99F9FA4705DB8
:10325F005C5759595F5A91A5A3A9A6A5A4A2A2820A
:10326F00696368635A645F585A595A5D596499A8DB
:10327F00A4A7A6A3A6A5A68859595B5E5E5B7F810E
:10328F00738664748B5F726A79ABA3A7A3A6A4A895
:10329F008F5B58595B5A5B598AA6A3A9A5A3A5A50D
:1032AF00958B6F5A5B6870675E58585A5B595861B7
:1032BF009AA7A3A7A7A5A4A5A16B585D58596862A3
:1032CF006A7B727476627B76567BA1A7A5A5A5A1B2
:1032DF00A79F8269585A575A5775A0A3A5A4A5A7A7
:1032EF009F97A19469585B6D7D6759585958595CE0
:1032FF00608AA1A6A3A4A8A7A6A07D61645C585A62
:10330F00566E817993725F5D6F85708C9BA2A5A3BA
:10331F00A6A89F805E696B58575B5873A3A1A5A899
:10332F00A09EA59F91735A5A65736D5B58585D594E
:10333F005958629DA5A3A3A3A7A8A6A975555C5923
:10334F00576D67628A6B6C928067605F6290A9A409
:10335F00A7A4A6A1A598645A5A5A585C5586A7A443
:10336F00A7A1A69CA79589745B595F70605C5A5999
:10337F005B60615277A3A3A7A5A6A6A2A4987261CA
:10338F0059595A59827B5E788675807A596E77942F
:10339F00ABA2A8A5A7A3A371585F59575958679F08
:1033AF00A4A4A7A6A6A5A2816C68596469635B5BF8
:1033BF005C585B595C5891ABA1A8A4A6A4A5A677AD
:1033CF005A5E5B5A5A6B7E7969708C876B5D627D32
:1033DF00A1A7A6A5A3A6A4A48D5E5C5B5A59585FAE
:1033EF0083A5A5A3A1A3A7A3817D7A5E6A5F575C7E
:1033FF0059595958595F598BA9A0A7A6A6A3A5A19A
:10340F00656B6956615564877A6975856E67626801
:10341F0088A0A7A5A6A6A6A1A7865B5D5B5B595B47
:10342F00586FA2A8A5A6A29FA29E83726E5A595B3F
:10343F00595E5A5B585A585F99A9A6A7A5A6A1A489
:10344F00A588645B5A5A5C76825F566A9786586481
:10345F006785A3A4A8A7A5A2A4AA87595C5A5A5BFB
:10346F005E556A9CA3A6A5A697A49B9482575D5709
:10347F005D6059585B595D5A5F97A7A3A7A5A5A390
:10348F00A2A57F5A5A5A5A5B60777F5D6D82847509
:10349F005D6B749BA7A2A5A3A7A4A4A37C59605A94
:1034AF00595765628FA9A2A7A5A5A7A184656860D2
:1034BF00565B5F5B5A595D595B5776A3A1A5A6A5CD
:1034CF00A1A69F7B6E6A5B5A5A5A87795D678F9C5C
:1034DF0066576794A9A2A0A6A5A6A6A997635B5A4B
:1034EF005858595B77A2A3A7A3A3A7A4A68B615A89
:1034FF00586370605A595C58585C5A8EA9A3A5A29C
:10350F00A7A4A5A36F565B5A575B616D6757789752
:10351F009C6C526B9BA5A5A6A3A4A7A5A8905B5CCA
:10352F005E585C5B585E94A8A4A7A49DA3A798853A
:10353F0063595D5C585B5F595A575B5989AAA4A8B8
:10354F00A6A6A4A4A6715C5F575B57688A6E6868CD
:10355F0085875B626C959E98A8A3A6A1A59F9A7C70
:10356F00565B5B5B585A5B8CA6A2A99FA3A4A07263
:10357F0073857861585D5C5B5959575F5869A4A58D
:10358F00A7A5A3A6A4A89569585C5E575F93885E0C
:10359F005A6F9371585E90A7A2A6A4A6A2A7A1AA3C
:1035AF0087575A575B5B5E578DA9A3A79DA6A5A703
:1035BF00A198745960576364585A5C5D595B598F71
:1035CF00ABA4A4A0A4A3A8975F5A5C595C566B82C6
:1035DF006868687877595F719FA3A0A7A6A3A6A66E
:1035EF00987D5A5F5B5A595C5A6DA3A6A5A1A0A7F7
:1035FF00A6A99488815D5C5D625A5A595B5C5F53E2
:10360F0071A7A5A7A4A4A8A5A36B59685D5B5B616F
:10361F009A915C62667F725B5C7DA3A1A5A6A6A74B
:10362F00A7A79D836057615C5C5A719CA5A19BA65F
:10363F00A3A0A6A19A9A6960645E60575E5B5B5A0D
:10364F00585B92A7A3A8A4A7A4A794695A685F5927
:10365F00596E83656C726C5B5859689CA7A6A7A5B9
:10366F00A3A5A4A29D6C5A5B605D58585C8FA69F62
:10367F00969DA3A3A4A2A39D7B666A695C5A5B581F
:10368F0059575D5879A8A3A4A3A7A5A1A78F7168BF
:10369F005A5D5778A779565E5B695E586183A5A11D
:1036AF00A5A3A4A6A8A5A78A5B5A5A585A5A5D6320
:1036BF0075898C9AA3A49CA7A6A6A279615D636461
:1036CF005759595A5E5C5A90AAA5A79DA4A7A89FBF
:1036DF00798F785D5B70A0A57C555C5C5F5B6063E8
:1036EF007F9FA3A4A3A6A7A7A6A69E806C635D57E2
:1036FF005C5864695C707F9CA6A7A19EA69C8F7E78
:10370F00715F585B5A5A575D5F578DABA0A1A4A844
:10371F00A6A7A39392806F6B8BA6A26F535D5C617C
:10372F00595A566499A7A7A6A6A4A5A4A5A4A6A36B
:10373F008060565F6B6B5D5B5B6CA1A8A3A4A59FBC
:10374F008F80848D6D575F615A5A5A595C8CA8A42B
:10375F00A9A4A8A4A892748B939090A1A6A8815C09
:10376F005C5A5A5C5A5E7E94A1A5A8A4A5A7A8A2EC
:10377F00A0A3A6A799796766595B5A60779BA19119
:10378F009CA2A59E7D828D6C5E5E585D5C585B56DB
:10379F0076A3A4A7A7A7A4A29D736D7B90A6A6A4AA
:1037AF00A7A065575B595D5958638CA4A3A5A7A61D
:1037BF00A58E96A1A1A5A6A6A374585F69686356A6
:1037CF0068959E9B8C85806F667589846D615D5948
:1037DF005A5A5B546CA6A6A7A3A0A4A4A9795963AF
:1037EF007BA3A4A3A3A872585D565C5B5D57699A2F
:1037FF00A6A6A89E676DA4A3A6A7A4A3A5A58D7A28
:10380F0069575A5785A4A39370605D6667666C7697
:10381F00675B5B5A59575C5B6DA4A6A59E9DA7A4D9
:10382F00AA7C5C5C80A4A0A6A1A885595C575A58B5
:10383F005C59689FA4A5A1775B68909DA5A8A7A7D1
:10384F009FA49D8D73676B7093A6A388635F646855
:10385F00625C5F5F6767625D5A5B575A5785ABA2C1
:10386F00A99D9FA5A59E6A5675A4A2A3A5A3A180F5
:10387F006D675A59575B6C95A5A78E5D595876A001
:10388F00A6A5A5A7A6A6A59F938E8E9BA3A4A5A725
:10389F00987868615B5F656667655E5B5A575A58D3
:1038AF005A5774A6A4A8968A9DA4A4896384A7A531
:1038BF00A4A7A4A1906F635F5B595E6C8CA18E630C
:1038CF00565A57596481A2A6A7A6A3A7A69C8F9E56
:1038DF00A6A5A7A5A3A48E7A8489826C6168776A4E
:1038EF005C5858585B5D5C585E98A7A7936E7794A9
:1038FF00A0927D9DA9A5A8A2A1A69E7F74766B6CB0
:10390F00728CA4A2735659575A5C5E66849C9CA312
:10391F00A8988782859EA7A6A3A6A7A6A1989C9ED6
:10392F009791938E7B62595B575B5A5A5B5C5674C7
:10393F00A0A683595C6D969C848EA9A2A6A5A4A46B
:10394F00A8A49BA3A29591A0A7A89C665859575AC3
:10395F005A5F636A77878D86726766739CA7A6A77F
:10396F00A6A6A5A5A6A7A4A2A1A6A7A179585A590C
:10397F0058585A5C5D5A5E8E9966595A5A768C76AB
:10398F00739DA6A6A8A7A7A7A7A2A2A5A4A5A6A709
:10399F00A3A89365595A595959626D737670615935
:1039AF005A5A5F82A4A5A6A6A5A5A7A6A7A7A7A6AC
:1039BF00A6A3A08C6B5D5959585A5B5B5965978DBF
:1039CF005E595859666D66618CA8A5A8A4A6A7A6CE
:1039DF00A5A6A6A6A5A6A7A6A6A57B5B5A5961680C
:1039EF006A6A686A68605C5A585B6D92A4A3A6A75E
:1039FF00A5A5A6A7A6A6A5A6A6A899745D575A59C8
:103A0F00595C5A5D7A9371585A575A5D5D5B65944C
:103A1F00A8A6A7A6A5A5A4A2A7A5A5A7A7A5A7A73A
:103A2F00A57C61616675787B7975736B615A595A9C
:103A3F005D6E8CA0A5A7A69E9DA0A1A6A7A6A6A7D2
:103A4F00A58E695A575A5C5A595C70958E61575AB0
:103A5F00585C5B5A5A76A3A6A7A4A5A5A2A3A5A4B2
:103A6F00A6A6A5A6A8A6A89B77656477847E7E8266
:103A7F007E73655C59595B5F789CA6A6A297979D4C
:103A8F00A2A3A5A6A6A6A699735E59595A5A5A5922
:103A9F0068908F625759595A595A5972A1A8A6A7B7
:103AAF00A5A6A59AA0A6A4A5A6A7A7A7A7A17F6824
:103ABF006C7A838488847B6E625D5B585D637897D4
:103ACF00A1A49D96979EA3A3A3A6A6A5A896705F53
:103ADF005A585958595B7D987A5D585A5A5A5859BD
:103AEF006084A6A6A7A7A6A7A6A0A5A6A7A6A5A7D2
:103AFF00A6A6A8A17F71777F808185867F6F625E82
:103B0F005A585B627A96A2A19895979CA1A1A1A5FC
:103B1F00A6A3A8916B5B58595858596589926F594C
:103B2F0058595859575A6081A7A6A7A7A5A7A09C6F
:103B3F00A6A6A6A6A7A7A5A2A6A182787A7F7F810F
:103B4F008C887D6D625E5C595C647D969C979396C4
:103B5F00979B9EA0A0A5A7A6A184675C585958590A
:103B6F005A678681675C5B5B585A585C5F82A8A670
:103B7F00A7A5A6A6A3A2A5A6A6A6A7A7A5A5A7A2E1
:103B8F0087827F7C7A8290887B6F67635E595C66E1
:103B9F0080909799979997969CA5A5A5A6A7A2847B
:103BAF00665A595A5859596E85705C5C5D59595807
:103BBF00585A5B7FA7A5A7A5A6A6A5A4A5A7A6A6A5
:103BCF00A6A7A7A5A5A28F868078707A8A857B760F
:103BDF006F685F585A68808F91969DA3A09A9EA197
:103BEF009EA0A0A2997963595959585A5B7C796262
:103BFF005D6163595A58595D6C9AA8A4A7A6A6A6E9
:103C0F00A3A3A19BA5A7A7A7A4A4A58C6A6060677F
:103C1F006F746F76898B79635A5B5F759BA5A4A5CB
:103C2F00A6A7A4A7A49C9DA19E8A6E5C59595E5A13
:103C3F0058575C94AB956F718D86605B5787A9A5BC
:103C4F00A7A4A8A4A6797094765D5A8AAAA5A2788B
:103C5F00615A585958638FA2A4A7A6A6A58D869C12
:103C6F00A7A4A3A7A5A6A59F977A6461707A6C5F96
:103C7F005A585A595A575A586AA0A5A6A6A7A6A382
:103C8F009F6C7EA8A4A8A5A7A6A368565C575B5AED
:103C9F005C598BA8937861585A5780A9A4A8A6A6F7
:103CAF00A3A5A16F5A5D6D9CA7A69B6F5A5A595A2F
:103CBF00616C787B71645A5C5B5B585B558BA9A315
:103CCF00A8A3A8A3A87D595882A8A2AAA2AD8B56D3
:103CDF005B575A585D5A86A6A5A4A68B615B6CA24A
:103CEF00A8A5A6A6A6A587625B59595F8EA8A5A60B
:103CFF00805F5A5C6A7D93A0A18F695A5A585A5AAD
:103D0F005A578FABA5A8A4A8A4A87D596294ABA4B9
:103D1F00A9A2AA7E565B565B585A587BA4A7A6A7A2
:103D2F008E697396A6A6A7A7A6A88F685E595B593A
:103D3F005C90A7A29475686468768A97998B6D5D7D
:103D4F005958595D5B5993AAA5A8A5A7A5A2715863
:103D5F005B6B9EA7A6A2A77E565D595B575A5D8FD8
:103D6F00A7A5A5A89C6C6186A8A5A5A6A4A78863EE
:103D7F005B5959585C8FAAA3A79E877B808D93961A
:103D8F00938E785F5D57595A5A5A609CA8A6A7A47C
:103D9F00A7A49E71607896A5A7A5A79D61585858AE
:103DAF005959586BA0A8A6A4A6A0808DA5A7A6A810
:103DBF00A5A98F625A585A5958699FA8A6A4A496C4
:103DCF0086959E948274665B5D5B595A59595C95D2
:103DDF00A9A2A8A5A8A5A898797A7C98A7A5A9A013
:103DEF0063555A595C585A5C8AA8A3A6A6A8A4A0E2
:103DFF00A5A6A5A8A6A784635E58595A596294A888
:103E0F00A5A7A5A79C9FA18D76635C5A59595958B0
:103E1F00575B588FABA4A6A5A8A4A7A489816D75DD
:103E2F00A1A6A9995E575A595A595A5C86A7A3A7B2
:103E3F00A6A7A6A6A6A6A8A6A78C63595759585BEE
:103E4F0058689BA8A5A6A7A5A6A6A69B775D5859B7
:103E5F00595A5959575B5581ABA5A8A5A7A6A6A72F
:103E6F009D947A61709AAA975F575A5858585A5B1F
:103E7F0081A7A5A6A7A5A4A5A6A5A79A8A6E5959F5
:103E8F00575B5A5A57699FA8A6A6A6A6A6A5A69B92
:103E9F00745A5858595B5959575E5586ACA3A9A502
:103EAF00A7A6A7A6A79C6F5D5D80A9855C585859EA
:103EBF00585858618CA7A6A6A6A7A6A7A5A79B7911
:103ECF00645A58595959575B5B7DA5A6A7A5A6A556
:103EDF00A5A7A18967595A585B585B595A556CA5C4
:103EEF00A6A5A6A6A7A6A7A5A98E5D5B5D878F62CF
:103EFF005A58585A585A5C8AAAA5A6A6A7A5A4A488
:103F0F00A8A07C61595859595B575D5F76A2A7A647
:103F1F00A5A6A6A5A6A1977D5E5859595B585A56D6
:103F2F005B5576A8A5A7A3A7A6A7A7A49170565AD5
:103F3F00566F795C5A58595858576598A9A6A7A72C
:103F4F00A7A6A7A6A4795A59585A585A595E6E7DF2
:103F5F009CA8A4A6A6A6A7A7A18971615A595759CB
:103F6F00585A585B5570A8A6A7A5A7A6A6A7A693AB
:103F7F00725959585D665B5959595958586395A9E3
:103F8F00A6A6A6A7A6A7A6A373575A585958585816
:103F9F005E7595A6A7A7A7A6A6A6A7A38B6D5E5825
:103FAF0058595A5759575A5767A3A6A4A6A7A7A750
:103FBF00A6A686635A585959605C585B58595A5986
:103FCF00608EA9A5A8A6A7A7A7A79F6B5659575953
:103FDF00595A586381A1A8A7A6A6A7A6A7A6A68ED9
:103FEF006A5B5958595B585A575A5569A6A6A6A7DE
:103FFF00A7A6A6A5A67D5C59585B595E5B585B5872
:10400F005D5F5C628EA9A3A7A7A6A5A6A79D69560B
:10401F005A5859585A5A6B87A1A8A7A7A7A6A6A658
:10402F00A6A591705B5858585959595959575F9CC3
:10403F00A8A6A8A7A7A7A6A77B575A5759585B5C4E
:10404F00595959646A626081A5A4A7A6A7A6A4A816
:10405F009B63585A585858595D819FA6A6A7A7A683
:10406F00A7A7A7A7A38F715B58595959585B575AE0
:10407F005764A0A7A6A7A6A6A7A3A679575A585BC9
:10408F00585B5C59595A6E7F716B84A5A6A7A6A67B
:10409F00A5A3A9956457595A595A5A628EA5A6A62F
:1040AF00A6A7A6A7A7A6A697826D5A5B5B585959D4
:1040BF0059595A585F9AA8A5A6A6A6A6A5A87A5593
:1040CF005B585B575B5D59585E7B8D7C6A7DA3A700
:1040DF00A6A7A6A7A4AA925D59585A595958699DDF
:1040EF00A7A6A5A3A7A6A6A5A6A59D8C755D585A9C
:1040FF0059595859595A595D98A6A5A7A6A7A5A4C5
:10410F00A77A545B585B5A5A5D5A586381908171F4
:10411F0083A5A6A4A6A5A8A5A98D5B5A585A585B36
:10412F00576AA0A8A6A7A6A7A6A7A5A49E8E86771E
:10413F00605A5A5B595A585A585B557FABA4A7A679
:10414F00A7A7A4AB87555B595A5B5A5D615C698918
:10415F00A0967B708CA6A3A7A6A7A6A7A16D565B5A
:10416F005A5958595C91A9A4A7A5A6A5A6A6A6A475
:10417F009886746359595A58595859585A585F9ACA
:10418F00A7A5A7A4A8A6A5A56B565B575A585A6012
:10419F00616280A2A5967E7F9AA7A6A8A6A6A3A9CC
:1041AF008E5A5A5A59585A57699EA8A6A7A7A7A612
:1041BF00A7A6A79D836F655C5859595958585A57E8
:1041CF005B5577A9A5A7A7A6A9A3A88F595A575991
:1041DF005A585C615F6F98A6A58E7E91A6A6A6A67B
:1041EF00A4A6A6A16E585C575A585B5785A8A5A7D9
:1041FF00A5A7A6A7A7A6A4947E6C5F5A585959588D
:10420F0058585A585D5889AAA4A8A6A7A6A3AA7F4A
:10421F00555C575A59585B626181A5A6A591849B3D
:10422F00A8A6A7A6A7A3A89161595859595A57618B
:10423F0099A8A5A7A6A7A6A6A7A49586776E635B40
:10424F0059595A5959585A565C5674A8A4A7A7A633
:10425F00A7A4AB8A575B58595A586071748CA7A39F
:10426F00A792787D9BA8A5A7A5A8A6A575555B586D
:10427F0059565A5686A9A3A9A6A7A5A7A6A79F824E
:10428F006A615D5A58595959585858585A5B94A9E8
:10429F00A4A8A6A7A7A5A975545B565A5A595D6439
:1042AF006B91A7A5A693828EA4A5A7A7A5A5A8984D
:1042BF0065595A58585958639DA6A4A7A5A7A6A7EC
:1042CF00A4A79C7C68615B5858585958585859583E
:1042DF005B588DAAA5A9A5A4A7A4A97B565B57597E
:1042EF00575960656D96A9A5A695808DA5A6A6A51B
:1042FF00A6A6A89D6558595A595959619BA9A6A7B1
:10430F00A5A6A6A6A6A792786A615C5A58585858CF
:10431F005759585C59619EA8A6A7A6A8A6A7A0663C
:10432F00565A575A58596263709CA8A5A490839700
:10433F00A8A6A8A5A5A5A7855A5C585A575B55747A
:10434F00A8A6A8A6A6A7A7A5A7A3876E675F585874
:10435F0058595859595A585C5470A6A5A7A7A6A7DB
:10436F00A5A9945C59585958585B626080A7A5A7B6
:10437F00A08C859CA9A4A7A5A6A4A578575C575A7D
:10438F00575A5688ABA4A8A5A7A5A7A6A6977B683A
:10439F00645E5858585859595A585B5663A1A8A586
:1043AF00A7A5A6A7A6A46A545B585A595B61606873
:1043BF0094A7A6A2918B95A8A5A6A6A8A5A9895949
:1043CF005A585A575A5670A5A7A7A4A7A6A5A6A884
:1043DF00A0836E65625A58595858595959575B55A9
:1043EF008CACA4A8A6A6A7A4AA7F555B575B595A65
:1043FF005E62638AA6A7A4918991A4A7A7A5A7A681
:10440F00A89A64575858595959639BA8A6A7A5A7A6
:10441F00A5A6A6A7977B6B635C585859585A59594C
:10442F00575B5571A7A5A7A7A5A6A4A99A5F58582A
:10443F00585959595F5F76A0A6A79F92919DA8A63C
:10444F00A7A6A6A4A7835A59575A575B5679A9A668
:10445F00A7A5A8A5A6A6A7A4856C655F5958595A04
:10446F0059585958595C5A93AAA4A7A5A5A7A4AA05
:10447F0078555B585A58595D626895A8A6A5948BD4
:10448F008B9FA8A6A7A7A5A69D67575958585959F6
:10449F00609AA8A4A8A6A7A6A7A5A895776A625D03
:1044AF00595959585B585A585957609DA8A5A7A6EE
:1044BF00A6A5A6A266565B57595A5A6063769FA760
:1044CF00A7A492898DA3A7A6A7A8A4A795605858BB
:1044DF0059585A566CA4A6A5A6A7A7A7A6A5A48EF9
:1044EF007465605B5A59595959585A595A5860A0AE
:1044FF00A7A3A7A6A7A5A6A266565A5758595A61A9
:10450F006785A6A6A8A5918589A1A6A6A6A7A5A8F1
:10451F00955F5A5859585A566CA4A5A7A7A7A7A78D
:10452F00A6A7A38C71645F5A5958595859595958AD
:10453F0058595C98A9A4A7A6A7A7A7A46B555B5920
:10454F005A58595F6786A6A5A7A79482839BA8A5EB
:10455F00A6A7A6A89B6358585A595957639EA7A652
:10456F00A6A3A6A7A6A6A2866862615A5859585A4A
:10457F005959595A595C5789A9A4A7A4A7A6A5A701
:10458F0072555A585A59585F6D87A5A6A6A89C848C
:10459F007F94A7A5A7A6A6A7A16C575A58585959F3
:1045AF005F98A9A5A8A6A6A6A6A7A3896C63605A1B
:1045BF00585858585859575A575C546DA6A5A7A71D
:1045CF00A6A8A4AA87565B575958585B73849EA810
:1045DF00A5A7A1867D88A0A7A6A6A6A5A987595B92
:1045EF00585A585C557CAAA4A8A6A7A7A6A6A69316
:1045FF007361605D595858585858585858585959F8
:10460F0091A8A5A8A5A8A5A4A167565B5859585865
:10461F00688199A8A7A6A8907A7B8EA8A5A6A6A719
:10462F00A7A16A575958585A57619CA8A5A7A7A779
:10463F00A6A5A69B7962605F5B59595859595A597B
:10464F005A575B556DA5A5A6A6A5A8A2AB8B555B22
:10465F00595958575E758DA4A8A6A8A083787B9C3E
:10466F00A7A6A7A7A6A78D5C595859575C5579A936
:10467F00A4A8A7A6A6A6A6A4886A605F5C595858E6
:10468F005859585B5A59575A578BABA3A7A4A6A68C
:10469F00A4A76D555C58595858657E98A8A7A6A829
:1046AF00947C7887A6A6A6A6A6A5A2715659585996
:1046BF0058595D97A9A4A8A6A7A7A5A69C7A635E3B
:1046CF005E5A595958595859595A585A5664A1A7A8
:1046DF00A5A8A4A8A2AA925859585858595B718CEA
:1046EF00A3A7A5A7A48978738DA8A6A7A7A6A897FF
:1046FF0061585859575A556EA5A5A6A6A6A6A6A69F
:10470F00A58C6C5E5C5B5A5A5A595859595859596D
:10471F005C558BABA3A9A5A7A5A5A76D565B57594C
:10472F005858667F96A6A6A6A8987B7481A4A7A7BB
:10473F00A7A7A6A777565A585958595B96A9A5A85F
:10474F00A6A6A6A7A89876625D5D5B5959595958D8
:10475F0059585B585C5376A8A4A7A6A5A8A3AB8508
:10476F00555A57595A595E7388A4A7A5A6A2857B97
:10477F007C9AA9A6A7A7A5A9895959575A585B5634
:10478F0081AAA4A7A6A8A6A6A8A184685F5F5D5961
:10479F00595A595859595A595A5664A0A7A5A8A5F4
:1047AF00A8A5A99A5D575958585959687A9AA9A630
:1047BF00A7A58C7C7C97A9A6A8A7A6A997605859EE
:1047CF0059585B556FA5A6A7A6A6A6A6A6A58F7333
:1047DF0063615E5858585858585859585A585E99E6
:1047EF00A9A4A6A6A8A6A7A267555A5859595962AF
:1047FF006E91A8A5A6A797837E8FA6A6A7A6A6A605
:10480F00A26C565959585A58649DA8A6A7A7A7A78E
:10481F00A6A69170625F5F5B595958595858595BFA
:10482F00595B5588ABA4A6A4A6A7A5A875555B5937
:10483F00595959616E8AA7A7A6A89C7F787EA1A512
:10484F00A5A6A7A3A87F585B5859575B5A8DAAA551
:10485F00A8A6A7A6A6A6A17F625E5F5C5859595964
:10486F005859595B565B5378AAA4A7A6A6A8A3AB21
:10487F008C5759585A59595B677CA0A8A6A7A48989
:10488F007C7E9AA8A4A7A7A5AA8D5C5A575A575BF6
:10489F00547DAAA4A7A5A6A6A6A6A1856A625E5E58
:1048AF005A585A5A595958585A595A578FAAA2A84A
:1048BF00A5A8A5A5A369565B575A5959637B97A815
:1048CF00A6A5A8947F7684A6A7A7A7A7A6A675577F
:1048DF005A585A59595E97A9A5A7A5A7A6A5A39552
:1048EF0073605D5C5B5759595958585759575C5508
:1048FF0073A9A4A6A8A6A8A2AA87545B5959585869
:10490F005D6E85A4A7A5A5A488777596AAA6A8A766
:10491F00A4A8915D59575A575B557EA9A5A8A5A87C
:10492F00A7A6A79F7C625B5B5E595858585A585888
:10493F00595A585B578BACA4A9A6A7A7A5A66E5426
:10494F005B57595857647F99A8A6A6A9957B71788C
:10495F00A1A7A6A6A7A5A87D565A575A58595B9442
:10496F00ABA5A7A6A7A6A5A595735F595B5A585ADD
:10497F00585A5A5A5A5B585B57619FA8A4A8A6A8C1
:10498F00A5AA975C585A5959585A6E8BA3A8A6A531
:10499F00A587787189A8A4A7A6A7A89F6957595872
:1049AF005859566BA4A7A7A7A6A7A7A6A38B6A5E5D
:1049BF005A5959585858595A5A5859575A5566A307
:1049CF00A7A6A8A6A8A4AA8E575C595858595A78D2
:1049DF0096A5A7A5A7A380726C88A8A5A6A6A7A829
:1049EF009C6457585A595A5670A7A6A7A7A7A6A5A9
:1049FF00A79D7E655B5959595958595B5C59585B4E
:104A0F00565C547AAAA4A8A7A6A6A5A976545B5863
:104A1F00595A5764869BA7A7A6A79E776F6E95A82E
:104A2F00A5A6A7A6AA8B5859575A585A5687ABA46A
:104A3F00A8A6A7A6A5A69473605A595A5958595AA9
:104A4F005D5B58595A585A568CACA3A7A5A8A6A86F
:104A5F00A266575C575959576F8E9FA7A7A7A88E65
:104A6F00746E74A1A6A6A7A8A5A678565C585A5925
:104A7F00585F99A9A5A7A6A6A4A7A58A6C5E595B9E
:104A8F005B5A5959595A59585B585B5570A6A5A688
:104A9F00A7A6A6A2AC88565B57595A575D778FA524
:104AAF00A7A7A7A17F716B8BA9A6A7A7A6A796609B
:104ABF00585A5B585A5679A8A4A7A6A7A6A5A79B8C
:104ACF007A645A5B5D5C5959595B5958585B595B0D
:104ADF00588AAAA3A8A5A6A5A6A76E555B5859598B
:104AEF005869839AA7A6A6A89477707BA1A7A7A6B3
:104AFF00A7A6A679575A575959596095A8A5A7A699
:104B0F00A7A6A6A4886A5F5B5C5D5A58595A595983
:104B1F005859575B547DA9A4A8A5A6A7A4AC7C534C
:104B2F005C595A5959627A92A7A6A6A79C80777B9F
:104B3F009BA8A5A6A7A6A8835A5B5759585B588A66
:104B4F00AAA5A8A6A7A6A6A59674605D5C5E5A59ED
:104B5F005A59595A5859575A5566A3A7A6A7A6A8DE
:104B6F00A4AA945A5858595958596B819FA8A6A767
:104B7F00A48D7B7089A8A5A7A7A6A8976259595895
:104B8F00575A5573A8A5A7A6A5A6A5A79D785F5C9C
:104B9F005C5D5D595959585A5859575B57609DA8D4
:104BAF00A5A6A5A8A5A99A5D575A59595A596A7D1C
:104BBF009AA8A6A6A8907A7082A8A6A6A5A7A8A02C
:104BCF0069565A58575A576AA3A7A5A6A5A7A5A6C7
:104BDF00A07A615C5A5E5D5959595859595A5959B9
:104BEF00585C98A9A5A7A3A7A5A89F63575A58597A
:104BFF00585A677E99A7A7A6A89177717FA5A7A7EF
:104C0F00A6A7A5A36F56595858595864A0A8A6A788
:104C1F00A6A6A5A6A5876A5E5B5F5F5A5859585826
:104C2F00595859585A578AAAA4A8A6A6A6A4A9752E
:104C3F00545B5759585761758EA7A6A6A9977F78C9
:104C4F00799FA8A6A7A6A5A67E57595859585A596D
:104C5F0091ABA5A8A5A7A6A7A79978615B5C5E5A9B
:104C6F005859585859575A575B5471A8A6A7A7A512
:104C7F00A8A4AB8F5759585858575C6C7FA1A8A65A
:104C8F00A8A2867C7792A8A5A8A7A6A7976058592F
:104C9F0058585A5676A7A5A8A6A6A7A6A6A1826673
:104CAF005B5B5D5C59585957595858585A575F9C18
:104CBF00A9A5A8A5A6A6A89E61575A5859575A68DC
:104CCF00779AA7A6A7A78F7A7685A7A6A7A7A6A73D
:104CDF00A16A575958585A5767A0A6A7A6A6A8A6BB
:104CEF00A7A285685D5B5C5C5A585958585A595849
:104CFF00585A5892AAA4A8A5A7A6A6A46A555B5766
:104D0F005A5958657492A8A6A7A7937F7881A4A62D
:104D1F00A6A7A6A6A573565A585A5A585E98A9A67A
:104D2F00A7A5A7A7A7A78F6D605C5E5D5A585859B6
:104D3F00585A5859575B547FAAA3A7A6A7A8A4AA45
:104D4F007D545B58595858606F88A5A7A6A89D83B6
:104D5F007B7B9CA6A6A7A7A4A989585A585A575A2D
:104D6F005685AAA5A9A4A7A7A6A7997A675E5E618B
:104D7F005D585859585A595A575A556EA6A6A7A74B
:104D8F00A5A8A4AB92595A585859585C69749CA954
:104D9F00A5A8A08580829AA8A5A6A7A6A8915C59C8
:104DAF00585A575B567AA8A5A8A6A7A7A6A7A08367
:104DBF006A5F5E625F5958595958595B575B56661F
:104DCF00A3A7A6A7A6A8A5A99A5F58595959585A93
:104DDF00646C94A9A5A8A0877F8298A7A5A7A7A66A
:104DEF00A89862585859585B5575A7A5A7A5A7A7A6
:104DFF00A6A7A1856A5F60615F5A58585958595BD9
:104E0F005759575F9DA8A4A7A5A8A6A7A166555A4D
:104E1F0058595959646C8DA9A4A7A38E807C90A86A
:104E2F00A5A7A6A7A6A16D565958585957649EA76E
:104E3F00A5A8A5A7A6A7A386695F5D62615B585960
:104E4F005859585A5859585E9BA8A5A8A6A7A7A75E
:104E5F00A369555B565A5859656588AAA3A6A28AB5
:104E6F00817886A6A5A7A5A7A6A6745659585A58FD
:104E7F0058609AA9A5A7A6A7A6A7A283675E5C609C
:104E8F00625E5A59595859595859585C98A9A4A74C
:104E9F00A6A7A7A7A469555A5759585A646688A94F
:104EAF00A4A8A0837C7F92A7A4A7A6A7A7A46E55AA
:104EBF005A58595A575F9AA7A6A7A6A8A6A7A69168
:104ECF0071605C5E625C5A595959585858585A5813
:104EDF0090ABA3A8A6A6A7A5A978565B5759595872
:104EEF0061627EA7A6A6A898878289A4A5A6A7A86F
:104EFF00A6A979545C595A58595A91A8A4A8A6A89A
:104F0F00A6A5A793725F5C5F605D595A58585858B1
:104F1F0059595C5688ABA4A7A5A6A7A4AA7C555B34
:104F2F00585A5A5861647DA5A6A6A895848288A46C
:104F3F00A5A7A6A7A4AA7F565A595A585B568CA95B
:104F4F00A5A8A6A6A6A6A89974615C5E5F5D59592F
:104F5F0059585A5859575C5476A8A4A6A5A6A7A382
:104F6F00AB89585B585859575D6274A0A7A6A79B89
:104F7F008587849CA7A6A5A7A5A988585A585A57CC
:104F8F005B5583AAA5A8A6A7A7A7A89F7E5F585A77
:104F9F005F5F59585858585759585C547EAAA5A75F
:104FAF00A6A5A8A4AC8B565A585959575D6170A144
:104FBF00A8A5A799878B899FA8A5A5A7A5AA855757
:104FCF005A585B575B5683AAA5A8A6A6A5A7A79D67
:104FDF007E60585E625A585A595859585A575D55FB
:104FEF0074A8A4A8A7A6A8A4AB8A575A585859586A
:104FFF005E64739EA8A6A89D8785859BA8A6A6A775
:10500F00A4A985585A585A575B567DA9A5A7A6A794
:10501F00A6A7A79F7C635B5A605B595A5A5859578A
:10502F005A585C5572A7A6A6A4A5A8A4AA925C5923
:10503F005959595760676C98A8A3A7A0897E718C9E
:10504F00A7A6A6A5A5A89D62585959585B5472A842
:10505F00A5A7A6A5A6A7A7A282695D585E655E58FB
:10506F005A5C5958595859595C97A9A4A7A4A8A58F
:10507F00A7A266565B595B5859626A8EA8A5A5A769
:10508F0087807A7FA8A5A7A6A7A5A777575A5959AA
:10509F005958619EA7A3A8A6A6A6A5A797735A5B62
:1050AF005C6D6656595A5B58585B585B557CAAA580
:1050BF00A5A6A5A7A4AA82555A575A595861777C15
:1050CF009AA6A5A89E827E849DA8A5A7A8A3A88A14
:1050DF005859585A585C5476A9A5A7A3A5A7A7A7AE
:1050EF009D8B655A5F5F6E5F5959585B585A585A76
:1050FF0058619DA9A5A8A5A7A6A7A066575A575955
:10510F005A596A718DA8A6A7A7937B7383A6A6A6E3
:10511F00A5A5A7A16B565959595959609BA9A6A77F
:10512F00A4A7A7A7A3876E61576E62585E5A5D58F2
:10513F005A585C565D5579AAA4A7A6A6A6A4A97924
:10514F00545A595B585A6F6783A9A4A7A6957E85B1
:10515F008097A8A6A6A5A6A6835A5B5759575B5654
:10516F0087AAA3A8A6A7A5A5A69F84655A5A5D5B83
:10517F005859585A59595B575B5769A0A6A6A6A408
:10518F00A7A6A99960595858595A5B5E6C9AA8A45A
:10519F00A89C8D8D7B92A9A6A5A4A6A89E645859FC
:1051AF005A585B5772A6A4A7A6A7A6A5A6A588734B
:1051BF0063595A5D5F5858595B595959575C57870E
:1051CF00A9A3A8A6A6A7A5A66F545B595A595763BA
:1051DF006884A7A5A6A79E7D7588A5A6A7A5A5A443
:1051EF00A979565C565A575A5D8FAAA4A7A6A6A6A8
:1051FF00A7A6A28163605C5F635C5958595B5A58DC
:10520F0059585D5587ABA4A7A5A7A6A4AA7E555D3F
:10521F0058595B596A6673A5A6A7A7A27476798FAA
:10522F00A8A5A8A7A7A79B63595959585B5965A16A
:10523F00A7A5A5A6A7A7A79F98755A6365695F5AE3
:10524F005A585959595D565A5571A7A4A6A5A6A8DB
:10525F00A3AA925B5C59585958617C708BA9A5A879
:10526F00A382787586A4A4A8A5A7A6A36C565B579E
:10527F005A565B5682A8A3A9A6A7A7A6A4A0827573
:10528F006558605C585A59595A5A585B575C537253
:10529F00A8A5A7A6A5A6A3AA8D5A5B5759595863C7
:1052AF007B85A1A6A3A9957983818DA6A7A7A6A67D
:1052BF00A49369585959585957609DA9A5A6A4A8F0
:1052CF00A5A5A5A699735F65645C5B58585A5B5A90
:1052DF005A5959595C98A7A5A7A6A7A8A4AA7E545E
:1052EF005B585A5A576E78789EA7A3A7957A868DE2
:1052FF0099A6A5A6A6A6A78C5C5A585B585B5571B4
:10530F00A7A5A6A5A6A5A6A69DA28F5F676B585AAF
:10531F00585A595A62595A575B576DA6A7A6A4A552
:10532F00A9A5AA955B59585A585A5A615F7EA8A5E4
:10533F00A0937C7A8CA0A7A5A6A8A3A9935A595984
:10534F005C5858595B96AAA4A7A3A7A6A7A0A69F87
:10535F008571636659595A59625D585A5B595A5546
:10536F0087ACA4A7A4A6A7A5A78F5B595A595A58CB
:10537F005B5773939EA9A08A83879DA6A4A6A4A713
:10538F00A5A79664595859575C556EA5A5A1A0A617
:10539F00A7A7A7A4A79F92817D795D5A58676558E3
:1053AF005A5C585A5666A1A6A4A7A7A6A6A7A46B8F
:1053BF00555A575D56676B5D597BA9987D6F89A6C6
:1053CF00A5A6A6A5A6A7A7A369545A575B575A57D0
:1053DF0085ABA4A8A6A8A6A6A6A6A3A99676755D32
:1053EF005959585D5B59585B595A578CAAA4A7A6AF
:1053FF00A7A7A5A69C61585A575B5A66665A588844
:10540F00A1956E5C94A7A6A6A7A4A7A5A7995E577A
:10541F0059585959586D91A2A7A4A5A7A7A6A6A5F3
:10542F00A5A7A18C7C655858595A5A585A5A5C5698
:10543F00639FA7A7A6A5A4A8A6A9935A5A59595AD4
:10544F005C5A5C5D565E6B6E707B9FA7A6A6A6A787
:10545F00A6A6907E6D5859595858585B8BA19797AF
:10546F00A6A5A4A7A5A6A8A6A77D5A5B585A5858C3
:10547F0058595C5B5B568BAAA4A8A3A8A6A9A3AA9C
:10548F0085575C58585C595C775F5B5C70685B86CE
:10549F009FA5A6A7A6A7A6A5A46E575B5A595858AD
:1054AF005D576A99A0A5A4A7A6A6A6A6A5A5A59D82
:1054BF006E565C585859585A595C5869A4A6A5A6F7
:1054CF00A4A6A6A7A5A89666595D665A5D58585812
:1054DF005B726256729DA5A6A7A6A6A8A5A7967AE7
:1054EF0062585A5A5D5959575E8B9D91A0A8A6A331
:1054FF00A4A7A7A6A27157675D58595A585B575C66
:10550F00567AA9A3A7A4A6A6A6A6A6A37F58657890
:10551F00685A5E625958595B5B69647EA6A5A7A657
:10552F00A6A8A5A89873707065585859585A567000
:10553F00828DA7A5A8A6A5A7A5A4879379565A5784
:10554F00615C5A5B585D577BA6A4A8A4A5A7A6A724
:10555F0099A49580818C7C718867595958595A59EB
:10556F005E94A8A4A7A6A8A6A6A7A7A5A1926E58C1
:10557F005B59595B585C789CA8A6A2A4A5A3A67FEB
:10558F00789B9367565958595A5A5D58669DA4A5EA
:10559F00A6A5A5A4A599A1A6A79C98A7A194745B5D
:1055AF005A5759566563669DA5A5A8A6A6959BA9AA
:1055BF00A6A09EAA99655957655E595978A5A3A0CB
:1055CF00A6A29A94876674A1996F585958585A5D34
:1055DF005E58699FA6A6A6A5A7A6A7847E9DA3A58C
:1055EF00A79F98A373585B595A596C5F7BA7A5A7C0
:1055FF00A3A78380A7A6A7A1A6A5A88E665D5859C5
:10560F00595D8393909FA69E76607C826988896E90
:10561F005F5B5C5859595E556EA7A6A4A6A4A3A6B6
:10562F00817A9194919DA7A3A7875D59595B5A5A87
:10563F005E859691909DA9A5877F798AA9A5A8A334
:10564F00A8905A6068676781989AA2A5A09585600F
:10565F00575B6E7F797A765959595A5A5C5D75A4A2
:10566F00A4A7A7A59D7D8187838A96A5A4A4A69CA0
:10567F008B6F585859656E727699A18F9A6F5B7BB5
:10568F006873A1A0A4A7A0A3A0876F5B6495A78749
:10569F008AA2A4815F5E7A6F555D6F93735B5C5ACC
:1056AF005B5E575B5781AAA0A4A5A884596694A2F4
:1056BF00A6A6A5A6A4A19E876A5F585C7985857961
:1056CF0086938668555F6A705D79A3A3A4A3A582AC
:1056DF007E818290909CA8A295A09866575B829538
:1056EF0073838B8F6C5B5D5E796457595C7A9CA377
:1056FF00A59486805F5F6088A1A2A2A1A6868CA4D4
:10570F00A3745858659BA4A7A683998A6D88655E74
:10571F00765A74A18590A2A1997B72637F9DA29EF8
:10572F00849CA77A5C748B979D708BA397897E87D7
:10573F007660648395755A5A65899E958D827C65CE
:10574F0055697C647B785886A19197A975576260DB
:10575F008FA9A78E7B9AA6967A7E978C8A7A8EA42B
:10576F008E959B91656A98919D8C666D8E9D9872B2
:10577F00708F97976B78A1A8896D858D7F6D949C9D
:10578F007161657361799E79908154626C737174E4
:10579F0064586B7D7B7296AA76597F72889382A02C
:1057AF00A59C9A8D95A49F90796C8BA59A8A9092BF
:1057BF0070617D839390728D9D9CA59F9C8B869D20
:1057CF00A5A4979F999085726D5B5B625C596C780D
:1057DF00766555669D9E8F7F5E595D8797967E6E27
:1057EF007A859CA5A895645E869EA4A7A6A5876BBF
:1057FF0095A5996F5C60618FA39F8A6174896C7B9B
:10580F009098A2A2A0A4A2818CA9A39F988C9CABD4
:10581F00826C6E68685B5D565959605777998E93A5
:10582F006E77675C607EA7A3A99E9EA4A78F7B8FD0
:10583F008E9E908AA8A49375706A585A5675725F97
:10584F00627DA0A28E6A7B91A29C9DA9A4A3A2A116
:10585F00A4A89F869AA79F9E80566A6C5A5A5B5C33
:10586F005A5E576199A79966565C588CA9A49CA15A
:10587F00A1A0A7A7A2A4A2957F6C9AA3AA87565C02
:10588F007367565C5A5F5861999D7E6E747282A8D9
:10589F009C96A5A7A6A2A5A6A6A58997A8A6987027
:1058AF006C625664655C5C5859576284A08565626A
:1058BF005A586E95A8A29CA4A5A7A6A7A49C998A9E
:1058CF009EA9A59FA4775A5E60766F5A5859586261
:1058DF0086918A63575A5A8BA9A4AA9E8CA6A4A50F
:1058EF00A1A89884A2A3A39C775859585B5D5F5DCC
:1058FF005B585E597D9A8C7C5F5B657396A2A18E17
:10590F008BA6A3A7A69C9D986E7E929DA9A2968713
:10591F006E5E678D8C645D6086A27B838F74615A27
:10592F0084A7A7968B989B817A7C83998F787B9697
:10593F00AA8168718096916D6C979F957C69748729
:10594F00858886826E5B678A82605A5E887D626E0A
:10595F00817A6B5C5D868B687B81888F7683959F60
:10596F00888B7B7FA99FA39A96A099918997A7A1CE
:10597F0091838F9480959F8E7B7F99A1989183833C
:10598F00A18F788774879D957F8F84808A5D5A7CDD
:10599F006E719577566262656863685B5D5D66667A
:1059AF007E8669736C597997A098829C9088A3A082
:1059BF00A8896E7B99A4A3A27D7D977D79A18D9AED
:1059CF00A2797D947285AA9D869AA3A5938FA89C90
:1059DF009C868A9B9A9F6C6E97735F5B6C6D5C6104
:1059EF005C656E787865585A5672825F5D5B7DA9EB
:1059FF009D907F74938588A4A39A9BAC9192A8A243
:105A0F00928F797A9CA08B6263735B64919F947F72
:105A1F00889B92809897A1A7A4A2A0958FA2AB85EF
:105A2F006A7764806858746256595B5A5D5C638DFF
:105A3F0075585C61615B6893A8A3A79C9BA5A2A8FE
:105A4F00A4A29DA2A8A3A5A57E6D6366938B625D9C
:105A5F005F7367585B5D77846381AAA49D92A4A44A
:105A6F00A5A09CA6A7A5A4A4A29C705C70605B5B7C
:105A7F00575D5A59585E5E5A5B5F6362517D9B83D7
:105A8F009CA3A5A4A4A5A4A3A2A3A5A0A1A5A3A9D3
:105A9F0080597F6F7E9C745A5A747B5765735F571A
:105AAF0082A5A4A497A3A9A0A29C9FA7A0A3A8A1E5
:105ABF0091957056625F5859585B63596D7C5E6063
:105ACF005D575B7F7B68838E90A2AA9392A8A5A750
