:020000040800F2
:10000000B87F0120D508000831090008310900082F
:10001000310900083109000831090008000000001A
:10002000000000000000000000000000310900088E
:10003000310900080000000031090008E51200083D
:1000400031090008310900083109000831090008A8
:100050003109000831090008F103000831090008DE
:100060003109000831090008310900083109000888
:100070003109000831090008310900083109000878
:100080003109000831090008310900083109000868
:100090003109000831090008310900083109000858
:1000A0003109000831090008310900083109000848
:1000B0003109000879040008C1040008310900086A
:1000C0003109000831090008310900083109000828
:1000D0003109000831090008310900083109000818
:1000E0003109000831090008310900083109000808
:1000F00031090008310900083109000831090008F8
:1001000031090008310900083109000831090008E7
:1001100031090008310900083109000831090008D7
:1001200031090008310900083109000831090008C7
:1001300031090008310900083109000831090008B7
:1001400031090008310900083109000831090008A7
:100150003109000831090008310900083109000897
:100160003109000831090008310900083109000887
:100170003109000831090008310900083109000877
:10018000310900083109000880B58AB000AF7860F5
:10019000396000237B6200233B620023FB61002364
:1001A000BB617B681B8A9BB27B627B6A23F44053F2
:1001B0007B623B68DB881A467B6A13437B627B6AFF
:1001C0009AB27B681A827B689B899BB27B627B6A4E
:1001D00023F4B05323F00C037B623B689A883B689E
:1001E0001B8913439AB23B685B8913439BB21A463F
:1001F0007B6A13437B627B6A9AB27B689A817B68D5
:100200009B8A9BB27B627B6A23F440737B623B6870
:100210009B891A467B6A13437B627B6A9AB27B682E
:100220009A8207F10803184600F092FB7B68304A77
:10023000934203D07B682F4A934202D17B693B6291
:1002400001E03B693B627B689B899BB21BB2002B40
:100250000CDA3A6A13469B0013449A001A443B682E
:100260001B685B00B2FBF3F3FB610BE03A6A1346D9
:100270009B0013449A001A443B681B689B00B2FB26
:10028000F3F3FB61FB691C4AA2FB03235B091B011F
:100290007B627B6A1B09642202FB03F3FA69D31AAF
:1002A000BB617B689B899BB21BB2002B0CDABB69DC
:1002B000DB003233104AA2FB03235B0903F0070380
:1002C0007A6A13437B620BE0BB691B0132330A4A33
:1002D000A2FB03235B0903F00F037A6A13437B62DB
:1002E0007B6A9AB27B681A8100BF2837BD4680BD01
:1002F00000100140001401401F85EB5180B483B011
:1003000000AF78600B46FB70FB78002B08D07B6851
:100310009B899BB243F400539AB27B689A8107E0B1
:100320007B689B899BB223F400539AB27B689A81C5
:1003300000BF0C37BD4680BC704700BF80B483B09F
:1003400000AF78600B467B807B88C3F308039AB2CA
:100350007B689A8000BF0C37BD4680BC704700BFE9
:1003600080B485B000AF78600B467B800023FB73C0
:100370007B681B889AB27B8813409BB2002B02D00B
:100380000123FB7301E00023FB73FB7B184614374A
:10039000BD4680BC704700BF80B485B000AF7860B8
:1003A000114B1B68BB60EFF30583FB60FB68002B00
:1003B00011D100BF0C4B1A68BB68D21A7B689A42F5
:1003C000F8D30BE0094B1B6803F48033002B02D0F9
:1003D0007B68013B7B607B68002BF3D100BF143747
:1003E000BD4680BC704700BF8C77012010E000E064
:1003F00080B500AF012001F04DFA0346002B2AD052
:100400000021164801F054FB0021154801F050FB73
:10041000144B00221A70144B00221A70134B002246
:100420001A600C2000F062FD0D2000F05FFD0E2030
:1004300000F05CFD0F2000F059FD0D4B00221A70FA
:100440000C4B00221A7000F069F86420FFF7A4FF3B
:10045000012001F043FA00BF80BD00BF000400404E
:10046000000800407D7701207E770120747701200D
:100470007F7701208077012080B500AF01210E48F1
:1004800001F05AFB0346002B14D00C4B1B68184696
:1004900000F0D2F8094B1B680133084A1360074B80
:1004A0001B68082B02DD054B00221A60012102485F
:1004B00001F06CFB00BF80BD000400407477012098
:1004C00080B500AF0121114801F036FB0346002B37
:1004D00019D00F4B1B680F4AD35C9BB21946002002
:1004E00000F0DEF90A4B1B680133094A1360084B20
:1004F0001B68094A934202D9054B00221A60012168
:10050000024801F043FB00BF80BD00BF000800406F
:1005100078770120100000204D77010080B400AFF3
:10052000074B1B78002B03D0054B00221A7002E00A
:10053000034B01221A7000BFBD4680BC704700BF4C
:100540007C77012080B500AF314800F073FE034690
:100550001A46304B1A60304B1B78002B4AD02F4B79
:100560001B7883F00103DBB2002B12D02C4B1B78DD
:1005700083F00103DBB2002B0BD040F2DC50FFF71D
:100580000BFF4FF48051274801F010F80E2000F0C7
:10059000ADFC204B1B68B3F52F7F06DC0121224800
:1005A00000F0CEFF0346012BCED11C4B1B7883F00D
:1005B0000103DBB2002BC7D0194B1B7883F001037A
:1005C000DBB2002BC0D0134B1B68B3F52F7F03DDCC
:1005D000164B01221A7002E0154B01221A700F4BC4
:1005E00001221A700C2000F081FC0121114801F059
:1005F0005FFAA9E70C2000F079FC4FF4804109482C
:1006000000F0D4FF4FF4FA70FFF7C6FE9CE700BF7E
:1006100000200140847701207C7701207D77012034
:100620007E770120000C0240000402407F77012009
:10063000807701200004004080B582B000AF786070
:100640007B68082B5FD801A252F823F071060008DE
:100650008B06000893060008A1060008A9060008FA
:10066000BD060008C5060008D3060008DB06000822
:100670000C2000F03BFC0D2000F038FC0E2000F0B8
:1006800035FC0F2000F032FC3DE00C2000F0FCFBBC
:1006900039E00C2000F02AFC0D2000F0F5FB32E0E0
:1006A0000C2000F0F1FB2EE00C2000F01FFC0D20D0
:1006B00000F01CFC0E2000F0E7FB24E00C2000F012
:1006C000E3FB20E00C2000F011FC0D2000F0DCFB2F
:1006D00019E00C2000F0D8FB15E00C2000F006FC1F
:1006E0000D2000F003FC0E2000F000FC0F2000F0B5
:1006F000CBFB0021064801F0DBF9064B00221A7003
:1007000000F00AF800BF00BF0837BD4680BD00BF3B
:10071000000400407D77012080B500AF294801F03A
:100720005FFA4FF47A70FFF737FE274801F058FA66
:100730004FF47A70FFF730FE244801F051FA4FF47D
:100740007A70FFF729FE224B1B78002B02D021483C
:1007500001F046FA4FF4AF70FFF71EFE1E4B1B78F8
:10076000002B02D01D4801F03BFA4FF4FA70FFF75E
:1007700013FE1A2001F01AFA154B00221A70164BBC
:1007800000221A70164B01221A700021154801F040
:100790008FF9154B00221A600C2000F0A7FB0D20EA
:1007A00000F0A4FB0E2000F0A1FB0F2000F09EFB48
:1007B0000E4B00221A7001210D4801F079F900BF9B
:1007C00080BD00BF081C0008101C00081C1C00088D
:1007D0007F770120381C000880770120601C00080A
:1007E0007E77012000040040747701207D7701208E
:1007F0000008004080B485B000AF78603960002305
:10080000FB600023BB60134B1B68FB6040F6FE726D
:100810007B6802FA03F3DB43FA681340FB603B6832
:100820001A683B685B681A433B689B681A433B68DD
:10083000DB681343BB60BA687B6802FA03F3FA68AB
:100840001343FB60034AFB68136000BF1437BD46C7
:1008500080BC70470074004080B483B000AF786003
:100860000B46FB70FB78002B09D00C490B4B1A6828
:1008700001207B6800FA03F313430B6009E007498A
:10088000064B1A6801207B6800FA03F3DB43134030
:100890000B6000BF0C37BD4680BC70470074004041
:1008A00080B485B000AF78600B467B800023FB608E
:1008B000074BFB60FA687B6813440833FB60FB68F6
:1008C0001A467B88136000BF1437BD4680BC704752
:1008D0000074004080B582B000AF104B7B60104BBD
:1008E0003B6007E03B681A1D3A607A68111D796029
:1008F00012681A603B680B4A9342F3D30A480B49CB
:100900004FF000028842B8BF40F8042BFADB00F039
:1009100013F800BF0837BD4680BD00BF821C000829
:10092000000000207477012074770120B477012043
:1009300080B400AFFEE700BF80B500AF00F090FECE
:1009400000F00AF9FFF7FEFD0023184680BD00BF46
:1009500080B489B000AF78600023BB6100237B6165
:100960000023FB6102233B610023FB600223BB6089
:10097000484B9B6803F00C03BB61BB69042B07D099
:10098000082B09D0002B3FD17B68434A1A603FE017
:100990007B68424A1A603BE03E4B5B6803F480038D
:1009A0009B0DFB603B4B5B6803F03F03BB60FB6848
:1009B000002B0DD0394ABB68B2FBF3F2354B5968B6
:1009C00047F6C0730B409B0903FB02F3FB610CE08D
:1009D000314ABB68B2FBF3F22E4B596847F6C0733D
:1009E0000B409B0903FB02F3FB612A4B5B6803F49A
:1009F00040331B0C01335B003B61FA693B69B2FB7E
:100A0000F3F27B681A6003E07B68234A1A6000BF38
:100A1000204B9B6803F0F003BB61BB691B09BB6102
:100A20001F4ABB6913441B78DBB27B617B681A6881
:100A30007B69DA407B685A60164B9B6803F4E0538D
:100A4000BB61BB699B0ABB61154ABB6913441B7838
:100A5000DBB27B617B685A687B69DA407B689A60AD
:100A60000C4B9B6803F46043BB61BB695B0BBB61D0
:100A70000B4ABB6913441B78DBB27B617B685A6805
:100A80007B69DA407B68DA6000BF2437BD4680BCF2
:100A9000704700BF003802400024F40000127A00C2
:100AA0000000002080B483B000AF78600B46FB707C
:100AB000FB78002B06D00949084B1A6B7B6813435F
:100AC0000B6306E00549054B1A6B7B68DB4313405B
:100AD0000B6300BF0C37BD4680BC70470038024036
:100AE00080B483B000AF78600B46FB70FB78002BBE
:100AF00006D00949084B1A6C7B6813430B6406E067
:100B00000549054B1A6C7B68DB4313400B6400BF3F
:100B10000C37BD4680BC70470038024080B483B0BB
:100B200000AF78600B46FB70FB78002B06D00949BC
:100B3000084B5A6C7B6813434B6406E00549054B30
:100B40005A6C7B68DB4313404B6400BF0C37BD46D7
:100B500080BC70470038024080B59EB000AF0121D4
:100B60000120FFF79FFF01210220FFF79BFF0121DA
:100B70000420FFF797FF01210820FFF793FF0121D1
:100B80004FF48070FFF7CAFF01214FF00050FFF7CC
:100B9000A7FF01214FF48020FFF7A2FF01214FF4AE
:100BA0008040FFF7BBFF01210420FFF799FF0121DF
:100BB0000220FFF795FF02233B67032387F8743079
:100BC000002387F8773007F170031946A64800F034
:100BD00029FC01233B67002387F87430002387F842
:100BE0007630032387F87530002387F8773007F1D4
:100BF000700319469D4800F015FC10233B67032342
:100C000087F87430032387F87530002387F877302E
:100C100007F170031946944800F004FC4FF4704348
:100C20003B67012387F87430002387F8763003236D
:100C300087F87530002387F8773007F1700319467D
:100C40008B4800F0EFFB01233B67002387F87430EB
:100C5000002387F87630032387F87530012387F85F
:100C6000773007F1700319467F4800F0DBFB4FF443
:100C700040633B67022387F87430002387F876309F
:100C8000012387F87730022387F8753007F1700366
:100C90001946784800F0C6FB4FF40373BB6609237E
:100CA000A7F864300023A7F86C300023A7F866305B
:100CB00007F164031946704800F090FE43F67F6325
:100CC000FB6541F26F73A7F858300023A7F8603036
:100CD0000023A7F85A3007F158031946674800F077
:100CE0007DFE4FF4C06000F007FE1E2387F85430ED
:100CF000002387F85530002387F85630012387F802
:100D0000573007F15403184600F008FE01215A48F5
:100D100000F03CFF01220121574800F0E9FE1D23AD
:100D200087F85030012387F85130012387F852307B
:100D3000012387F8533007F15003184600F0EEFD09
:100D400001214E4800F022FF012201214B4800F012
:100D5000CFFE062387F85430002387F85530002350
:100D600087F85630012387F8573007F154031846A7
:100D700000F0D4FD0123BB64002387F84C30082326
:100D800087F84D30012387F84E3007F148031846A5
:100D900000F00EFD0023BB630023FB6300233B64D4
:100DA00000237B6407F13803184600F025F900237F
:100DB0003B62002387F82430012387F82530002385
:100DC000FB620023BB6200233B63012387F83430BE
:100DD00007F1200319462A4800F0BAF8042301223B
:100DE0000121274800F04CF90121254800F02CF999
:100DF000234800F00FFA00233B6100237B610023AE
:100E0000BB610023FB6107F1100319460020FFF7C7
:100E1000F1FC01210020FFF71FFD07220A211548E0
:100E200000F0D6FB07220B21124800F0D1FB4FF453
:100E3000E1333B600023BB800023FB8000233B8128
:100E40000023BB810C237B813B4619460D48FFF7ED
:100E50009BF901210B48FFF751FA00F0BBFA00BFE4
:100E60007837BD4680BD00BF00000240000402404C
:100E7000000C02400008024000080040000400404E
:100E8000002001400048004080B582B000AF78608B
:100E90007B680C3B032B23D801A252F823F000BF40
:100EA000B10E0008BD0E0008C90E0008D50E0008DE
:100EB0004FF480510C4800F05DFB11E04FF40051FD
:100EC000094800F057FB0BE04FF48041064800F062
:100ED00051FB05E04FF40041034800F04BFB00BF1D
:100EE00000BF0837BD4680BD000C024080B582B00F
:100EF00000AF78607B680C3B032B23D801A252F82B
:100F000023F000BF150F0008210F00082D0F000867
:100F1000390F00084FF480510C4800F039FB11E004
:100F20004FF40051094800F033FB0BE04FF48041CF
:100F3000064800F02DFB05E04FF40041034800F0A7
:100F400027FB00BF00BF0837BD4680BD000C024034
:100F500080B485B000AF786039600023FB60002367
:100F6000FB727B685B68FB60FB6823F0407323F4D3
:100F70008073FB603B681B791A023B681B68134354
:100F8000FA681343FB607B68FA685A607B689B6869
:100F9000FB60FA68174B1340FB603B681A693B68BB
:100FA000DB681A433B689B681A433B685B795B00CC
:100FB0001343FA681343FB607B68FA689A607B68A6
:100FC000DB6AFB60FB6823F47003FB603B681B7DFE
:100FD000013BDAB2FB7A1343FB72FB7A1B05FA681A
:100FE0001343FB607B68FA68DA6200BF1437BD46C2
:100FF00080BC7047FDF7FFC080B485B000AF78605B
:101000000023FB600E4B5B68FB60FA680D4B1340DE
:10101000FB607B681A687B685B681A437B689B6827
:101020001A437B68DB681343FA681343FB60044A86
:10103000FB68536000BF1437BD4680BC704700BFDB
:1010400000230140E030FCFF80B483B000AF786043
:101050000B46FB70FB78002B06D07B689B6843F047
:1010600001027B689A6005E07B689B6823F00102BF
:101070007B689A6000BF0C37BD4680BC704700BFDC
:1010800080B485B000AF7860084611461A46034622
:10109000FB700B46BB7013467B700023FB60002384
:1010A000BB60FB78092B23D97B68DB68FB60FB788E
:1010B000A3F10A0213465B001344072202FA03F36A
:1010C000BB60BB68DB43FA681340FB607978FB7850
:1010D000A3F10A0213465B00134401FA03F3BB6059
:1010E000FA68BB681343FB607B68FA68DA601EE04D
:1010F0007B681B69FB60FA7813465B001344072288
:1011000002FA03F3BB60BB68DB43FA681340FB6081
:101110007978FA7813465B00134401FA03F3BB6055
:10112000FA68BB681343FB607B68FA681A61BB7896
:10113000062B21D87B685B6BFB60BB785A1E13467D
:101140009B0013441F2202FA03F3BB60BB68DB431E
:10115000FA681340FB60F978BB785A1E13469B006F
:10116000134401FA03F3BB60FA68BB681343FB60E6
:101170007B68FA685A6347E0BB780C2B21D87B6800
:101180001B6BFB60BB78DA1F13469B0013441F22C6
:1011900002FA03F3BB60BB68DB43FA681340FB60F1
:1011A000F978BB78DA1F13469B00134401FA03F366
:1011B000BB60FA68BB681343FB607B68FA681A631C
:1011C00022E07B68DB6AFB60BB78A3F10D0213466B
:1011D0009B0013441F2202FA03F3BB60BB68DB438E
:1011E000FA681340FB60F978BB78A3F10D0213464F
:1011F0009B00134401FA03F3BB60FA68BB68134316
:10120000FB607B68FA68DA6200BF1437BD4680BCB9
:10121000704700BF80B483B000AF78607B689B6884
:1012200043F080427B689A6000BF0C37BD4680BCAB
:10123000704700BF80B483B000AF78607B68DB6C20
:101240009BB218460C37BD4680BC704780B483B053
:1012500000AF03463960FB7197F90730002B0BDABA
:101260000D49FB7903F00F03043B3A68D2B2120137
:10127000D2B20B441A7609E0084997F907303A6868
:10128000D2B21201D2B20B4483F8002300BF0C3754
:10129000BD4680BC704700BF00ED00E000E100E00B
:1012A00080B582B000AF78607B68B3F1807F01D3F6
:1012B000012311E00A4A7B6823F07F43013B53601E
:1012C0000F214FF0FF30FFF7C1FF054B00229A605E
:1012D000034B07221A60002318460837BD4680BD1D
:1012E00010E000E080B582B000AF374B1B680133DF
:1012F000354A1360354B1B68002B04D0334B1B68F9
:10130000013B324A1360AFF300800023FB7152E0CF
:10131000FB792F4A9B0013445B68002B48D0FB7974
:101320002B4A9B0013445B681B7B002B40D0FB794E
:10133000274A9B0013445B689B68002B38D0FB79DD
:10134000234A9B0013445B689A68013A9A60FB79D0
:101350001F4A9B0013445B689B68002B28D1FB79D4
:101360001B4A9B0013445B681A69FB7918499B0070
:101370000B445B685B6918469047FB79144A9B00F5
:1013800013445A68FB7912499B000B445B681B6845
:101390009360FB790E4A9B0013445B685B68002BEB
:1013A00006D1FB790A4A9B0013445B6800221A733A
:1013B000FB790133FB71064B1B78FA799A42A7D36C
:1013C00000BF0837BD4680BD8C7701209077012093
:1013D0009877012080B500AF0D4B1B680D4AA2FB2A
:1013E00003239B091846FFF75BFF0346002B00D041
:1013F000FEE7074B1B689B09074AA2FB03239B0AD6
:10140000064A1360064B01221A7000BF80BD00BF60
:1014100060770120D34D621017916502B0770120EB
:101420009477012080B487B000AF786039600023E2
:101430007B6100233B610023FB6000237B6176E03E
:1014400001227B6902FA03F33B613B681A683B693E
:101450001340FB60FA683B699A4265D17B681A6861
:101460007B695B00032101FA03F3DB431A407B68CD
:101470001A607B681A683B681B7919467B695B00B8
:1014800001FA03F31A437B681A603B681B79012B4E
:1014900003D03B681B79022B2ED17B689A687B694D
:1014A0005B00032101FA03F3DB431A407B689A6077
:1014B0007B689A683B685B7919467B695B0001FA37
:1014C00003F31A437B689A607B685A687B699BB216
:1014D000194601238B40DB431A407B685A607B68C6
:1014E0005B683A68927911467A6992B201FA02F21F
:1014F00092B21A437B685A607B68DA687B699BB258
:101500005B00032101FA03F3DB431A407B68DA60D6
:101510007B68DA683B68DB7919467B695B0001FA16
:1015200003F31A437B68DA607B6901337B617B6973
:101530000F2B85D900BF1C37BD4680BC704700BF4C
:1015400080B485B000AF78600B467B800023FB73CE
:101550007B681A697B881340002B02D00123FB7340
:1015600001E00023FB73FB7B18461437BD4680BCAB
:10157000704700BF80B483B000AF78600B467B80BB
:101580007B687A881A8300BF0C37BD4680BC7047E1
:1015900080B483B000AF78600B467B807B687A882C
:1015A0005A8300BF0C37BD4680BC704780B483B0FF
:1015B00000AF78600B467B807B685A697B885A4015
:1015C0007B685A6100BF0C37BD4680BC704700BFC6
:1015D00080B485B000AF78600B467B8013467B708B
:1015E0000023FB600023BB607A787B8803F007034D
:1015F0009B0002FA03F3FB607B88DB089BB2184672
:101600007B88DB089BB21A467B68083253F822209D
:101610007B8803F007039B000F2101FA03F3DB43F0
:1016200002EA03017B6800F1080243F822107B887C
:10163000DB089BB21A467B68083253F82220FB680D
:101640001343BB607B88DB089BB21A467B68083279
:10165000B96843F8221000BF1437BD4680BC7047FC
:1016600080B500AF124A124B1B6843F001031360B0
:101670000F4B00229A600E4A0D4B1B6823F08473B7
:1016800023F4803313600A4B0A4A5A60084A084B15
:101690001B6823F480231360054B0022DA6000F0FE
:1016A0000DF8054B4FF000629A6000BF80BD00BF8F
:1016B000003802401030002400ED00E080B483B018
:1016C00000AF00237B6000233B60354A344B1B682E
:1016D00043F480331360324B1B6803F400333B60E8
:1016E0007B6801337B603B68002B03D17B68B3F5DB
:1016F000A06FF0D12A4B1B6803F40033002B02D0FB
:1017000001233B6001E000233B603B68012B42D199
:10171000234A234B1B6C43F080531364214A214B13
:101720001B6843F4804313601D4A1D4B9B68936004
:101730001B4A1B4B9B6843F400439360184A184BA9
:101740009B6843F4A0539360154B174A5A60144AA0
:10175000134B1B6843F08073136000BF104B1B6872
:1017600003F00073002BF9D0104B40F205621A60B1
:101770000B4A0B4B9B6823F003039360084A084B0A
:101780009B6843F00203936000BF054B9B6803F026
:101790000C03082BF9D100BF0C37BD4680BC704745
:1017A000003802400070004008544007003C0240EE
:1017B00080B485B000AF78600023FB60344BFB60E1
:1017C0007B689B79002B4FD03149314B1A687B687D
:1017D0001B68DB4313400B602D492D4B5A687B6817
:1017E0001B68DB4313404B607B681B791A46FB6820
:1017F0001344FB60FB68FA6811687A6812680A4350
:101800001A602349224B9A687B681B68DB431340AC
:101810008B601F491E4BDA687B681B68DB431340F3
:10182000CB607B685B79102B0ED11949184B9A68F5
:101830007B681B6813438B601549154BDA687B681E
:101840001B681343CB601DE0114BFB607B685B7929
:101850001A46FB681344FB60FB68FA6811687A68F3
:1018600012680A431A600DE07B681B791A46FB6810
:101870001344FB60FB68FA6811687A681268D24307
:101880000A401A6000BF1437BD4680BC704700BFD5
:10189000003C014080B485B000AF78600023FB734A
:1018A0000023BB600C4B1A687B681340BB600A4B7B
:1018B0005A697B681340002B05D0BB68002B02D00F
:1018C0000123FB7301E00023FB73FB7B18461437F5
:1018D000BD4680BC704700BF003C014080B483B06F
:1018E00000AF7860034A7B68536100BF0C37BD4688
:1018F00080BC7047003C014080B483B000AF78608A
:10190000054A7B6843F0BF6343F40033D36000BFF4
:101910000C37BD4680BC704700ED00E080B485B058
:1019200000AF78600023FB730023BB730F237B732E
:101930007B68DB78002B38D0264BDB68DB4303F475
:10194000E0631B0AFB73FB7BC3F10403BB737A7B6D
:10195000FB7B42FA03F37B737B685B781A46BB7BA5
:1019600002FA03F3FB737B689A787B7B1340DAB24D
:10197000FB7B1343FB73FB7B1B01FB73164A7B68EA
:101980001B781344FA7B83F80023134A7B681B7887
:101990005B09DBB218467B681B7803F01F0301214B
:1019A00001FA03F342F820300FE00B497B681B7803
:1019B0005B09DBB218467B681B7803F01F0301222A
:1019C0009A4000F1200341F8232000BF1437BD46A0
:1019D00080BC704700ED00E000E100E080B485B01D
:1019E00000AF786039600023FB817B681B88FB8136
:1019F0007B68284A934213D07B68274A93420FD0D2
:101A00007B68B3F1804F0BD07B68244A934207D0A8
:101A10007B68234A934203D07B68224A934208D1D1
:101A2000FB8923F07003FB813B685A88FB891343D1
:101A3000FB817B681C4A93420CD07B681B4A934213
:101A400008D0FB8923F44073FB813B681A89FB892A
:101A50001343FB817B68FA891A803B685A687B686C
:101A6000DA623B681A887B681A857B68094A934268
:101A700003D07B68084A934204D13B689B7A9AB2B0
:101A80007B681A867B6801229A8200BF1437BD46A4
:101A900080BC704700000140000401400004004089
:101AA00000080040000C00400010004000140040FE
:101AB00080B483B000AF78600B46FB70FB78002BDE
:101AC00008D07B681B889BB243F001039AB27B6805
:101AD0001A8007E07B681B889BB223F001039AB24F
:101AE0007B681A8000BF0C37BD4680BC704700BFC2
:101AF00080B483B000AF78600B467B8013467B7068
:101B00007B78002B08D07B689B899AB27B88134333
:101B10009AB27B689A8109E07B689B899AB27B883C
:101B2000DB439BB213409AB27B689A8100BF0C37AB
:101B3000BD4680BC704700BF80B485B000AF786000
:101B40000B467B800023FB730023BB8100237B813A
:101B50007B681B8A9AB27B881340BB817B689B8918
:101B60009AB27B8813407B81BB89002B05D07B898F
:101B7000002B02D00123FB7301E00023FB73FB7BEE
:101B800018461437BD4680BC704700BF80B483B090
:101B900000AF78600B467B807B88DB439AB27B6822
:101BA0001A8200BF0C37BD4680BC704780B582B03A
:101BB00000AF0346FB7100BF80210848FEF7D0FB51
:101BC0000346002BF8D0FB799BB219460348FEF779
:101BD000B5FB00BF0837BD4680BD00BF00480040D0
:101BE00080B582B000AF786006E07B685A1C7A60EE
:101BF0001B781846FFF7DAFF7B681B78002BF4D1BF
:101C000000BF0837BD4680BD41540D0A00000000EA
:101C100041542B434D47463D310D0A0041542B435F
:101C20005343413D222B3438373930393938323536
:101C300030220D0A0000000041542B434D47533D14
:101C4000222B3438383838373536363636220D4B75
:101C50005241444E4120414C41524D0D0A0000007A
:101C600041542B434D47533D222B343838383837B5
:101C70003536363636220D414C41524D2049520DF3
:021C80000A0058
:101C82000000000001020304010203040607080920
:101C9200524946464677010057415645666D7420C3
:101CA2001000000001000100803E0000803E0000A4
:101CB200010008004C4953541A000000494E464F97
:101CC200495346540E0000004C61766635372E3774
:101CD200322E313031006461746100770100646535
:101CE20064646F909C9B9C9FA3A1A19D998E817A15
:101CF2006B65646264677273707B8D97989B9B9C23
:101D02009A9CA1A39F99917E6B635F5C5F5E626602
:101D1200779596989A9D9B977D6A6A6568656363D5
:101D2200636466656464849A999D9CA1A3A3A29D41
:101D320099978F796762606062656669778C979917
:101D42009C9F9F9C9D9EA09C998A6E6663605E5D2F
:101D52005E6365769196959598999B928179706A62
:101D6200686767676561626465676C8C9E9FA3A202
:101D7200A1A2A39E99957864636060606466686FAF
:101D82008292979A9A9B9A9C9D9E9E9B97987D651C
:101D9200635D5D5C5D5F666C83969B9E9D9B978E8B
:101DA2007A6D676664656564646465676987999836
:101DB2009B9DA2A2A3A09D9B98907767656161639A
:101DC2006767686F8697989B9C9C9A999B9F9C9942
:101DD2008D817D6A65625F616164697D9195989A82
:101DE2009D9B988A7A706A686867656466696966A5
:101DF200626365869A999B9CA1A3A1A09D99887311
:101E02006A635F5D5E626670889498999B9E9E9DF0
:101E12009997999B9B988D786A6867646260606401
:101E2200697C909698999C9B998F7969666666659C
:101E320063636467646363698B9A999B9C9FA0A2A6
:101E4200A09B988E806F65625F61626768717E8910
:101E520094989D9E9C9A999DA09E98947F6A66658F
:101E620064605F6266738B9497989B9B9891827370
:101E72006A676668696765686E6A6666656D879493
:101E8200959B9EA1A1A2A29F999A8769645F5F61B7
:101E92006265677C95989A9B9C9B9896989A9A996A
:101EA200959591806F6966616060646670829297B1
:101EB2009B9D9B99968D776B686564656667727A60
:101EC20071696766686B83979A9D9DA2A0A2A19D86
:101ED2008E6E6564605D5B5E6173939696999B9D61
:101EE2009D9B99958E8D9594816C656667696664F4
:101EF200646669768A9597999B9C9B989082796E85
:101F020067666667686A686D6F6C6B6A676664733A
:101F1200969D9D9C9EA1A3A19C7C63666664625D66
:101F22005F6478959793949A9A9B9C9B99898A9AD5
:101F3200999B89726A65656463636365779299990F
:101F4200999A9B9A9682706A6767686968696F7DD9
:101F520086806E68686768738F999A9EA0A2A2A213
:101F62009D8F70656562605D5E636B8194979898E2
:101F7200989B9B99979393969797917F766E6A67B2
:101F820061606265677A8F95989B9C9B97866F6963
:101F92006867676769738997969696918B8B7D6D53
:101FA2006766677791989B9D9D9D9D98967D6465D8
:101FB20064666667686B84989A9A96938D8C8E8E07
:101FC2008782889397989A937F736A686865666632
:101FD2006C87969596949698998D766B696A6C6ED5
:101FE20072737985918F82726A67696869676764BB
:101FF20078969DA09D9E9EA09F987363656465627E
:102002006161688B9A98979496979797978C788244
:1020120096979A917D77746B6762606263728F9410
:1020220096999A9C9A957C6A69686766696B6D7BDA
:102032008D929282716F686765656471949A9E9EB3
:102042009FA2A39F9E8364636264626266678197B4
:10205200989C9B9A989897958A7D81909798948955
:102062007B746F67666365676D839396989B9C9993
:1020720096907A6A6966656669738393989898966A
:10208200939285756A6767686A6F72798B979A9B74
:102092009896969898917E6C676A7A888A837E85EC
:1020A2008F948F857A747983909594949799979564
:1020B2008E76696867676567676D84909496969671
:1020C20096938A7B706B6E737574706F7980807A69
:1020D200727075797E7F838077726C6776949A9B33
:1020E20096999CA09F997A676A6E6E6465636C8B01
:1020F20097969697989797989797858397989882A7
:102102006E6C6967676661646781989697989C9C14
:10211200988F77696766666868686C778E98978E1D
:10212200848B91867168696A696B6981999B9B9AB4
:102132009B9B99988D6C66666A6D696B6C879899A2
:102142009995939393928E8884818D9897947C6DC0
:10215200726D69666464656B80929597969897979D
:1021620090796F6B6A6D6A6B6D748996969694948A
:1021720094959182767780858583817F83837C6A3B
:1021820067676C8494959593989A9A99988F7C7ABC
:102192007D716967686B7C8D91918D8D9497979213
:1021A200827E8B9596948675777D7E726666677160
:1021B2007E868688919797969083777173736E69FE
:1021C200676A7784888583858B8F8B837D7C7F800C
:1021D2007F7A716A6967676B8C9B9997979B9E9DC3
:1021E20098886D697875666566698799918688931E
:1021F200939696968E7D849699999386868F8D7402
:102202006664656A747F7D81919998979585776DEB
:1022120069696969686B7D93989895969696917E9F
:102222006F6E788287898A8C9194917D6A68676BD8
:1022320080919696979A9B9C98968673746F68671E
:1022420065676D8394969593919697978976758530
:10225200949590837D7D817E6E6767676B767C7EC9
:10226200828A949495938375757977706A6A758377
:102272008E8C837F828A8A847E7A808C95959592D1
:1022820092918E8A7D6F6A6A6B6967676F8C9A9981
:102292009998999A9C99967765696A6B6967666B52
:1022A2008494958E8387939897968E8C939798971C
:1022B200846D6C6F6B686867677089928F8F959772
:1022C20097969384777776726C6A686E7E8D908922
:1022D20085898F94908780838F969695969695960A
:1022E200908172696A69696767676E7C84807874B5
:1022F20085999A9B9897979A9A978C6C6668696861
:102302006765656A809396929093959797968C826B
:1023120088929386716A6B6F6D69696A6B7B8F9421
:102322009393949594969384766E6C6B6968676BBD
:102332007F9094908F95969696938E8E939696967E
:10234200928E8C8A807269676767686C737B8A95E4
:102352009797968F857F7C818D9596959696979780
:102362009689706768686B6B696C7D92979898968E
:1023720096969596856F697383877D6F69707C7F6A
:10238200766B6870808D94938F9398979688746A11
:10239200676A6E696768728995959595979796961B
:1023A20090857F80827F78716F74797A746E6C6F9A
:1023B20075797E7E808791969693908D8A847569D1
:1023C2006868749098989798999B9B998B6E69729C
:1023D2007971696A6A8297969589828994948874D8
:1023E2006C79919897958B8C9391816C6767676FE5
:1023F200797777859497989892837D7D7B746B68C3
:102402006B7C91959494959494948A7B757A848943
:102412008A89898F93958F82777170706D6B6D74D5
:1024220081909696969597969491857D7B7B7C7804
:10243200706B6A6A6F7F909494949596999898902D
:102442007F76787D7D7368676A7A878A7F73738403
:10245200959695878593969795867A7B7F7D6F660D
:1024620067676B747A7C7B808B95978D807A797E97
:102472007E7A716C74838F948F8C8C8F928B81791E
:10248200767A828A8C8C8D91959691877D7A7E80E0
:102492007E7B7B828A929795919193938E87817DA1
:1024A2008083817D77706A68696B80949798989829
:1024B200999B9999886B676B736E6767667491973E
:1024C20095867B869496938275819397978F7C7974
:1024D200828B7F6A666666707E7D7A7B8A97979723
:1024E2008C7C7A7F8484786E71819396958E858BAD
:1024F2009392887B7579869396918E909395938526
:10250200756C6E7475706D717E8D969794929494BD
:102512009590857C797D7E7F7C797C7F83827C74BB
:102522006B69696F82949797989899999897846C38
:1025320067676868686868718A9796968E899397C4
:10254200958A7A78859296948880838886786A6755
:10255200676A767A7B7E828E969793857B7B818172
:102562007C6F6B7886909695908F94979084787311
:10257200767D838483858B929592867C7B7E7C7725
:1025820075747A858E939492939595948C847F80BA
:1025920083827E7B797A7D7F7B746F6C6A696970D6
:1025A2008496999A9999989A9898876A67676869B8
:1025B20067686875909796969190959693877D7DBA
:1025C200889496948A8180827C6D6868666B787F35
:1025D200858D9396969693857977797A79777880AF
:1025E2008E96979794908D8B857B74737980898F63
:1025F200908F9094918B7F726D6D706F6E727A87EF
:1026020092969695949595928B8681818384848007
:102612007E7D7C7A77706C6C6F7270737677797B63
:10262200849298999A9998979797947A6867666826
:102632006B6D6A6B758D9897979089909696928438
:102642007F8894969282757274736B6767677282E1
:102652008A8F91939595968D7B716F73777B7D7F32
:1026620086929696948B827E7D797474757C88921C
:10267200959594918F8C81766B68696E74797D8360
:102682008D94969695949394928E8B88888B8E8D4A
:102692008884807C7A76716E6E6F767C82868C916D
:1026A2009496918A82776E6D798D96969696969784
:1026B2009797886F68686E767570707D9198979716
:1026C20093888B9191846F686E8090928881868FB7
:1026D2009289796C696F7C82807E818A92959285DB
:1026E20079767A7F80817F869497989796928C8765
:1026F20081796D686A747F868C8E939696948E84A7
:102702007A767879797A7E858C91908D87848480A7
:102712007C7B797B82898E9191908E8B877F78707A
:102722006C6E7073777C818B919395938E8A867E83
:102732007974706C69686B7A8D979697969697966E
:10274200978E76686B7783857D787B8894968F7D6C
:102752006F717D85857F7D85929797958B8282812A
:102762007D7269676A757E8485868A8C8B8A82759A
:1027720070757C828A8D909596979693857A7672FB
:102782006D6A696C7987939796959596948B827802
:1027920074777C7F8384868C8F8C857E777678793C
:1027A2007A7F848C9597969595938F8B8278726EAB
:1027B20070767B8085888B8F91908C8886858485C6
:1027C200858583818385847F797472706E6A696B73
:1027D200738997999B9A9A99999897856C67676775
:1027E200696D6D6D77899696978E818189929187B1
:1027F2007F8391969793847A74736E6A696767721E
:102802008591959596979898968E837D808280790A
:10281200777D8187867E77717075787A7A7E8691E8
:102822009695969696928B84756A6968686F757AA2
:102832008088919595938E8C8A8988817F81828503
:102842008686827E7B7A7A787574767B848C8F9189
:10285200959595949089817C78777676777A7D8341
:10286200868482828381807E7D7F82868A8F908E1B
:102872008C89867F766D6969686D7E909696979849
:1028820098999895826D696D76777372778695952A
:10289200968B7E7C808586807D828F969797968D9B
:1028A20085817E766B68676A77848E8E8D93949528
:1028B200958C807A7D82868687878B9294908578A4
:1028C20072727375757276859396979796959390B3
:1028D200887E7570747A7F8485878B8F8F8E8A82CB
:1028E2007F80848587898A8E91938F867E7977749B
:1028F200727171767C85909595959494928C847D75
:1029020079797A7D7F7E80838686847E7B79787AE8
:102912007D8083878A909496938B8783807C76735D
:102922007173777C7E7D7C7A7A7875767D8C9596CC
:10293200969798989797917D6D6A6D6D696868739F
:10294200848F93908D8C8D8D8D8C8885868C9596B9
:1029520093867D7B79756D6868696F7A81858D93C1
:10296200969797979288858485837E7C7D808486DE
:1029720081797171767A7C7E82868E95979796950B
:10298200928F8A837C746F6F757C7F808183888A43
:102992008A888685878D909190919191908D88817A
:1029A2007C7B7A78737274787D8285888A8B8D8D30
:1029B2008C8B89888888898B8885848687858380A3
:1029C2007D7E7F81838284878A8C8D8D8B898787A8
:1029D2008886817C7B7E808081807D7F80817F7CF8
:1029E2007B7B797877777A818D959697979797966B
:1029F200968F7C6F6C7378757270767F898C878105
:102A02007D7F858A8F919190939695948A7C73733A
:102A1200736D6A696A727C848A8D8E8E8E919190B2
:102A22008D86898F9395928B8683807A706A696A84
:102A32006F757A81868C9194959695908886888810
:102A420086817F7F8283807A767474767A7D8186AE
:102A52008B90949595938E8B8A8A898581808182C9
:102A6200827F7C787677777777797E858B8D8E8C6F
:102A72008D8D8B87827E7D7F8387878887898A89F0
:102A820087837F7D7E80848687888A8F93928D87D5
:102A920083807F807F7E7E8185898B8A8783808009
:102AA20080807D7B7B7C8083838181858D959696DA
:102AB20095959595958E857F7C7E807F7F7E8082A1
:102AC20084858582807F8083878989888A8E8F8D9D
:102AD20088827E7A797A79787A7D8286888A8886EF
:102AE200858688878686898B8F91908E8A87848156
:102AF2007E7A79787B7F81838586868687878481C3
:102B02008183868888898B8C8E8F8D8A85827F7F50
:102B12008182808285878A8A87868382808181807A
:102B2200808082858685838282807E7E8082818289
:102B32008688898886878A8A888788888987868519
:102B4200838181828282828384848586858683834F
:102B5200817F817F7F7F7F81818485868683848553
:102B62008685807D7D80828384838585868583803A
:102B72007C7B7D80868A909596959595928B8380B5
:102B82007E7D7D7D7F8183858583817E7B7A7B7E51
:102B92008185888C909393938E89868382807F80AF
:102BA200828385868684827F7D7C7E7F8083868AFF
:102BB2008D8E8E8D8C8A88868482828182848484A2
:102BC20084838382828081828182848685868789CA
:102BD2008A8A8B8A8A898989888686868686868673
:102BE200888785838282828281807F7F81828688B4
:102BF200898886898A8A89888888898A8A8B8A8745
:102C02008684868685838182828484858583828187
:102C1200828482807F7F8183848282818183838395
:102C2200807E7D7E81807F7E807F8082838584849A
:102C32008586878584817F807E7F80807E7E7F827D
:102C420086888B8E9092909293918C8987878789C0
:102C5200888988868683817F7F7E7E7F8082848644
:102C62008686848485858584848687878888898802
:102C7200838382818181807F7F8182838283848337
:102C82008282808080818180818183828080808134
:102C920082838384868485858585838382848586F1
:102CA200888888878587898C8B8A8A8B8F918F8D7C
:102CB2008A8888898A8C8C8B88878687898A888685
:102CC20086868989888582807F7F818281828180D0
:102CD20083858686858485848586858380807E7DBE
:102CE2007D7D7C7C7D7C7C7D7D7D7F8182838382FA
:102CF200818286888989868688898B8C8E8D8C8B49
:102D0200898A898787858486888B8D8B85817F8256
:102D120082838484838383868A898683818283866D
:102D2200898B8A8888878788878583818183848540
:102D3200868582807F7E8082838382828386868666
:102D420085858688888A8B8A888682807F7E7E7D3A
:102D52007E7F7E7C7C7D7C7B7A78797978787B7DBE
:102D62008183858483838383868687898A8B8E8DFC
:102D72008F8E8A898687878888898A8887868584CC
:102D820085848485858788878785838383838587F0
:102D92008889898A898887868586898B8D8D8C8AA0
:102DA2008885848486858687878483827F7E7D7DED
:102DB2007F8081817F7E7F807E7D7D7F8082838315
:102DC20084848282838484858585868584848282C4
:102DD20083848585858585848382838586888788A3
:102DE2008787858585868888898A89898988888967
:102DF2008A8B8B8B8B8A8988878788888889888742
:102E0200878686858586858686858584848484846E
:102E12008484828283828283828382828381828289
:102E22008382828383838282828282838484848473
:102E32008484848584848585858586858485848546
:102E4200858584848484838383838382838382824B
:102E5200828382828283838383848384858585853A
:102E6200858485858687868684858585858585860C
:102E720086858484858585868686868686878686F7
:102E820086868686868686868686858585848585E7
:102E920085848484838384838383838282838283FD
:102EA2008282828182818182828282828282828302
:102EB20083848484848485858586868687868686BF
:102EC20086868686868686868686868585858586A4
:102ED2008686868686858585858585868585878598
:102EE2008585858586868687878686868686858584
:102EF200858685868585858585858585858585857E
:102F02008586868686878686868686868788888759
:102F12008786878787878787878786868686868547
:102F2200858686858585868585858584858585854D
:102F32008584838584848484848484848483828352
:102F4200828381828383838282828282828282825C
:102F5200838383838382828383848484848484843A
:102F6200838484848585858484848484848485841C
:102F72008685848583858385858585858584848406
:102F820084848585858585858484848484858485F7
:102F920085848483838383838383838484838383F9
:102FA20083838383838383838383838383838483EE
:102FB20083838384838384848483848484848485D4
:102FC20085858484848585848585858584848584B6
:102FD2008585858586868585868585868686868697
:102FE2008686858686868585868686878685868583
:102FF2008686868786868786868686868787878769
:103002008686868686868685848585858585858568
:103012008585858585858585858484858484848464
:10302200848484848484848484848484848484845E
:103032008585848484858585858585858585858541
:10304200858585858585858585858585858485852F
:10305200858585858585858585858585858584851F
:103062008586858483838485858584848485858516
:10307200848384858584848484848484848484840D
:1030820084848484848585858585858585868687EF
:1030920085858685848586868685858686868585D8
:1030A20086868686868585858585858584848385CD
:1030B20088888783818185868886828282858786C1
:1030C20084828385858585848383828384858383C3
:1030D20086868583838385848286888684848586A2
:1030E2008683838484858686858384858585868494
:1030F2008484838385868484848485868685848487
:103102008486858383848685858583848078779089
:10311200A8A6A499896C5D5B6070828EA3A7A6A6FF
:10312200A7977768645E59595B61747E79665959CD
:1031320058585858575A568DABA4A8A6A7A7A5A861
:1031420074545B575A596F99AAA4AB936D6B7A75F5
:103152005C566CA4A7A7A7A89D755C585959575AE5
:103162005674A6A6A6A7A6A7A4A890615A6997A86E
:10317200A5A7A29A876C636361798D97A1A1A2A288
:10318200A2856E5E575A595C5C585A665E5B5A5B02
:10319200595C557CAAA3A6A5A3A4A2AA86555A5EE9
:1031A200615A6786A4A4A29F867E93866759629F0E
:1031B200A6A3A1A6A2A685565A585E5D595B95ABF9
:1031C200A2A4A5A6A6A6926D6072989D9C9D9FA0A2
:1031D200867265615D617D919C9FA5A3A982636DE5
:1031E200595C5C5D5958585A5958595C97A8A5A41E
:1031F200A4A6A8A1A889565F585B5B5A5E94A594C1
:103202007B88A5A284676B7EA5A3A2A7A79B946CCB
:10321200555D5B595A5A618FA8A3A6A39DA6A3AB7D
:103222008E838972949F9691845D676D636D6D5FE5
:10323200618AA3A4A6956F5B5D5C5D605A59575A7B
:10324200567FA7A4A5A6A7A7A6A69F6158585C6506
:10325200705B74A8A68E615770A488627DA1A8A233
:10326200A5A69C8875665D575B596C6068A1A6A788
:103272009D99A5A2A5A5A29395A8A5A6776F776803
:103282006C595A6C7A7177868F8C6B635B5C5D5C70
:103292005958585A6095A7A0A7A7A5A8A5AB8054CE
:1032A2005E56667A5D6895A4A79E795D848079747E
:1032B20075A4A4A7A7A7A692635959575C5C5D5F42
:1032C20085A3A89E9FA8A7A4A09F7392A3A19D8A4D
:1032D2008475735D5E6066615C706E947B62735C24
:1032E2005D5A5A595A567A9EA3A6A7A5A99DA7899F
:1032F20058605D5B5B5681A4A1A6925F679A887C49
:103302005D66A5A0A2A6A7A0755A595959625E5B2F
:103312005B8AACA2AA8D82A3A4A99B6A6FA0A5A670
:10332200A0727270645968776A62566F86856A5AAB
:103332005C595F585959649CA6A2A4A5A4A5A88F5C
:10334200695E5B56637290AAA3A6967E76808171AF
:103352005769A4A2A2A6A6A5A07F605B5A5C575B90
:10336200598FABA4A696A8A5A5867A8A7B98A4A70E
:103372009E97778272545F595E65595F625769679B
:103382005B585A5578AAA3A3A0A5A8A5A66E575D17
:103392005A5A5C5576A7A5A7A68C6C807D6B6E7475
:1033A200A1A3A2A7A3A69D60575B5B5A585C5D9040
:1033B200A8A2A8A5A7A1A1A38F646B83929C9DA498
:1033C2009A89645859767B605B5C5A5B5B5A585D9C
:1033D2005782A7A0A8A4A5A5A5A56A595F585958C0
:1033E2005989ACA0A4A0A2919D7F5D5871A8A5A601
:1033F200A4A5A1A474575A585E5D586399A6A6A5C0
:10340200A4A9A4A69B6258608B9B8E987C888A6A2A
:103412007C63595B5E595C605A5C5B5679A6A6A3D5
:10342200A5A4A1A3A7945D5D5C5D5C56639BA7A563
:10343200A28C969A9E6E53679CA9A3A7A3A898757F
:103442006D5B575A575B5681A6A4A7A6A5A7A1A351
:1034520093566A807F776E84969A7C5B5F5A585A3D
:10346200605A5B595F59659FA2A4A3A5A8A4A4A012
:103472006F5C595A58655C77A89DAB828D967174C2
:103482006F779AA6A4A7A4A5A291675D575D625C17
:103492005974A2A2A5A8A4A2A2A996667E62848C4F
:1034A200748A6D5570655E72595C5B5A595A5A62DC
:1034B2009CA5A3A5A3A9A3A6945B5B5D5B5F5764D0
:1034C20096A5A79C878099996B5964A0A5A6A5A6E5
:1034D200A1AA8A565C595959576192A7A6A7A6A5CF
:1034E200A3A7A17D71687B91796D686B70685B574A
:1034F2006765585B575959639BA7A0A6A5A4A1AAC3
:103502008D5A5F5A5A575A5E85A2A2A3A1A8A084D7
:103512005F60769BA59FA6A4A89D7F6657585957C2
:103522005C578DAAA2A8A3A6A7A4A88B635E5D8AF6
:103532008D7D705A5C5F605D5D5858585D5A8DA7ED
:10354200A4A6A6A7A6A3A98D585B575A595A5F8D60
:103552009E9EA595A4A57F786481AB9EA6A6A6A6ED
:103562009569605B58595B5775A5A6A7A3A2A1A34D
:10357200A5A67A6E7B6B8770596F6357615C5C5C42
:103582005A57605985A5A2A8A6A7A5A6A98F605AD1
:103592005A5B585D5687A48F9BA0A08684867C9137
:1035A200A6A5A5A6A6A3996D565C575A59728285FF
:1035B200A2A5A5A5A09D9C947880735D6464716E9C
:1035C2005B58595B595B595A5D93AAA3A7A6A59F5D
:1035D200A899655B5B565D596C7F9988679187995D
:1035E2008B77758AAAA0A5A4A6A69568585B5C5B92
:1035F200596078809EA7A5A3A8A29C9C72816E5B4D
:103602007F645F615965625B575E5777A6A0A5A28A
:10361200A6A8A4A5A167595D58585E5C7A7A7980FC
:1036220087767490697D8F9BA9A5A99F9FA4705DE1
:103632005C5759595F5A91A5A3A9A6A5A4A2A28233
:10364200696368635A645F585A595A5D596499A804
:10365200A4A7A6A3A6A5A68859595B5E5E5B7F8137
:10366200738664748B5F726A79ABA3A7A3A6A4A8BE
:103672008F5B58595B5A5B598AA6A3A9A5A3A5A536
:10368200958B6F5A5B6870675E58585A5B595861E0
:103692009AA7A3A7A7A5A4A5A16B585D58596862CC
:1036A2006A7B727476627B76567BA1A7A5A5A5A1DB
:1036B200A79F8269585A575A5775A0A3A5A4A5A7D0
:1036C2009F97A19469585B6D7D6759585958595C09
:1036D200608AA1A6A3A4A8A7A6A07D61645C585A8B
:1036E200566E817993725F5D6F85708C9BA2A5A3E4
:1036F200A6A89F805E696B58575B5873A3A1A5A8C3
:10370200A09EA59F91735A5A65736D5B58585D5977
:103712005958629DA5A3A3A3A7A8A6A975555C594C
:10372200576D67628A6B6C928067605F6290A9A432
:10373200A7A4A6A1A598645A5A5A585C5586A7A46C
:10374200A7A1A69CA79589745B595F70605C5A59C2
:103752005B60615277A3A3A7A5A6A6A2A4987261F3
:1037620059595A59827B5E788675807A596E779458
:10377200ABA2A8A5A7A3A371585F59575958679F31
:10378200A4A4A7A6A6A5A2816C68596469635B5B21
:103792005C585B595C5891ABA1A8A4A6A4A5A677D6
:1037A2005A5E5B5A5A6B7E7969708C876B5D627D5B
:1037B200A1A7A6A5A3A6A4A48D5E5C5B5A59585FD7
:1037C20083A5A5A3A1A3A7A3817D7A5E6A5F575CA7
:1037D20059595958595F598BA9A0A7A6A6A3A5A1C3
:1037E200656B6956615564877A6975856E6762682B
:1037F20088A0A7A5A6A6A6A1A7865B5D5B5B595B71
:10380200586FA2A8A5A6A29FA29E83726E5A595B68
:10381200595E5A5B585A585F99A9A6A7A5A6A1A4B2
:10382200A588645B5A5A5C76825F566A97865864AA
:103832006785A3A4A8A7A5A2A4AA87595C5A5A5B24
:103842005E556A9CA3A6A5A697A49B9482575D5732
:103852005D6059585B595D5A5F97A7A3A7A5A5A3B9
:10386200A2A57F5A5A5A5A5B60777F5D6D82847532
:103872005D6B749BA7A2A5A3A7A4A4A37C59605ABD
:10388200595765628FA9A2A7A5A5A7A184656860FB
:10389200565B5F5B5A595D595B5776A3A1A5A6A5F6
:1038A200A1A69F7B6E6A5B5A5A5A87795D678F9C85
:1038B20066576794A9A2A0A6A5A6A6A997635B5A74
:1038C2005858595B77A2A3A7A3A3A7A4A68B615AB2
:1038D200586370605A595C58585C5A8EA9A3A5A2C5
:1038E200A7A4A5A36F565B5A575B616D675778977C
:1038F2009C6C526B9BA5A5A6A3A4A7A5A8905B5CF4
:103902005E585C5B585E94A8A4A7A49DA3A7988563
:1039120063595D5C585B5F595A575B5989AAA4A8E1
:10392200A6A6A4A4A6715C5F575B57688A6E6868F6
:1039320085875B626C959E98A8A3A6A1A59F9A7C99
:10394200565B5B5B585A5B8CA6A2A99FA3A4A0728C
:1039520073857861585D5C5B5959575F5869A4A5B6
:10396200A7A5A3A6A4A89569585C5E575F93885E35
:103972005A6F9371585E90A7A2A6A4A6A2A7A1AA65
:1039820087575A575B5B5E578DA9A3A79DA6A5A72C
:10399200A198745960576364585A5C5D595B598F9A
:1039A200ABA4A4A0A4A3A8975F5A5C595C566B82EF
:1039B2006868687877595F719FA3A0A7A6A3A6A697
:1039C200987D5A5F5B5A595C5A6DA3A6A5A1A0A720
:1039D200A6A99488815D5C5D625A5A595B5C5F530B
:1039E20071A7A5A7A4A4A8A5A36B59685D5B5B6199
:1039F2009A915C62667F725B5C7DA3A1A5A6A6A775
:103A0200A7A79D836057615C5C5A719CA5A19BA688
:103A1200A3A0A6A19A9A6960645E60575E5B5B5A36
:103A2200585B92A7A3A8A4A7A4A794695A685F5950
:103A3200596E83656C726C5B5859689CA7A6A7A5E2
:103A4200A3A5A4A29D6C5A5B605D58585C8FA69F8B
:103A5200969DA3A3A4A2A39D7B666A695C5A5B5848
:103A620059575D5879A8A3A4A3A7A5A1A78F7168E8
:103A72005A5D5778A779565E5B695E586183A5A146
:103A8200A5A3A4A6A8A5A78A5B5A5A585A5A5D6349
:103A920075898C9AA3A49CA7A6A6A279615D63648A
:103AA2005759595A5E5C5A90AAA5A79DA4A7A89FE8
:103AB200798F785D5B70A0A57C555C5C5F5B606311
:103AC2007F9FA3A4A3A6A7A7A6A69E806C635D570B
:103AD2005C5864695C707F9CA6A7A19EA69C8F7EA1
:103AE200715F585B5A5A575D5F578DABA0A1A4A86E
:103AF200A6A7A39392806F6B8BA6A26F535D5C61A6
:103B0200595A566499A7A7A6A6A4A5A4A5A4A6A394
:103B12008060565F6B6B5D5B5B6CA1A8A3A4A59FE5
:103B22008F80848D6D575F615A5A5A595C8CA8A454
:103B3200A9A4A8A4A892748B939090A1A6A8815C32
:103B42005C5A5A5C5A5E7E94A1A5A8A4A5A7A8A215
:103B5200A0A3A6A799796766595B5A60779BA19142
:103B62009CA2A59E7D828D6C5E5E585D5C585B5604
:103B720076A3A4A7A7A7A4A29D736D7B90A6A6A4D3
:103B8200A7A065575B595D5958638CA4A3A5A7A646
:103B9200A58E96A1A1A5A6A6A374585F69686356CF
:103BA20068959E9B8C85806F667589846D615D5971
:103BB2005A5A5B546CA6A6A7A3A0A4A4A9795963D8
:103BC2007BA3A4A3A3A872585D565C5B5D57699A58
:103BD200A6A6A89E676DA4A3A6A7A4A3A5A58D7A51
:103BE20069575A5785A4A39370605D6667666C76C1
:103BF200675B5B5A59575C5B6DA4A6A59E9DA7A403
:103C0200AA7C5C5C80A4A0A6A1A885595C575A58DE
:103C12005C59689FA4A5A1775B68909DA5A8A7A7FA
:103C22009FA49D8D73676B7093A6A388635F64687E
:103C3200625C5F5F6767625D5A5B575A5785ABA2EA
:103C4200A99D9FA5A59E6A5675A4A2A3A5A3A1801E
:103C52006D675A59575B6C95A5A78E5D595876A02A
:103C6200A6A5A5A7A6A6A59F938E8E9BA3A4A5A74E
:103C7200987868615B5F656667655E5B5A575A58FC
:103C82005A5774A6A4A8968A9DA4A4896384A7A55A
:103C9200A4A7A4A1906F635F5B595E6C8CA18E6335
:103CA200565A57596481A2A6A7A6A3A7A69C8F9E7F
:103CB200A6A5A7A5A3A48E7A8489826C6168776A77
:103CC2005C5858585B5D5C585E98A7A7936E7794D2
:103CD200A0927D9DA9A5A8A2A1A69E7F74766B6CD9
:103CE200728CA4A2735659575A5C5E66849C9CA33C
:103CF200A8988782859EA7A6A3A6A7A6A1989C9E00
:103D02009791938E7B62595B575B5A5A5B5C5674F0
:103D1200A0A683595C6D969C848EA9A2A6A5A4A494
:103D2200A8A49BA3A29591A0A7A89C665859575AEC
:103D32005A5F636A77878D86726766739CA7A6A7A8
:103D4200A6A6A5A5A6A7A4A2A1A6A7A179585A5935
:103D520058585A5C5D5A5E8E9966595A5A768C76D4
:103D6200739DA6A6A8A7A7A7A7A2A2A5A4A5A6A732
:103D7200A3A89365595A595959626D73767061595E
:103D82005A5A5F82A4A5A6A6A5A5A7A6A7A7A7A6D5
:103D9200A6A3A08C6B5D5959585A5B5B5965978DE8
:103DA2005E595859666D66618CA8A5A8A4A6A7A6F7
:103DB200A5A6A6A6A5A6A7A6A6A57B5B5A59616835
:103DC2006A6A686A68605C5A585B6D92A4A3A6A787
:103DD200A5A5A6A7A6A6A5A6A6A899745D575A59F1
:103DE200595C5A5D7A9371585A575A5D5D5B659476
:103DF200A8A6A7A6A5A5A4A2A7A5A5A7A7A5A7A764
:103E0200A57C61616675787B7975736B615A595AC5
:103E12005D6E8CA0A5A7A69E9DA0A1A6A7A6A6A7FB
:103E2200A58E695A575A5C5A595C70958E61575AD9
:103E3200585C5B5A5A76A3A6A7A4A5A5A2A3A5A4DB
:103E4200A6A6A5A6A8A6A89B77656477847E7E828F
:103E52007E73655C59595B5F789CA6A6A297979D75
:103E6200A2A3A5A6A6A6A699735E59595A5A5A594B
:103E720068908F625759595A595A5972A1A8A6A7E0
:103E8200A5A6A59AA0A6A4A5A6A7A7A7A7A17F684D
:103E92006C7A838488847B6E625D5B585D637897FD
:103EA200A1A49D96979EA3A3A3A6A6A5A896705F7C
:103EB2005A585958595B7D987A5D585A5A5A5859E6
:103EC2006084A6A6A7A7A6A7A6A0A5A6A7A6A5A7FB
:103ED200A6A6A8A17F71777F808185867F6F625EAB
:103EE2005A585B627A96A2A19895979CA1A1A1A526
:103EF200A6A3A8916B5B58595858596589926F5976
:103F020058595859575A6081A7A6A7A7A5A7A09C98
:103F1200A6A6A6A6A7A7A5A2A6A182787A7F7F8138
:103F22008C887D6D625E5C595C647D969C979396ED
:103F3200979B9EA0A0A5A7A6A184675C5859585933
:103F42005A678681675C5B5B585A585C5F82A8A699
:103F5200A7A5A6A6A3A2A5A6A6A6A7A7A5A5A7A20A
:103F620087827F7C7A8290887B6F67635E595C660A
:103F720080909799979997969CA5A5A5A6A7A284A4
:103F8200665A595A5859596E85705C5C5D59595830
:103F9200585A5B7FA7A5A7A5A6A6A5A4A5A7A6A6CE
:103FA200A6A7A7A5A5A28F868078707A8A857B7638
:103FB2006F685F585A68808F91969DA3A09A9EA1C0
:103FC2009EA0A0A2997963595959585A5B7C79628B
:103FD2005D6163595A58595D6C9AA8A4A7A6A6A612
:103FE200A3A3A19BA5A7A7A7A4A4A58C6A606067A9
:103FF2006F746F76898B79635A5B5F759BA5A4A5F5
:10400200A6A7A4A7A49C9DA19E8A6E5C59595E5A3C
:1040120058575C94AB956F718D86605B5787A9A5E5
:10402200A7A4A8A4A6797094765D5A8AAAA5A278B4
:10403200615A585958638FA2A4A7A6A6A58D869C3B
:10404200A7A4A3A7A5A6A59F977A6461707A6C5FBF
:104052005A585A595A575A586AA0A5A6A6A7A6A3AB
:104062009F6C7EA8A4A8A5A7A6A368565C575B5A16
:104072005C598BA8937861585A5780A9A4A8A6A620
:10408200A3A5A16F5A5D6D9CA7A69B6F5A5A595A58
:10409200616C787B71645A5C5B5B585B558BA9A33E
:1040A200A8A3A8A3A87D595882A8A2AAA2AD8B56FC
:1040B2005B575A585D5A86A6A5A4A68B615B6CA273
:1040C200A8A5A6A6A6A587625B59595F8EA8A5A634
:1040D200805F5A5C6A7D93A0A18F695A5A585A5AD6
:1040E2005A578FABA5A8A4A8A4A87D596294ABA4E3
:1040F200A9A2AA7E565B565B585A587BA4A7A6A7CC
:104102008E697396A6A6A7A7A6A88F685E595B5963
:104112005C90A7A29475686468768A97998B6D5DA6
:104122005958595D5B5993AAA5A8A5A7A5A271588C
:104132005B6B9EA7A6A2A77E565D595B575A5D8F01
:10414200A7A5A5A89C6C6186A8A5A5A6A4A7886317
:104152005B5959585C8FAAA3A79E877B808D939643
:10416200938E785F5D57595A5A5A609CA8A6A7A4A5
:10417200A7A49E71607896A5A7A5A79D61585858D7
:104182005959586BA0A8A6A4A6A0808DA5A7A6A839
:10419200A5A98F625A585A5958699FA8A6A4A496ED
:1041A20086959E948274665B5D5B595A59595C95FB
:1041B200A9A2A8A5A8A5A898797A7C98A7A5A9A03C
:1041C20063555A595C585A5C8AA8A3A6A6A8A4A00B
:1041D200A5A6A5A8A6A784635E58595A596294A8B1
:1041E200A5A7A5A79C9FA18D76635C5A59595958DA
:1041F200575B588FABA4A6A5A8A4A7A489816D7507
:10420200A1A6A9995E575A595A595A5C86A7A3A7DB
:10421200A6A7A6A6A6A6A8A6A78C63595759585B17
:1042220058689BA8A5A6A7A5A6A6A69B775D5859E0
:10423200595A5959575B5581ABA5A8A5A7A6A6A758
:104242009D947A61709AAA975F575A5858585A5B48
:1042520081A7A5A6A7A5A4A5A6A5A79A8A6E59591E
:10426200575B5A5A57699FA8A6A6A6A6A6A5A69BBB
:10427200745A5858595B5959575E5586ACA3A9A52B
:10428200A7A6A7A6A79C6F5D5D80A9855C58585913
:10429200585858618CA7A6A6A6A7A6A7A5A79B793A
:1042A200645A58595959575B5B7DA5A6A7A5A6A57F
:1042B200A5A7A18967595A585B585B595A556CA5ED
:1042C200A6A5A6A6A7A6A7A5A98E5D5B5D878F62F8
:1042D2005A58585A585A5C8AAAA5A6A6A7A5A4A4B1
:1042E200A8A07C61595859595B575D5F76A2A7A671
:1042F200A5A6A6A5A6A1977D5E5859595B585A5600
:104302005B5576A8A5A7A3A7A6A7A7A49170565AFE
:10431200566F795C5A58595858576598A9A6A7A755
:10432200A7A6A7A6A4795A59585A585A595E6E7D1B
:104332009CA8A4A6A6A6A7A7A18971615A595759F4
:10434200585A585B5570A8A6A7A5A7A6A6A7A693D4
:10435200725959585D665B5959595958586395A90C
:10436200A6A6A6A7A6A7A6A373575A58595858583F
:104372005E7595A6A7A7A7A6A6A6A7A38B6D5E584E
:1043820058595A5759575A5767A3A6A4A6A7A7A779
:10439200A6A686635A585959605C585B58595A59AF
:1043A200608EA9A5A8A6A7A7A7A79F6B565957597C
:1043B200595A586381A1A8A7A6A6A7A6A7A6A68E02
:1043C2006A5B5958595B585A575A5569A6A6A6A707
:1043D200A7A6A6A5A67D5C59585B595E5B585B589B
:1043E2005D5F5C628EA9A3A7A7A6A5A6A79D695635
:1043F2005A5859585A5A6B87A1A8A7A7A7A6A6A682
:10440200A6A591705B5858585959595959575F9CEC
:10441200A8A6A8A7A7A7A6A77B575A5759585B5C77
:10442200595959646A626081A5A4A7A6A7A6A4A83F
:104432009B63585A585858595D819FA6A6A7A7A6AC
:10444200A7A7A7A7A38F715B58595959585B575A09
:104452005764A0A7A6A7A6A6A7A3A679575A585BF2
:10446200585B5C59595A6E7F716B84A5A6A7A6A6A4
:10447200A5A3A9956457595A595A5A628EA5A6A658
:10448200A6A7A6A7A7A6A697826D5A5B5B585959FD
:1044920059595A585F9AA8A5A6A6A6A6A5A87A55BC
:1044A2005B585B575B5D59585E7B8D7C6A7DA3A729
:1044B200A6A7A6A7A4AA925D59585A595958699D08
:1044C200A7A6A5A3A7A6A6A5A6A59D8C755D585AC5
:1044D20059595859595A595D98A6A5A7A6A7A5A4EE
:1044E200A77A545B585B5A5A5D5A5863819081711E
:1044F20083A5A6A4A6A5A8A5A98D5B5A585A585B60
:10450200576AA0A8A6A7A6A7A6A7A5A49E8E867747
:10451200605A5A5B595A585A585B557FABA4A7A6A2
:10452200A7A7A4AB87555B595A5B5A5D615C698941
:10453200A0967B708CA6A3A7A6A7A6A7A16D565B83
:104542005A5958595C91A9A4A7A5A6A5A6A6A6A49E
:104552009886746359595A58595859585A585F9AF3
:10456200A7A5A7A4A8A6A5A56B565B575A585A603B
:10457200616280A2A5967E7F9AA7A6A8A6A6A3A9F5
:104582008E5A5A5A59585A57699EA8A6A7A7A7A63B
:10459200A7A6A79D836F655C5859595958585A5711
:1045A2005B5577A9A5A7A7A6A9A3A88F595A5759BA
:1045B2005A585C615F6F98A6A58E7E91A6A6A6A6A4
:1045C200A4A6A6A16E585C575A585B5785A8A5A702
:1045D200A5A7A6A7A7A6A4947E6C5F5A58595958B6
:1045E20058585A585D5889AAA4A8A6A7A6A3AA7F74
:1045F200555C575A59585B626181A5A6A591849B67
:10460200A8A6A7A6A7A3A89161595859595A5761B4
:1046120099A8A5A7A6A7A6A6A7A49586776E635B69
:1046220059595A5959585A565C5674A8A4A7A7A65C
:10463200A7A4AB8A575B58595A586071748CA7A3C8
:10464200A792787D9BA8A5A7A5A8A6A575555B5896
:1046520059565A5686A9A3A9A6A7A5A7A6A79F8277
:104662006A615D5A58595959585858585A5B94A911
:10467200A4A8A6A7A7A5A975545B565A5A595D6462
:104682006B91A7A5A693828EA4A5A7A7A5A5A89876
:1046920065595A58585958639DA6A4A7A5A7A6A715
:1046A200A4A79C7C68615B58585859585858595867
:1046B2005B588DAAA5A9A5A4A7A4A97B565B5759A7
:1046C200575960656D96A9A5A695808DA5A6A6A544
:1046D200A6A6A89D6558595A595959619BA9A6A7DA
:1046E200A5A6A6A6A6A792786A615C5A58585858F9
:1046F2005759585C59619EA8A6A7A6A8A6A7A06666
:10470200565A575A58596263709CA8A5A490839729
:10471200A8A6A8A5A5A5A7855A5C585A575B5574A3
:10472200A8A6A8A6A6A7A7A5A7A3876E675F58589D
:1047320058595859595A585C5470A6A5A7A7A6A704
:10474200A5A9945C59585958585B626080A7A5A7DF
:10475200A08C859CA9A4A7A5A6A4A578575C575AA6
:10476200575A5688ABA4A8A5A7A5A7A6A6977B6863
:10477200645E5858585859595A585B5663A1A8A5AF
:10478200A7A5A6A7A6A46A545B585A595B6160689C
:1047920094A7A6A2918B95A8A5A6A6A8A5A9895972
:1047A2005A585A575A5670A5A7A7A4A7A6A5A6A8AD
:1047B200A0836E65625A58595858595959575B55D2
:1047C2008CACA4A8A6A6A7A4AA7F555B575B595A8E
:1047D2005E62638AA6A7A4918991A4A7A7A5A7A6AA
:1047E200A89A64575858595959639BA8A6A7A5A7D0
:1047F200A5A6A6A7977B6B635C585859585A595976
:10480200575B5571A7A5A7A7A5A6A4A99A5F585853
:10481200585959595F5F76A0A6A79F92919DA8A665
:10482200A7A6A6A4A7835A59575A575B5679A9A691
:10483200A7A5A8A5A6A6A7A4856C655F5958595A2D
:1048420059585958595C5A93AAA4A7A5A5A7A4AA2E
:1048520078555B585A58595D626895A8A6A5948BFD
:104862008B9FA8A6A7A7A5A69D675759585859591F
:10487200609AA8A4A8A6A7A6A7A5A895776A625D2C
:10488200595959585B585A585957609DA8A5A7A617
:10489200A6A5A6A266565B57595A5A6063769FA789
:1048A200A7A492898DA3A7A6A7A8A4A795605858E4
:1048B20059585A566CA4A6A5A6A7A7A7A6A5A48E22
:1048C2007465605B5A59595959585A595A5860A0D7
:1048D200A7A3A7A6A7A5A6A266565A5758595A61D2
:1048E2006785A6A6A8A5918589A1A6A6A6A7A5A81B
:1048F200955F5A5859585A566CA4A5A7A7A7A7A7B7
:10490200A6A7A38C71645F5A5958595859595958D6
:1049120058595C98A9A4A7A6A7A7A7A46B555B5949
:104922005A58595F6786A6A5A7A79482839BA8A514
:10493200A6A7A6A89B6358585A595957639EA7A67B
:10494200A6A3A6A7A6A6A2866862615A5859585A73
:104952005959595A595C5789A9A4A7A4A7A6A5A72A
:1049620072555A585A59585F6D87A5A6A6A89C84B5
:104972007F94A7A5A7A6A6A7A16C575A585859591C
:104982005F98A9A5A8A6A6A6A6A7A3896C63605A44
:10499200585858585859575A575C546DA6A5A7A746
:1049A200A6A8A4AA87565B575958585B73849EA839
:1049B200A5A7A1867D88A0A7A6A6A6A5A987595BBB
:1049C200585A585C557CAAA4A8A6A7A7A6A6A6933F
:1049D2007361605D59585858585858585858595921
:1049E20091A8A5A8A5A8A5A4A167565B585958588F
:1049F200688199A8A7A6A8907A7B8EA8A5A6A6A743
:104A0200A7A16A575958585A57619CA8A5A7A7A7A2
:104A1200A6A5A69B7962605F5B59595859595A59A4
:104A22005A575B556DA5A5A6A6A5A8A2AB8B555B4B
:104A3200595958575E758DA4A8A6A8A083787B9C67
:104A4200A7A6A7A7A6A78D5C595859575C5579A95F
:104A5200A4A8A7A6A6A6A6A4886A605F5C5958580F
:104A62005859585B5A59575A578BABA3A7A4A6A6B5
:104A7200A4A76D555C58595858657E98A8A7A6A852
:104A8200947C7887A6A6A6A6A6A5A27156595859BF
:104A920058595D97A9A4A8A6A7A7A5A69C7A635E64
:104AA2005E5A595958595859595A585A5664A1A7D1
:104AB200A5A8A4A8A2AA925859585858595B718C13
:104AC200A3A7A5A7A48978738DA8A6A7A7A6A89728
:104AD20061585859575A556EA5A5A6A6A6A6A6A6C8
:104AE200A58C6C5E5C5B5A5A5A5958595958595997
:104AF2005C558BABA3A9A5A7A5A5A76D565B575976
:104B02005858667F96A6A6A6A8987B7481A4A7A7E4
:104B1200A7A7A6A777565A585958595B96A9A5A888
:104B2200A6A6A6A7A89876625D5D5B595959595801
:104B320059585B585C5376A8A4A7A6A5A8A3AB8531
:104B4200555A57595A595E7388A4A7A5A6A2857BC0
:104B52007C9AA9A6A7A7A5A9895959575A585B565D
:104B620081AAA4A7A6A8A6A6A8A184685F5F5D598A
:104B7200595A595859595A595A5664A0A7A5A8A51D
:104B8200A8A5A99A5D575958585959687A9AA9A659
:104B9200A7A58C7C7C97A9A6A8A7A6A99760585917
:104BA20059585B556FA5A6A7A6A6A6A6A6A58F735C
:104BB20063615E5858585858585859585A585E990F
:104BC200A9A4A6A6A8A6A7A267555A5859595962D8
:104BD2006E91A8A5A6A797837E8FA6A6A7A6A6A62E
:104BE200A26C565959585A58649DA8A6A7A7A7A7B8
:104BF200A6A69170625F5F5B595958595858595B24
:104C0200595B5588ABA4A6A4A6A7A5A875555B5960
:104C1200595959616E8AA7A7A6A89C7F787EA1A53B
:104C2200A5A6A7A3A87F585B5859575B5A8DAAA57A
:104C3200A8A6A7A6A6A6A17F625E5F5C585959598D
:104C42005859595B565B5378AAA4A7A6A6A8A3AB4A
:104C52008C5759585A59595B677CA0A8A6A7A489B2
:104C62007C7E9AA8A4A7A7A5AA8D5C5A575A575B1F
:104C7200547DAAA4A7A5A6A6A6A6A1856A625E5E81
:104C82005A585A5A595958585A595A578FAAA2A873
:104C9200A5A8A5A5A369565B575A5959637B97A83E
:104CA200A6A5A8947F7684A6A7A7A7A7A6A67557A8
:104CB2005A585A59595E97A9A5A7A5A7A6A5A3957B
:104CC20073605D5C5B5759595958585759575C5531
:104CD20073A9A4A6A8A6A8A2AA87545B5959585892
:104CE2005D6E85A4A7A5A5A488777596AAA6A8A790
:104CF200A4A8915D59575A575B557EA9A5A8A5A8A6
:104D0200A7A6A79F7C625B5B5E595858585A5858B1
:104D1200595A585B578BACA4A9A6A7A7A5A66E544F
:104D22005B57595857647F99A8A6A6A9957B7178B5
:104D3200A1A7A6A6A7A5A87D565A575A58595B946B
:104D4200ABA5A7A6A7A6A5A595735F595B5A585A06
:104D5200585A5A5A5A5B585B57619FA8A4A8A6A8EA
:104D6200A5AA975C585A5959585A6E8BA3A8A6A55A
:104D7200A587787189A8A4A7A6A7A89F695759589B
:104D82005859566BA4A7A7A7A6A7A7A6A38B6A5E86
:104D92005A5959585858595A5A5859575A5566A330
:104DA200A7A6A8A6A8A4AA8E575C595858595A78FB
:104DB20096A5A7A5A7A380726C88A8A5A6A6A7A852
:104DC2009C6457585A595A5670A7A6A7A7A7A6A5D2
:104DD200A79D7E655B5959595958595B5C59585B77
:104DE200565C547AAAA4A8A7A6A6A5A976545B588D
:104DF200595A5764869BA7A7A6A79E776F6E95A858
:104E0200A5A6A7A6AA8B5859575A585A5687ABA493
:104E1200A8A6A7A6A5A69473605A595A5958595AD2
:104E22005D5B58595A585A568CACA3A7A5A8A6A898
:104E3200A266575C575959576F8E9FA7A7A7A88E8E
:104E4200746E74A1A6A6A7A8A5A678565C585A594E
:104E5200585F99A9A5A7A6A6A4A7A58A6C5E595BC7
:104E62005B5A5959595A59585B585B5570A6A5A6B1
:104E7200A7A6A6A2AC88565B57595A575D778FA54D
:104E8200A7A7A7A17F716B8BA9A6A7A7A6A79660C4
:104E9200585A5B585A5679A8A4A7A6A7A6A5A79BB5
:104EA2007A645A5B5D5C5959595B5958585B595B36
:104EB200588AAAA3A8A5A6A5A6A76E555B585959B4
:104EC2005869839AA7A6A6A89477707BA1A7A7A6DC
:104ED200A7A6A679575A575959596095A8A5A7A6C2
:104EE200A7A6A6A4886A5F5B5C5D5A58595A5959AD
:104EF2005859575B547DA9A4A8A5A6A7A4AC7C5376
:104F02005C595A5959627A92A7A6A6A79C80777BC8
:104F12009BA8A5A6A7A6A8835A5B5759585B588A8F
:104F2200AAA5A8A6A7A6A6A59674605D5C5E5A5916
:104F32005A59595A5859575A5566A3A7A6A7A6A807
:104F4200A4AA945A5858595958596B819FA8A6A790
:104F5200A48D7B7089A8A5A7A7A6A89762595958BE
:104F6200575A5573A8A5A7A6A5A6A5A79D785F5CC5
:104F72005C5D5D595959585A5859575B57609DA8FD
:104F8200A5A6A5A8A5A99A5D575A59595A596A7D45
:104F92009AA8A6A6A8907A7082A8A6A6A5A7A8A055
:104FA20069565A58575A576AA3A7A5A6A5A7A5A6F0
:104FB200A07A615C5A5E5D5959595859595A5959E2
:104FC200585C98A9A5A7A3A7A5A89F63575A5859A3
:104FD200585A677E99A7A7A6A89177717FA5A7A718
:104FE200A6A7A5A36F56595858595864A0A8A6A7B2
:104FF200A6A6A5A6A5876A5E5B5F5F5A5859585850
:10500200595859585A578AAAA4A8A6A6A6A4A97557
:10501200545B5759585761758EA7A6A6A9977F78F2
:10502200799FA8A6A7A6A5A67E57595859585A5996
:1050320091ABA5A8A5A7A6A7A79978615B5C5E5AC4
:105042005859585859575A575B5471A8A6A7A7A53B
:10505200A8A4AB8F5759585858575C6C7FA1A8A683
:10506200A8A2867C7792A8A5A8A7A6A79760585958
:1050720058585A5676A7A5A8A6A6A7A6A6A182669C
:105082005B5B5D5C59585957595858585A575F9C41
:10509200A9A5A8A5A6A6A89E61575A5859575A6805
:1050A200779AA7A6A7A78F7A7685A7A6A7A7A6A766
:1050B200A16A575958585A5767A0A6A7A6A6A8A6E4
:1050C200A7A285685D5B5C5C5A585958585A595872
:1050D200585A5892AAA4A8A5A7A6A6A46A555B578F
:1050E2005A5958657492A8A6A7A7937F7881A4A657
:1050F200A6A7A6A6A573565A585A5A585E98A9A6A4
:10510200A7A5A7A7A7A78F6D605C5E5D5A585859DF
:10511200585A5859575B547FAAA3A7A6A7A8A4AA6E
:105122007D545B58595858606F88A5A7A6A89D83DF
:105132007B7B9CA6A6A7A7A4A989585A585A575A56
:105142005685AAA5A9A4A7A7A6A7997A675E5E61B4
:105152005D585859585A595A575A556EA6A6A7A774
:10516200A5A8A4AB92595A585859585C69749CA97D
:10517200A5A8A08580829AA8A5A6A7A6A8915C59F1
:10518200585A575B567AA8A5A8A6A7A7A6A7A08390
:105192006A5F5E625F5958595958595B575B566648
:1051A200A3A7A6A7A6A8A5A99A5F58595959585ABC
:1051B200646C94A9A5A8A0877F8298A7A5A7A7A693
:1051C200A89862585859585B5575A7A5A7A5A7A7CF
:1051D200A6A7A1856A5F60615F5A58585958595B02
:1051E2005759575F9DA8A4A7A5A8A6A7A166555A77
:1051F20058595959646C8DA9A4A7A38E807C90A894
:10520200A5A7A6A7A6A16D565958585957649EA797
:10521200A5A8A5A7A6A7A386695F5D62615B585989
:105222005859585A5859585E9BA8A5A8A6A7A7A787
:10523200A369555B565A5859656588AAA3A6A28ADE
:10524200817886A6A5A7A5A7A6A6745659585A5826
:1052520058609AA9A5A7A6A7A6A7A283675E5C60C5
:10526200625E5A59595859595859585C98A9A4A775
:10527200A6A7A7A7A469555A5759585A646688A978
:10528200A4A8A0837C7F92A7A4A7A6A7A7A46E55D3
:105292005A58595A575F9AA7A6A7A6A8A6A7A69191
:1052A20071605C5E625C5A595959585858585A583C
:1052B20090ABA3A8A6A6A7A5A978565B575959589B
:1052C20061627EA7A6A6A898878289A4A5A6A7A898
:1052D200A6A979545C595A58595A91A8A4A8A6A8C3
:1052E200A6A5A793725F5C5F605D595A58585858DB
:1052F20059595C5688ABA4A7A5A6A7A4AA7C555B5E
:10530200585A5A5861647DA5A6A6A895848288A495
:10531200A5A7A6A7A4AA7F565A595A585B568CA984
:10532200A5A8A6A6A6A6A89974615C5E5F5D595958
:1053320059585A5859575C5476A8A4A6A5A6A7A3AB
:10534200AB89585B585859575D6274A0A7A6A79BB2
:105352008587849CA7A6A5A7A5A988585A585A57F5
:105362005B5583AAA5A8A6A7A7A7A89F7E5F585AA0
:105372005F5F59585858585759585C547EAAA5A788
:10538200A6A5A8A4AC8B565A585959575D6170A16D
:10539200A8A5A799878B899FA8A5A5A7A5AA855780
:1053A2005A585B575B5683AAA5A8A6A6A5A7A79D90
:1053B2007E60585E625A585A595859585A575D5524
:1053C20074A8A4A8A7A6A8A4AB8A575A5858595893
:1053D2005E64739EA8A6A89D8785859BA8A6A6A79E
:1053E200A4A985585A585A575B567DA9A5A7A6A7BE
:1053F200A6A7A79F7C635B5A605B595A5A585957B4
:105402005A585C5572A7A6A6A4A5A8A4AA925C594C
:105412005959595760676C98A8A3A7A0897E718CC7
:10542200A7A6A6A5A5A89D62585959585B5472A86B
:10543200A5A7A6A5A6A7A7A282695D585E655E5824
:105442005A5C5958595859595C97A9A4A7A4A8A5B8
:10545200A7A266565B595B5859626A8EA8A5A5A792
:1054620087807A7FA8A5A7A6A7A5A777575A5959D3
:105472005958619EA7A3A8A6A6A6A5A797735A5B8B
:105482005C6D6656595A5B58585B585B557CAAA5A9
:10549200A5A6A5A7A4AA82555A575A595861777C3E
:1054A2009AA6A5A89E827E849DA8A5A7A8A3A88A3D
:1054B2005859585A585C5476A9A5A7A3A5A7A7A7D7
:1054C2009D8B655A5F5F6E5F5959585B585A585A9F
:1054D20058619DA9A5A8A5A7A6A7A066575A57597E
:1054E2005A596A718DA8A6A7A7937B7383A6A6A60D
:1054F200A5A5A7A16B565959595959609BA9A6A7A9
:10550200A4A7A7A7A3876E61576E62585E5A5D581B
:105512005A585C565D5579AAA4A7A6A6A6A4A9794D
:10552200545A595B585A6F6783A9A4A7A6957E85DA
:105532008097A8A6A6A5A6A6835A5B5759575B567D
:1055420087AAA3A8A6A7A5A5A69F84655A5A5D5BAC
:105552005859585A59595B575B5769A0A6A6A6A431
:10556200A7A6A99960595858595A5B5E6C9AA8A483
:10557200A89C8D8D7B92A9A6A5A4A6A89E64585925
:105582005A585B5772A6A4A7A6A7A6A5A6A5887374
:1055920063595A5D5F5858595B595959575C578737
:1055A200A9A3A8A6A6A7A5A66F545B595A595763E3
:1055B2006884A7A5A6A79E7D7588A5A6A7A5A5A46C
:1055C200A979565C565A575A5D8FAAA4A7A6A6A6D1
:1055D200A7A6A28163605C5F635C5958595B5A5805
:1055E20059585D5587ABA4A7A5A7A6A4AA7E555D69
:1055F20058595B596A6673A5A6A7A7A27476798FD4
:10560200A8A5A8A7A7A79B63595959585B5965A193
:10561200A7A5A5A6A7A7A79F98755A6365695F5A0C
:105622005A585959595D565A5571A7A4A6A5A6A804
:10563200A3AA925B5C59585958617C708BA9A5A8A2
:10564200A382787586A4A4A8A5A7A6A36C565B57C7
:105652005A565B5682A8A3A9A6A7A7A6A4A082759C
:105662006558605C585A59595A5A585B575C53727C
:10567200A8A5A7A6A5A6A3AA8D5A5B5759595863F0
:105682007B85A1A6A3A9957983818DA6A7A7A6A6A6
:10569200A49369585959585957609DA9A5A6A4A819
:1056A200A5A5A5A699735F65645C5B58585A5B5AB9
:1056B2005A5959595C98A7A5A7A6A7A8A4AA7E5487
:1056C2005B585A5A576E78789EA7A3A7957A868D0B
:1056D20099A6A5A6A6A6A78C5C5A585B585B5571DD
:1056E200A7A5A6A5A6A5A6A69DA28F5F676B585AD9
:1056F200585A595A62595A575B576DA6A7A6A4A57C
:10570200A9A5AA955B59585A585A5A615F7EA8A50D
:10571200A0937C7A8CA0A7A5A6A8A3A9935A5959AD
:105722005C5858595B96AAA4A7A3A7A6A7A0A69FB0
:105732008571636659595A59625D585A5B595A556F
:1057420087ACA4A7A4A6A7A5A78F5B595A595A58F4
:105752005B5773939EA9A08A83879DA6A4A6A4A73C
:10576200A5A79664595859575C556EA5A5A1A0A640
:10577200A7A7A7A4A79F92817D795D5A586765580C
:105782005A5C585A5666A1A6A4A7A7A6A6A7A46BB8
:10579200555A575D56676B5D597BA9987D6F89A6EF
:1057A200A5A6A6A5A6A7A7A369545A575B575A57F9
:1057B20085ABA4A8A6A8A6A6A6A6A3A99676755D5B
:1057C2005959585D5B59585B595A578CAAA4A7A6D8
:1057D200A7A7A5A69C61585A575B5A66665A58886D
:1057E200A1956E5C94A7A6A6A7A4A7A5A7995E57A4
:1057F20059585959586D91A2A7A4A5A7A7A6A6A51D
:10580200A5A7A18C7C655858595A5A585A5A5C56C1
:10581200639FA7A7A6A5A4A8A6A9935A5A59595AFD
:105822005C5A5C5D565E6B6E707B9FA7A6A6A6A7B0
:10583200A6A6907E6D5859595858585B8BA19797D8
:10584200A6A5A4A7A5A6A8A6A77D5A5B585A5858EC
:1058520058595C5B5B568BAAA4A8A3A8A6A9A3AAC5
:1058620085575C58585C595C775F5B5C70685B86F7
:105872009FA5A6A7A6A7A6A5A46E575B5A595858D6
:105882005D576A99A0A5A4A7A6A6A6A6A5A5A59DAB
:105892006E565C585859585A595C5869A4A6A5A620
:1058A200A4A6A6A7A5A89666595D665A5D5858583B
:1058B2005B726256729DA5A6A7A6A6A8A5A7967A10
:1058C20062585A5A5D5959575E8B9D91A0A8A6A35A
:1058D200A4A7A7A6A27157675D58595A585B575C8F
:1058E200567AA9A3A7A4A6A6A6A6A6A37F586578BA
:1058F200685A5E625958595B5B69647EA6A5A7A681
:10590200A6A8A5A89873707065585859585A567029
:10591200828DA7A5A8A6A5A7A5A4879379565A57AD
:10592200615C5A5B585D577BA6A4A8A4A5A7A6A74D
:1059320099A49580818C7C718867595958595A5914
:105942005E94A8A4A7A6A8A6A6A7A7A5A1926E58EA
:105952005B59595B585C789CA8A6A2A4A5A3A67F14
:10596200789B9367565958595A5A5D58669DA4A513
:10597200A6A5A5A4A599A1A6A79C98A7A194745B86
:105982005A5759566563669DA5A5A8A6A6959BA9D3
:10599200A6A09EAA99655957655E595978A5A3A0F4
:1059A200A6A29A94876674A1996F585958585A5D5D
:1059B2005E58699FA6A6A6A5A7A6A7847E9DA3A5B5
:1059C200A79F98A373585B595A596C5F7BA7A5A7E9
:1059D200A3A78380A7A6A7A1A6A5A88E665D5859EE
:1059E200595D8393909FA69E76607C826988896EBA
:1059F2005F5B5C5859595E556EA7A6A4A6A4A3A6E0
:105A0200817A9194919DA7A3A7875D59595B5A5AB0
:105A12005E859691909DA9A5877F798AA9A5A8A35D
:105A2200A8905A6068676781989AA2A5A095856038
:105A3200575B6E7F797A765959595A5A5C5D75A4CB
:105A4200A4A7A7A59D7D8187838A96A5A4A4A69CC9
:105A52008B6F585859656E727699A18F9A6F5B7BDE
:105A62006873A1A0A4A7A0A3A0876F5B6495A78772
:105A72008AA2A4815F5E7A6F555D6F93735B5C5AF5
:105A82005B5E575B5781AAA0A4A5A884596694A21D
:105A9200A6A6A5A6A4A19E876A5F585C798585798A
:105AA20086938668555F6A705D79A3A3A4A3A582D5
:105AB2007E818290909CA8A295A09866575B829561
:105AC20073838B8F6C5B5D5E796457595C7A9CA3A0
